{
  "_format": "hh-sol-artifact-1",
  "contractName": "ERC1155Meta",
  "sourceName": "contracts/shared/facets/ERC1155/meta/ERC1155Meta.sol",
  "abi": [
    {
      "inputs": [],
      "name": "name",
      "outputs": [
        {
          "internalType": "string",
          "name": "",
          "type": "string"
        }
      ],
      "stateMutability": "view",
      "type": "function"
    },
    {
      "inputs": [],
      "name": "symbol",
      "outputs": [
        {
          "internalType": "string",
          "name": "",
          "type": "string"
        }
      ],
      "stateMutability": "view",
      "type": "function"
    },
    {
      "inputs": [],
      "name": "uriPrefix",
      "outputs": [
        {
          "internalType": "string",
          "name": "uriPrefix_",
          "type": "string"
        }
      ],
      "stateMutability": "view",
      "type": "function"
    }
  ],
  "bytecode": "0x608060405234801561001057600080fd5b50610422806100206000396000f3fe608060405234801561001057600080fd5b50600436106100415760003560e01c806306fdde031461004657806362b99ad41461006457806395d89b4114610082575b600080fd5b61004e6100a0565b60405161005b919061036a565b60405180910390f35b61006c6100af565b604051610079919061036a565b60405180910390f35b61008a6100be565b604051610097919061036a565b60405180910390f35b60606100aa6100cd565b905090565b60606100b9610168565b905090565b60606100c8610203565b905090565b60606100d761029e565b60000180546100e5906103bb565b80601f0160208091040260200160405190810160405280929190818152602001828054610111906103bb565b801561015e5780601f106101335761010080835404028352916020019161015e565b820191906000526020600020905b81548152906001019060200180831161014157829003601f168201915b5050505050905090565b606061017261029e565b6002018054610180906103bb565b80601f01602080910402602001604051908101604052809291908181526020018280546101ac906103bb565b80156101f95780601f106101ce576101008083540402835291602001916101f9565b820191906000526020600020905b8154815290600101906020018083116101dc57829003601f168201915b5050505050905090565b606061020d61029e565b600101805461021b906103bb565b80601f0160208091040260200160405190810160405280929190818152602001828054610247906103bb565b80156102945780601f1061026957610100808354040283529160200191610294565b820191906000526020600020905b81548152906001019060200180831161027757829003601f168201915b5050505050905090565b60006102a86102ad565b905090565b6000807fd0663838b68b01f53e08cceabfcf6be04c591567ba78dedfc4928e98500bd9eb90508091505090565b600081519050919050565b600082825260208201905092915050565b60005b838110156103145780820151818401526020810190506102f9565b60008484015250505050565b6000601f19601f8301169050919050565b600061033c826102da565b61034681856102e5565b93506103568185602086016102f6565b61035f81610320565b840191505092915050565b600060208201905081810360008301526103848184610331565b905092915050565b7f4e487b7100000000000000000000000000000000000000000000000000000000600052602260045260246000fd5b600060028204905060018216806103d357607f821691505b6020821081036103e6576103e561038c565b5b5091905056fea26469706673582212208e8e9caee6236fc75c5d29d1a737f3a64746d48e88ce6a55113b38f9785ff57664736f6c63430008120033",
  "linkReferences": {},
  "deployedLinkReferences": {}
}