{
  "_format": "hh-sol-artifact-1",
  "contractName": "ERC20Capped",
  "sourceName": "contracts/shared/facets/ERC20/extension/ERC20Capped.sol",
  "abi": [
    {
      "anonymous": false,
      "inputs": [
        {
          "indexed": true,
          "internalType": "address",
          "name": "owner",
          "type": "address"
        },
        {
          "indexed": true,
          "internalType": "address",
          "name": "spender",
          "type": "address"
        },
        {
          "indexed": false,
          "internalType": "uint256",
          "name": "value",
          "type": "uint256"
        }
      ],
      "name": "Approval",
      "type": "event"
    },
    {
      "anonymous": false,
      "inputs": [
        {
          "indexed": true,
          "internalType": "address",
          "name": "from",
          "type": "address"
        },
        {
          "indexed": true,
          "internalType": "address",
          "name": "to",
          "type": "address"
        },
        {
          "indexed": false,
          "internalType": "uint256",
          "name": "value",
          "type": "uint256"
        }
      ],
      "name": "Transfer",
      "type": "event"
    },
    {
      "inputs": [],
      "name": "cap",
      "outputs": [
        {
          "internalType": "uint256",
          "name": "cap_",
          "type": "uint256"
        }
      ],
      "stateMutability": "view",
      "type": "function"
    },
    {
      "inputs": [
        {
          "internalType": "uint256",
          "name": "cap_",
          "type": "uint256"
        }
      ],
      "name": "initERC20Capped",
      "outputs": [],
      "stateMutability": "nonpayable",
      "type": "function"
    },
    {
      "inputs": [
        {
          "internalType": "address",
          "name": "to",
          "type": "address"
        },
        {
          "internalType": "uint256",
          "name": "value",
          "type": "uint256"
        }
      ],
      "name": "transfer",
      "outputs": [
        {
          "internalType": "bool",
          "name": "",
          "type": "bool"
        }
      ],
      "stateMutability": "nonpayable",
      "type": "function"
    }
  ],
  "bytecode": "0x608060405234801561001057600080fd5b506109f0806100206000396000f3fe608060405234801561001057600080fd5b50600436106100415760003560e01c8063355274ea146100465780639e8b30b014610064578063a9059cbb14610080575b600080fd5b61004e6100b0565b60405161005b9190610583565b60405180910390f35b61007e600480360381019061007991906105cf565b6100bf565b005b61009a6004803603810190610095919061065a565b6100cb565b6040516100a791906106b5565b60405180910390f35b60006100ba6100f1565b905090565b6100c881610109565b50565b60006100d5610122565b6100e76100e0610194565b8484610244565b6001905092915050565b6000806100fc610510565b9050806000015491505090565b6000610113610510565b90508181600001819055505050565b600061012c61053d565b90506000610138610510565b9050806000015434836001015461014f91906106ff565b1115610190576040517f08c379a000000000000000000000000000000000000000000000000000000000815260040161018790610790565b60405180910390fd5b5050565b60003073ffffffffffffffffffffffffffffffffffffffff163373ffffffffffffffffffffffffffffffffffffffff160361023d57600080368080601f016020809104026020016040519081016040528093929190818152602001838380828437600081840152601f19601f820116905080830192505050505050509050600080369050905073ffffffffffffffffffffffffffffffffffffffff818301511692505050610241565b3390505b90565b600061024e61053d565b9050600073ffffffffffffffffffffffffffffffffffffffff168473ffffffffffffffffffffffffffffffffffffffff16036102bf576040517f08c379a00000000000000000000000000000000000000000000000000000000081526004016102b6906107fc565b60405180910390fd5b600073ffffffffffffffffffffffffffffffffffffffff168373ffffffffffffffffffffffffffffffffffffffff160361032e576040517f08c379a000000000000000000000000000000000000000000000000000000000815260040161032590610868565b60405180910390fd5b60008211610371576040517f08c379a0000000000000000000000000000000000000000000000000000000008152600401610368906108fa565b60405180910390fd5b818160020160008673ffffffffffffffffffffffffffffffffffffffff1673ffffffffffffffffffffffffffffffffffffffff1681526020019081526020016000205410156103f5576040517f08c379a00000000000000000000000000000000000000000000000000000000081526004016103ec90610966565b60405180910390fd5b818160020160008673ffffffffffffffffffffffffffffffffffffffff1673ffffffffffffffffffffffffffffffffffffffff16815260200190815260200160002060008282546104469190610986565b92505081905550818160020160008573ffffffffffffffffffffffffffffffffffffffff1673ffffffffffffffffffffffffffffffffffffffff168152602001908152602001600020600082825461049e91906106ff565b925050819055508273ffffffffffffffffffffffffffffffffffffffff168473ffffffffffffffffffffffffffffffffffffffff167fddf252ad1be2c89b69c2b068fc378daa952ba7f163c4a11628f55a4df523b3ef846040516105029190610583565b60405180910390a350505050565b6000807f5215d25d8b638773b1d490e0d378c0e55b7f29d487d042ceb761433bb840513690508091505090565b6000807f7c93868e1bfb5ff7f7930e0ba0154b0d59fc7f9fd1852f9ca4873d7bcbe740d090508091505090565b6000819050919050565b61057d8161056a565b82525050565b60006020820190506105986000830184610574565b92915050565b600080fd5b6105ac8161056a565b81146105b757600080fd5b50565b6000813590506105c9816105a3565b92915050565b6000602082840312156105e5576105e461059e565b5b60006105f3848285016105ba565b91505092915050565b600073ffffffffffffffffffffffffffffffffffffffff82169050919050565b6000610627826105fc565b9050919050565b6106378161061c565b811461064257600080fd5b50565b6000813590506106548161062e565b92915050565b600080604083850312156106715761067061059e565b5b600061067f85828601610645565b9250506020610690858286016105ba565b9150509250929050565b60008115159050919050565b6106af8161069a565b82525050565b60006020820190506106ca60008301846106a6565b92915050565b7f4e487b7100000000000000000000000000000000000000000000000000000000600052601160045260246000fd5b600061070a8261056a565b91506107158361056a565b925082820190508082111561072d5761072c6106d0565b5b92915050565b600082825260208201905092915050565b7f45584345454445442043415050454420535550504c59204c494d495445440000600082015250565b600061077a601e83610733565b915061078582610744565b602082019050919050565b600060208201905081810360008301526107a98161076d565b9050919050565b7f7472616e736665722066726f6d20746865207a65726f20616464726573730000600082015250565b60006107e6601e83610733565b91506107f1826107b0565b602082019050919050565b60006020820190508181036000830152610815816107d9565b9050919050565b7f7472616e7366657220746f20746865207a65726f206164647265737300000000600082015250565b6000610852601c83610733565b915061085d8261081c565b602082019050919050565b6000602082019050818103600083015261088181610845565b9050919050565b7f7472616e736665722076616c7565206d7573742062652067726561746572207460008201527f68616e207a65726f000000000000000000000000000000000000000000000000602082015250565b60006108e4602883610733565b91506108ef82610888565b604082019050919050565b60006020820190508181036000830152610913816108d7565b9050919050565b7f7472616e7366657220616d6f756e7420657863656564732062616c616e636500600082015250565b6000610950601f83610733565b915061095b8261091a565b602082019050919050565b6000602082019050818103600083015261097f81610943565b9050919050565b60006109918261056a565b915061099c8361056a565b92508282039050818111156109b4576109b36106d0565b5b9291505056fea2646970667358221220b97d37fa7a596ff65b8fd8cbccaa1249aa515a16107de6335a893a6748c5d76464736f6c63430008120033",
  "linkReferences": {},
  "deployedLinkReferences": {}
}