{
  "_format": "hh-sol-artifact-1",
  "contractName": "TribalMembership",
  "sourceName": "contracts/Tribal/TribalIdentity.sol",
  "abi": [
    {
      "inputs": [
        {
          "internalType": "string",
          "name": "_hash",
          "type": "string"
        }
      ],
      "name": "IPFSCIDExists",
      "type": "error"
    },
    {
      "anonymous": false,
      "inputs": [
        {
          "indexed": true,
          "internalType": "address",
          "name": "owner",
          "type": "address"
        },
        {
          "indexed": true,
          "internalType": "address",
          "name": "operator",
          "type": "address"
        },
        {
          "indexed": false,
          "internalType": "bool",
          "name": "approved",
          "type": "bool"
        }
      ],
      "name": "ApprovalForAll",
      "type": "event"
    },
    {
      "anonymous": false,
      "inputs": [
        {
          "indexed": true,
          "internalType": "address",
          "name": "operator",
          "type": "address"
        },
        {
          "indexed": true,
          "internalType": "address",
          "name": "from",
          "type": "address"
        },
        {
          "indexed": true,
          "internalType": "address",
          "name": "to",
          "type": "address"
        },
        {
          "indexed": false,
          "internalType": "uint256[]",
          "name": "ids",
          "type": "uint256[]"
        },
        {
          "indexed": false,
          "internalType": "uint256[]",
          "name": "values",
          "type": "uint256[]"
        }
      ],
      "name": "TransferBatch",
      "type": "event"
    },
    {
      "anonymous": false,
      "inputs": [
        {
          "indexed": true,
          "internalType": "address",
          "name": "operator",
          "type": "address"
        },
        {
          "indexed": true,
          "internalType": "address",
          "name": "from",
          "type": "address"
        },
        {
          "indexed": true,
          "internalType": "address",
          "name": "to",
          "type": "address"
        },
        {
          "indexed": false,
          "internalType": "uint256",
          "name": "id",
          "type": "uint256"
        },
        {
          "indexed": false,
          "internalType": "uint256",
          "name": "value",
          "type": "uint256"
        }
      ],
      "name": "TransferSingle",
      "type": "event"
    },
    {
      "anonymous": false,
      "inputs": [
        {
          "indexed": false,
          "internalType": "string",
          "name": "value",
          "type": "string"
        },
        {
          "indexed": true,
          "internalType": "uint256",
          "name": "id",
          "type": "uint256"
        }
      ],
      "name": "URI",
      "type": "event"
    },
    {
      "inputs": [],
      "name": "_initializeTribalMemebrship",
      "outputs": [],
      "stateMutability": "nonpayable",
      "type": "function"
    },
    {
      "inputs": [
        {
          "internalType": "uint256",
          "name": "tribeId",
          "type": "uint256"
        },
        {
          "internalType": "string",
          "name": "cid",
          "type": "string"
        },
        {
          "internalType": "string",
          "name": "fileName",
          "type": "string"
        },
        {
          "internalType": "bytes",
          "name": "hash",
          "type": "bytes"
        }
      ],
      "name": "addTribalDocs",
      "outputs": [],
      "stateMutability": "nonpayable",
      "type": "function"
    },
    {
      "inputs": [
        {
          "internalType": "address",
          "name": "_owner",
          "type": "address"
        },
        {
          "internalType": "uint256",
          "name": "_id",
          "type": "uint256"
        }
      ],
      "name": "balanceOf",
      "outputs": [
        {
          "internalType": "uint256",
          "name": "",
          "type": "uint256"
        }
      ],
      "stateMutability": "view",
      "type": "function"
    },
    {
      "inputs": [
        {
          "internalType": "address[]",
          "name": "_owners",
          "type": "address[]"
        },
        {
          "internalType": "uint256[]",
          "name": "_ids",
          "type": "uint256[]"
        }
      ],
      "name": "balanceOfBatch",
      "outputs": [
        {
          "internalType": "uint256[]",
          "name": "",
          "type": "uint256[]"
        }
      ],
      "stateMutability": "view",
      "type": "function"
    },
    {
      "inputs": [
        {
          "internalType": "uint256",
          "name": "tribeId",
          "type": "uint256"
        },
        {
          "internalType": "address",
          "name": "memberAddress",
          "type": "address"
        }
      ],
      "name": "getMember",
      "outputs": [
        {
          "internalType": "string",
          "name": "name",
          "type": "string"
        },
        {
          "internalType": "uint256",
          "name": "dob",
          "type": "uint256"
        },
        {
          "internalType": "string",
          "name": "location",
          "type": "string"
        },
        {
          "internalType": "string",
          "name": "usGovernmentName",
          "type": "string"
        },
        {
          "internalType": "string",
          "name": "sex",
          "type": "string"
        },
        {
          "internalType": "string[]",
          "name": "languages",
          "type": "string[]"
        },
        {
          "internalType": "string",
          "name": "imageCID",
          "type": "string"
        },
        {
          "internalType": "uint256",
          "name": "tribalNumber",
          "type": "uint256"
        },
        {
          "internalType": "address[]",
          "name": "tribalAffiliations",
          "type": "address[]"
        }
      ],
      "stateMutability": "view",
      "type": "function"
    },
    {
      "inputs": [],
      "name": "getTotalTribes",
      "outputs": [
        {
          "internalType": "uint256",
          "name": "totalTribes",
          "type": "uint256"
        }
      ],
      "stateMutability": "view",
      "type": "function"
    },
    {
      "inputs": [
        {
          "internalType": "uint256",
          "name": "tribeId",
          "type": "uint256"
        }
      ],
      "name": "getTribe",
      "outputs": [
        {
          "internalType": "string",
          "name": "name",
          "type": "string"
        },
        {
          "internalType": "address",
          "name": "chief",
          "type": "address"
        },
        {
          "internalType": "uint256[]",
          "name": "tribalDocs",
          "type": "uint256[]"
        },
        {
          "internalType": "uint256",
          "name": "registrationTimestamp",
          "type": "uint256"
        }
      ],
      "stateMutability": "view",
      "type": "function"
    },
    {
      "inputs": [
        {
          "internalType": "address",
          "name": "_owner",
          "type": "address"
        },
        {
          "internalType": "address",
          "name": "_operator",
          "type": "address"
        }
      ],
      "name": "isApprovedForAll",
      "outputs": [
        {
          "internalType": "bool",
          "name": "",
          "type": "bool"
        }
      ],
      "stateMutability": "view",
      "type": "function"
    },
    {
      "inputs": [],
      "name": "name",
      "outputs": [
        {
          "internalType": "string",
          "name": "",
          "type": "string"
        }
      ],
      "stateMutability": "view",
      "type": "function"
    },
    {
      "inputs": [
        {
          "internalType": "uint256",
          "name": "tribeId",
          "type": "uint256"
        },
        {
          "internalType": "address",
          "name": "memberAddress",
          "type": "address"
        },
        {
          "internalType": "string",
          "name": "name",
          "type": "string"
        },
        {
          "internalType": "uint256",
          "name": "dob",
          "type": "uint256"
        },
        {
          "internalType": "string",
          "name": "location",
          "type": "string"
        },
        {
          "internalType": "string",
          "name": "usGovernmentName",
          "type": "string"
        },
        {
          "internalType": "string",
          "name": "sex",
          "type": "string"
        },
        {
          "internalType": "string[]",
          "name": "languages",
          "type": "string[]"
        },
        {
          "internalType": "string",
          "name": "imageCID",
          "type": "string"
        },
        {
          "internalType": "uint256",
          "name": "tribalNumber",
          "type": "uint256"
        },
        {
          "internalType": "address[]",
          "name": "tribalAffiliations",
          "type": "address[]"
        }
      ],
      "name": "registerMember",
      "outputs": [],
      "stateMutability": "nonpayable",
      "type": "function"
    },
    {
      "inputs": [
        {
          "internalType": "string",
          "name": "name",
          "type": "string"
        },
        {
          "internalType": "address",
          "name": "chief",
          "type": "address"
        }
      ],
      "name": "registerTribe",
      "outputs": [],
      "stateMutability": "nonpayable",
      "type": "function"
    },
    {
      "inputs": [
        {
          "internalType": "address",
          "name": "_from",
          "type": "address"
        },
        {
          "internalType": "address",
          "name": "_to",
          "type": "address"
        },
        {
          "internalType": "uint256[]",
          "name": "_ids",
          "type": "uint256[]"
        },
        {
          "internalType": "uint256[]",
          "name": "_values",
          "type": "uint256[]"
        }
      ],
      "name": "safeBatchTransferFrom",
      "outputs": [],
      "stateMutability": "nonpayable",
      "type": "function"
    },
    {
      "inputs": [
        {
          "internalType": "address",
          "name": "_from",
          "type": "address"
        },
        {
          "internalType": "address",
          "name": "_to",
          "type": "address"
        },
        {
          "internalType": "uint256",
          "name": "_id",
          "type": "uint256"
        },
        {
          "internalType": "uint256",
          "name": "_value",
          "type": "uint256"
        }
      ],
      "name": "safeTransferFrom",
      "outputs": [],
      "stateMutability": "nonpayable",
      "type": "function"
    },
    {
      "inputs": [
        {
          "internalType": "address",
          "name": "_operator",
          "type": "address"
        },
        {
          "internalType": "bool",
          "name": "_approved",
          "type": "bool"
        }
      ],
      "name": "setApprovalForAll",
      "outputs": [],
      "stateMutability": "nonpayable",
      "type": "function"
    },
    {
      "inputs": [],
      "name": "symbol",
      "outputs": [
        {
          "internalType": "string",
          "name": "",
          "type": "string"
        }
      ],
      "stateMutability": "view",
      "type": "function"
    },
    {
      "inputs": [
        {
          "internalType": "uint256",
          "name": "_id",
          "type": "uint256"
        }
      ],
      "name": "uri",
      "outputs": [
        {
          "internalType": "string",
          "name": "",
          "type": "string"
        }
      ],
      "stateMutability": "view",
      "type": "function"
    },
    {
      "inputs": [],
      "name": "uriPrefix",
      "outputs": [
        {
          "internalType": "string",
          "name": "uriPrefix_",
          "type": "string"
        }
      ],
      "stateMutability": "view",
      "type": "function"
    }
  ],
  "bytecode": "0x608060405234801561001057600080fd5b506139d3806100206000396000f3fe608060405234801561001057600080fd5b506004361061010a5760003560e01c806362b99ad4116100a2578063a22cb46511610071578063a22cb465146102c2578063a2a82c15146102de578063e985e9c5146102fc578063f36cf7d41461032c578063fba0ee64146103485761010a565b806362b99ad414610232578063801abf6e146102505780638b4968cf1461026c57806395d89b41146102a45761010a565b80630e89341c116100de5780630e89341c1461019a5780630febdd49146101ca578063359fd928146101e65780634e1273f4146102025761010a565b8062fdd58e1461010f578063053820801461013f57806306fdde03146101725780630c80d3de14610190575b600080fd5b61012960048036038101906101249190612255565b610364565b60405161013691906122a4565b60405180910390f35b610159600480360381019061015491906122bf565b610378565b6040516101699493929190612449565b60405180910390f35b61017a6103b0565b604051610187919061249c565b60405180910390f35b6101986103bf565b005b6101b460048036038101906101af91906122bf565b61043e565b6040516101c1919061249c565b60405180910390f35b6101e460048036038101906101df91906124be565b610450565b005b61020060048036038101906101fb9190612803565b610462565b005b61021c60048036038101906102179190612a7e565b61064b565b6040516102299190612af6565b60405180910390f35b61023a61065f565b604051610247919061249c565b60405180910390f35b61026a60048036038101906102659190612b18565b61066e565b005b61028660048036038101906102819190612b74565b61067c565b60405161029b99989796959493929190612d7e565b60405180910390f35b6102ac610b98565b6040516102b9919061249c565b60405180910390f35b6102dc60048036038101906102d79190612e74565b610ba7565b005b6102e6610bb5565b6040516102f391906122a4565b60405180910390f35b61031660048036038101906103119190612eb4565b610bc8565b6040516103239190612f03565b60405180910390f35b61034660048036038101906103419190612fbf565b610bdc565b005b610362600480360381019061035d919061307a565b610c71565b005b60006103708383610c83565b905092915050565b60606000606060008061038a86610ce7565b905080600001519450806020015193508060400151925080606001519150509193509193565b60606103ba610e67565b905090565b6103c7610f02565b60020160009054906101000a900460ff1615610418576040517f08c379a000000000000000000000000000000000000000000000000000000000815260040161040f90613165565b60405180910390fd5b6001610422610f02565b60020160006101000a81548160ff021916908315150217905550565b606061044982610f11565b9050919050565b61045c84848484610f6b565b50505050565b8a61046c81610ce7565b6020015173ffffffffffffffffffffffffffffffffffffffff1661048e61113e565b73ffffffffffffffffffffffffffffffffffffffff16146104e4576040517f08c379a00000000000000000000000000000000000000000000000000000000081526004016104db906131d1565b60405180910390fd5b6040518061012001604052808b81526020018a81526020018981526020018881526020018781526020018681526020018581526020018481526020018381525061052c610f02565b60000160008e815260200190815260200160002060008d73ffffffffffffffffffffffffffffffffffffffff1673ffffffffffffffffffffffffffffffffffffffff168152602001908152602001600020600082015181600001908161059291906133fd565b506020820151816001015560408201518160020190816105b291906133fd565b5060608201518160030190816105c891906133fd565b5060808201518160040190816105de91906133fd565b5060a08201518160050190805190602001906105fb92919061200b565b5060c082015181600601908161061191906133fd565b5060e08201518160070155610100820151816008019080519060200190610639929190612064565b50905050505050505050505050505050565b606061065783836111ee565b905092915050565b6060610669611359565b905090565b61067882826113f4565b5050565b606060006060806060806060600060606000610696610f02565b60000160008d815260200190815260200160002060008c73ffffffffffffffffffffffffffffffffffffffff1673ffffffffffffffffffffffffffffffffffffffff1681526020019081526020016000206040518061012001604052908160008201805461070390613220565b80601f016020809104026020016040519081016040528092919081815260200182805461072f90613220565b801561077c5780601f106107515761010080835404028352916020019161077c565b820191906000526020600020905b81548152906001019060200180831161075f57829003601f168201915b505050505081526020016001820154815260200160028201805461079f90613220565b80601f01602080910402602001604051908101604052809291908181526020018280546107cb90613220565b80156108185780601f106107ed57610100808354040283529160200191610818565b820191906000526020600020905b8154815290600101906020018083116107fb57829003601f168201915b5050505050815260200160038201805461083190613220565b80601f016020809104026020016040519081016040528092919081815260200182805461085d90613220565b80156108aa5780601f1061087f576101008083540402835291602001916108aa565b820191906000526020600020905b81548152906001019060200180831161088d57829003601f168201915b505050505081526020016004820180546108c390613220565b80601f01602080910402602001604051908101604052809291908181526020018280546108ef90613220565b801561093c5780601f106109115761010080835404028352916020019161093c565b820191906000526020600020905b81548152906001019060200180831161091f57829003601f168201915b5050505050815260200160058201805480602002602001604051908101604052809291908181526020016000905b82821015610a1657838290600052602060002001805461098990613220565b80601f01602080910402602001604051908101604052809291908181526020018280546109b590613220565b8015610a025780601f106109d757610100808354040283529160200191610a02565b820191906000526020600020905b8154815290600101906020018083116109e557829003601f168201915b50505050508152602001906001019061096a565b505050508152602001600682018054610a2e90613220565b80601f0160208091040260200160405190810160405280929190818152602001828054610a5a90613220565b8015610aa75780601f10610a7c57610100808354040283529160200191610aa7565b820191906000526020600020905b815481529060010190602001808311610a8a57829003601f168201915b505050505081526020016007820154815260200160088201805480602002602001604051908101604052809291908181526020018280548015610b3f57602002820191906000526020600020905b8160009054906101000a900473ffffffffffffffffffffffffffffffffffffffff1673ffffffffffffffffffffffffffffffffffffffff1681526020019060010190808311610af5575b505050505081525050905080600001519950806020015198508060400151975080606001519650806080015195508060a0015194508060c0015193508060e0015192508061010001519150509295985092959850929598565b6060610ba26114a9565b905090565b610bb18282611544565b5050565b6000610bbf61164a565b60010154905090565b6000610bd48383611659565b905092915050565b83610be681610ce7565b6020015173ffffffffffffffffffffffffffffffffffffffff16610c0861113e565b73ffffffffffffffffffffffffffffffffffffffff1614610c5e576040517f08c379a0000000000000000000000000000000000000000000000000000000008152600401610c55906131d1565b60405180910390fd5b610c6a858585856116f6565b5050505050565b610c7d848484846117f8565b50505050565b6000610c8d611a97565b60000160008473ffffffffffffffffffffffffffffffffffffffff1673ffffffffffffffffffffffffffffffffffffffff168152602001908152602001600020600083815260200190815260200160002054905092915050565b610cef6120ee565b610cf761164a565b6000016000838152602001908152602001600020604051806080016040529081600082018054610d2690613220565b80601f0160208091040260200160405190810160405280929190818152602001828054610d5290613220565b8015610d9f5780601f10610d7457610100808354040283529160200191610d9f565b820191906000526020600020905b815481529060010190602001808311610d8257829003601f168201915b505050505081526020016001820160009054906101000a900473ffffffffffffffffffffffffffffffffffffffff1673ffffffffffffffffffffffffffffffffffffffff1673ffffffffffffffffffffffffffffffffffffffff16815260200160028201805480602002602001604051908101604052809291908181526020018280548015610e4d57602002820191906000526020600020905b815481526020019060010190808311610e39575b505050505081526020016003820154815250509050919050565b6060610e71611aa6565b6000018054610e7f90613220565b80601f0160208091040260200160405190810160405280929190818152602001828054610eab90613220565b8015610ef85780601f10610ecd57610100808354040283529160200191610ef8565b820191906000526020600020905b815481529060010190602001808311610edb57829003601f168201915b5050505050905090565b6000610f0c611ab5565b905090565b6060610f1c82611ae2565b610f5b576040517f08c379a0000000000000000000000000000000000000000000000000000000008152600401610f529061351b565b60405180910390fd5b610f6482611bb3565b9050919050565b600073ffffffffffffffffffffffffffffffffffffffff168373ffffffffffffffffffffffffffffffffffffffff1603610fda576040517f08c379a0000000000000000000000000000000000000000000000000000000008152600401610fd190613587565b60405180910390fd5b80610fe3611a97565b60000160008673ffffffffffffffffffffffffffffffffffffffff1673ffffffffffffffffffffffffffffffffffffffff1681526020019081526020016000206000848152602001908152602001600020600082825461104391906135d6565b9250508190555080611053611a97565b60000160008573ffffffffffffffffffffffffffffffffffffffff1673ffffffffffffffffffffffffffffffffffffffff168152602001908152602001600020600084815260200190815260200160002060008282546110b3919061360a565b925050819055508273ffffffffffffffffffffffffffffffffffffffff168473ffffffffffffffffffffffffffffffffffffffff163373ffffffffffffffffffffffffffffffffffffffff167fc3d58168c5ae7397731d063d5bbf3d657854427343f4c083240f7aacaa2d0f62858560405161113092919061363e565b60405180910390a450505050565b60003073ffffffffffffffffffffffffffffffffffffffff163373ffffffffffffffffffffffffffffffffffffffff16036111e757600080368080601f016020809104026020016040519081016040528093929190818152602001838380828437600081840152601f19601f820116905080830192505050505050509050600080369050905073ffffffffffffffffffffffffffffffffffffffff8183015116925050506111eb565b3390505b90565b60608151835114611234576040517f08c379a000000000000000000000000000000000000000000000000000000000815260040161122b906136b3565b60405180910390fd5b6000835167ffffffffffffffff8111156112515761125061252f565b5b60405190808252806020026020018201604052801561127f5781602001602082028036833780820191505090505b50905060005b845181101561134e57611296611a97565b60000160008683815181106112ae576112ad6136d3565b5b602002602001015173ffffffffffffffffffffffffffffffffffffffff1673ffffffffffffffffffffffffffffffffffffffff1681526020019081526020016000206000858381518110611305576113046136d3565b5b602002602001015181526020019081526020016000205482828151811061132f5761132e6136d3565b5b602002602001018181525050808061134690613702565b915050611285565b508091505092915050565b6060611363611aa6565b600201805461137190613220565b80601f016020809104026020016040519081016040528092919081815260200182805461139d90613220565b80156113ea5780601f106113bf576101008083540402835291602001916113ea565b820191906000526020600020905b8154815290600101906020018083116113cd57829003601f168201915b5050505050905090565b60006113fe61164a565b600101549050600061140e61164a565b600001600083815260200190815260200160002090508381600001908161143591906133fd565b50828160010160006101000a81548173ffffffffffffffffffffffffffffffffffffffff021916908373ffffffffffffffffffffffffffffffffffffffff16021790555042816003018190555061148a61164a565b600101600081548092919061149e90613702565b919050555050505050565b60606114b3611aa6565b60010180546114c190613220565b80601f01602080910402602001604051908101604052809291908181526020018280546114ed90613220565b801561153a5780601f1061150f5761010080835404028352916020019161153a565b820191906000526020600020905b81548152906001019060200180831161151d57829003601f168201915b5050505050905090565b8061154d611a97565b60010160003373ffffffffffffffffffffffffffffffffffffffff1673ffffffffffffffffffffffffffffffffffffffff16815260200190815260200160002060008473ffffffffffffffffffffffffffffffffffffffff1673ffffffffffffffffffffffffffffffffffffffff16815260200190815260200160002060006101000a81548160ff0219169083151502179055508173ffffffffffffffffffffffffffffffffffffffff163373ffffffffffffffffffffffffffffffffffffffff167f17307eab39ab6107e8899845ad3d59bd9653f200f220920489ca2b5937696c318360405161163e9190612f03565b60405180910390a35050565b6000611654611d13565b905090565b6000611663611a97565b60010160008473ffffffffffffffffffffffffffffffffffffffff1673ffffffffffffffffffffffffffffffffffffffff16815260200190815260200160002060008373ffffffffffffffffffffffffffffffffffffffff1673ffffffffffffffffffffffffffffffffffffffff16815260200190815260200160002060009054906101000a900460ff16905092915050565b600061170061164a565b600001600086815260200190815260200160002090508060010160009054906101000a900473ffffffffffffffffffffffffffffffffffffffff1673ffffffffffffffffffffffffffffffffffffffff1661175961113e565b73ffffffffffffffffffffffffffffffffffffffff16146117af576040517f08c379a00000000000000000000000000000000000000000000000000000000081526004016117a6906131d1565b60405180910390fd5b60008160020180549050905060006117c8868686611d40565b9050808360020183815481106117e1576117e06136d3565b5b906000526020600020018190555050505050505050565b600073ffffffffffffffffffffffffffffffffffffffff168373ffffffffffffffffffffffffffffffffffffffff1603611867576040517f08c379a000000000000000000000000000000000000000000000000000000000815260040161185e90613587565b60405180910390fd5b80518251146118ab576040517f08c379a00000000000000000000000000000000000000000000000000000000081526004016118a2906136b3565b60405180910390fd5b60005b8251811015611a12578181815181106118ca576118c96136d3565b5b60200260200101516118da611a97565b60000160008773ffffffffffffffffffffffffffffffffffffffff1673ffffffffffffffffffffffffffffffffffffffff168152602001908152602001600020600085848151811061192f5761192e6136d3565b5b60200260200101518152602001908152602001600020600082825461195491906135d6565b9250508190555081818151811061196e5761196d6136d3565b5b602002602001015161197e611a97565b60000160008673ffffffffffffffffffffffffffffffffffffffff1673ffffffffffffffffffffffffffffffffffffffff16815260200190815260200160002060008584815181106119d3576119d26136d3565b5b6020026020010151815260200190815260200160002060008282546119f8919061360a565b925050819055508080611a0a90613702565b9150506118ae565b508273ffffffffffffffffffffffffffffffffffffffff168473ffffffffffffffffffffffffffffffffffffffff163373ffffffffffffffffffffffffffffffffffffffff167f4a39dc06d4c0dbc64b70af90fd698a233a518aa5d07e595d983b8c0526c8f7fb8585604051611a8992919061374a565b60405180910390a450505050565b6000611aa1611e20565b905090565b6000611ab0611e4d565b905090565b6000807f96b46a2573cf79a1eecfb073a60e28308a75520866ed53bac1edc81985ea8b5c90508091505090565b60008082118015611bac5750611bab611af9611a97565b60020160008481526020019081526020016000208054611b1890613220565b80601f0160208091040260200160405190810160405280929190818152602001828054611b4490613220565b8015611b915780601f10611b6657610100808354040283529160200191611b91565b820191906000526020600020905b815481529060010190602001808311611b7457829003601f168201915b505050505060405180602001604052806000815250611e7a565b5b9050919050565b606060008203611bfa576040518060400160405280600181526020017f30000000000000000000000000000000000000000000000000000000000000008152509050611d0e565b600082905060005b60008214611c2c578080611c1590613702565b915050600a82611c2591906137b0565b9150611c02565b60008167ffffffffffffffff811115611c4857611c4761252f565b5b6040519080825280601f01601f191660200182016040528015611c7a5781602001600182028036833780820191505090505b5090505b60008514611d0757600182611c9391906135d6565b9150600a85611ca291906137e1565b6030611cae919061360a565b60f81b818381518110611cc457611cc36136d3565b5b60200101907effffffffffffffffffffffffffffffffffffffffffffffffffffffffffffff1916908160001a905350600a85611d0091906137b0565b9450611c7e565b8093505050505b919050565b6000807f08ec1a5fa1eaf2abf4d955231cda0ed0f2b7f01c505bf4cdcf22d2ae7a0d413290508091505090565b6000611d4b84611ed3565b15611d8d57836040517f111ec7ed000000000000000000000000000000000000000000000000000000008152600401611d84919061249c565b60405180910390fd5b6000611d97611fcf565b6001015490506000611da7611fcf565b6000016000838152602001908152602001600020905085816000019081611dce91906133fd565b5084816001019081611de091906133fd565b5083816002019081611df29190613878565b50611dfb611fcf565b6001016000815480929190611e0f90613702565b919050555081925050509392505050565b6000807f0bb06319fe9f54e2607d55a14a4a9f601c7f9262ad0aba1b29fb8e9eebeeb16590508091505090565b6000807fd0663838b68b01f53e08cceabfcf6be04c591567ba78dedfc4928e98500bd9eb90508091505090565b600081604051602001611e8d9190613986565b6040516020818303038152906040528051906020012083604051602001611eb49190613986565b6040516020818303038152906040528051906020012014905092915050565b600080611ede611fcf565b60010154905060005b81811015611fc8576000611ef9611fcf565b60000160008381526020019081526020016000206000018054611f1b90613220565b80601f0160208091040260200160405190810160405280929190818152602001828054611f4790613220565b8015611f945780601f10611f6957610100808354040283529160200191611f94565b820191906000526020600020905b815481529060010190602001808311611f7757829003601f168201915b50505050509050611fa58582611e7a565b15611fb4576001935050611fc8565b508080611fc090613702565b915050611ee7565b5050919050565b6000611fd9611fde565b905090565b6000807f069f7dcb526aea615718c40a65928dbbd1cc8280c447d867f37ec52c0b84025f90508091505090565b828054828255906000526020600020908101928215612053579160200282015b8281111561205257825182908161204291906133fd565b509160200191906001019061202b565b5b509050612060919061212c565b5090565b8280548282559060005260206000209081019282156120dd579160200282015b828111156120dc5782518260006101000a81548173ffffffffffffffffffffffffffffffffffffffff021916908373ffffffffffffffffffffffffffffffffffffffff16021790555091602001919060010190612084565b5b5090506120ea9190612150565b5090565b604051806080016040528060608152602001600073ffffffffffffffffffffffffffffffffffffffff16815260200160608152602001600081525090565b5b8082111561214c5760008181612143919061216d565b5060010161212d565b5090565b5b80821115612169576000816000905550600101612151565b5090565b50805461217990613220565b6000825580601f1061218b57506121aa565b601f0160209004906000526020600020908101906121a99190612150565b5b50565b6000604051905090565b600080fd5b600080fd5b600073ffffffffffffffffffffffffffffffffffffffff82169050919050565b60006121ec826121c1565b9050919050565b6121fc816121e1565b811461220757600080fd5b50565b600081359050612219816121f3565b92915050565b6000819050919050565b6122328161221f565b811461223d57600080fd5b50565b60008135905061224f81612229565b92915050565b6000806040838503121561226c5761226b6121b7565b5b600061227a8582860161220a565b925050602061228b85828601612240565b9150509250929050565b61229e8161221f565b82525050565b60006020820190506122b96000830184612295565b92915050565b6000602082840312156122d5576122d46121b7565b5b60006122e384828501612240565b91505092915050565b600081519050919050565b600082825260208201905092915050565b60005b8381101561232657808201518184015260208101905061230b565b60008484015250505050565b6000601f19601f8301169050919050565b600061234e826122ec565b61235881856122f7565b9350612368818560208601612308565b61237181612332565b840191505092915050565b612385816121e1565b82525050565b600081519050919050565b600082825260208201905092915050565b6000819050602082019050919050565b6123c08161221f565b82525050565b60006123d283836123b7565b60208301905092915050565b6000602082019050919050565b60006123f68261238b565b6124008185612396565b935061240b836123a7565b8060005b8381101561243c57815161242388826123c6565b975061242e836123de565b92505060018101905061240f565b5085935050505092915050565b600060808201905081810360008301526124638187612343565b9050612472602083018661237c565b818103604083015261248481856123eb565b90506124936060830184612295565b95945050505050565b600060208201905081810360008301526124b68184612343565b905092915050565b600080600080608085870312156124d8576124d76121b7565b5b60006124e68782880161220a565b94505060206124f78782880161220a565b935050604061250887828801612240565b925050606061251987828801612240565b91505092959194509250565b600080fd5b600080fd5b7f4e487b7100000000000000000000000000000000000000000000000000000000600052604160045260246000fd5b61256782612332565b810181811067ffffffffffffffff821117156125865761258561252f565b5b80604052505050565b60006125996121ad565b90506125a5828261255e565b919050565b600067ffffffffffffffff8211156125c5576125c461252f565b5b6125ce82612332565b9050602081019050919050565b82818337600083830152505050565b60006125fd6125f8846125aa565b61258f565b9050828152602081018484840111156126195761261861252a565b5b6126248482856125db565b509392505050565b600082601f83011261264157612640612525565b5b81356126518482602086016125ea565b91505092915050565b600067ffffffffffffffff8211156126755761267461252f565b5b602082029050602081019050919050565b600080fd5b600061269e6126998461265a565b61258f565b905080838252602082019050602084028301858111156126c1576126c0612686565b5b835b8181101561270857803567ffffffffffffffff8111156126e6576126e5612525565b5b8086016126f3898261262c565b855260208501945050506020810190506126c3565b5050509392505050565b600082601f83011261272757612726612525565b5b813561273784826020860161268b565b91505092915050565b600067ffffffffffffffff82111561275b5761275a61252f565b5b602082029050602081019050919050565b600061277f61277a84612740565b61258f565b905080838252602082019050602084028301858111156127a2576127a1612686565b5b835b818110156127cb57806127b7888261220a565b8452602084019350506020810190506127a4565b5050509392505050565b600082601f8301126127ea576127e9612525565b5b81356127fa84826020860161276c565b91505092915050565b60008060008060008060008060008060006101608c8e031215612829576128286121b7565b5b60006128378e828f01612240565b9b505060206128488e828f0161220a565b9a505060408c013567ffffffffffffffff811115612869576128686121bc565b5b6128758e828f0161262c565b99505060606128868e828f01612240565b98505060808c013567ffffffffffffffff8111156128a7576128a66121bc565b5b6128b38e828f0161262c565b97505060a08c013567ffffffffffffffff8111156128d4576128d36121bc565b5b6128e08e828f0161262c565b96505060c08c013567ffffffffffffffff811115612901576129006121bc565b5b61290d8e828f0161262c565b95505060e08c013567ffffffffffffffff81111561292e5761292d6121bc565b5b61293a8e828f01612712565b9450506101008c013567ffffffffffffffff81111561295c5761295b6121bc565b5b6129688e828f0161262c565b93505061012061297a8e828f01612240565b9250506101408c013567ffffffffffffffff81111561299c5761299b6121bc565b5b6129a88e828f016127d5565b9150509295989b509295989b9093969950565b600067ffffffffffffffff8211156129d6576129d561252f565b5b602082029050602081019050919050565b60006129fa6129f5846129bb565b61258f565b90508083825260208201905060208402830185811115612a1d57612a1c612686565b5b835b81811015612a465780612a328882612240565b845260208401935050602081019050612a1f565b5050509392505050565b600082601f830112612a6557612a64612525565b5b8135612a758482602086016129e7565b91505092915050565b60008060408385031215612a9557612a946121b7565b5b600083013567ffffffffffffffff811115612ab357612ab26121bc565b5b612abf858286016127d5565b925050602083013567ffffffffffffffff811115612ae057612adf6121bc565b5b612aec85828601612a50565b9150509250929050565b60006020820190508181036000830152612b1081846123eb565b905092915050565b60008060408385031215612b2f57612b2e6121b7565b5b600083013567ffffffffffffffff811115612b4d57612b4c6121bc565b5b612b598582860161262c565b9250506020612b6a8582860161220a565b9150509250929050565b60008060408385031215612b8b57612b8a6121b7565b5b6000612b9985828601612240565b9250506020612baa8582860161220a565b9150509250929050565b600081519050919050565b600082825260208201905092915050565b6000819050602082019050919050565b600082825260208201905092915050565b6000612bfc826122ec565b612c068185612be0565b9350612c16818560208601612308565b612c1f81612332565b840191505092915050565b6000612c368383612bf1565b905092915050565b6000602082019050919050565b6000612c5682612bb4565b612c608185612bbf565b935083602082028501612c7285612bd0565b8060005b85811015612cae5784840389528151612c8f8582612c2a565b9450612c9a83612c3e565b925060208a01995050600181019050612c76565b50829750879550505050505092915050565b600081519050919050565b600082825260208201905092915050565b6000819050602082019050919050565b612cf5816121e1565b82525050565b6000612d078383612cec565b60208301905092915050565b6000602082019050919050565b6000612d2b82612cc0565b612d358185612ccb565b9350612d4083612cdc565b8060005b83811015612d71578151612d588882612cfb565b9750612d6383612d13565b925050600181019050612d44565b5085935050505092915050565b6000610120820190508181036000830152612d99818c612343565b9050612da8602083018b612295565b8181036040830152612dba818a612343565b90508181036060830152612dce8189612343565b90508181036080830152612de28188612343565b905081810360a0830152612df68187612c4b565b905081810360c0830152612e0a8186612343565b9050612e1960e0830185612295565b818103610100830152612e2c8184612d20565b90509a9950505050505050505050565b60008115159050919050565b612e5181612e3c565b8114612e5c57600080fd5b50565b600081359050612e6e81612e48565b92915050565b60008060408385031215612e8b57612e8a6121b7565b5b6000612e998582860161220a565b9250506020612eaa85828601612e5f565b9150509250929050565b60008060408385031215612ecb57612eca6121b7565b5b6000612ed98582860161220a565b9250506020612eea8582860161220a565b9150509250929050565b612efd81612e3c565b82525050565b6000602082019050612f186000830184612ef4565b92915050565b600067ffffffffffffffff821115612f3957612f3861252f565b5b612f4282612332565b9050602081019050919050565b6000612f62612f5d84612f1e565b61258f565b905082815260208101848484011115612f7e57612f7d61252a565b5b612f898482856125db565b509392505050565b600082601f830112612fa657612fa5612525565b5b8135612fb6848260208601612f4f565b91505092915050565b60008060008060808587031215612fd957612fd86121b7565b5b6000612fe787828801612240565b945050602085013567ffffffffffffffff811115613008576130076121bc565b5b6130148782880161262c565b935050604085013567ffffffffffffffff811115613035576130346121bc565b5b6130418782880161262c565b925050606085013567ffffffffffffffff811115613062576130616121bc565b5b61306e87828801612f91565b91505092959194509250565b60008060008060808587031215613094576130936121b7565b5b60006130a28782880161220a565b94505060206130b38782880161220a565b935050604085013567ffffffffffffffff8111156130d4576130d36121bc565b5b6130e087828801612a50565b925050606085013567ffffffffffffffff811115613101576131006121bc565b5b61310d87828801612a50565b91505092959194509250565b7f436f6e747261637420616c726561647920696e697469616c697a656400000000600082015250565b600061314f601c836122f7565b915061315a82613119565b602082019050919050565b6000602082019050818103600083015261317e81613142565b9050919050565b7f556e617574686f72697a65640000000000000000000000000000000000000000600082015250565b60006131bb600c836122f7565b91506131c682613185565b602082019050919050565b600060208201905081810360008301526131ea816131ae565b9050919050565b7f4e487b7100000000000000000000000000000000000000000000000000000000600052602260045260246000fd5b6000600282049050600182168061323857607f821691505b60208210810361324b5761324a6131f1565b5b50919050565b60008190508160005260206000209050919050565b60006020601f8301049050919050565b600082821b905092915050565b6000600883026132b37fffffffffffffffffffffffffffffffffffffffffffffffffffffffffffffffff82613276565b6132bd8683613276565b95508019841693508086168417925050509392505050565b6000819050919050565b60006132fa6132f56132f08461221f565b6132d5565b61221f565b9050919050565b6000819050919050565b613314836132df565b61332861332082613301565b848454613283565b825550505050565b600090565b61333d613330565b61334881848461330b565b505050565b5b8181101561336c57613361600082613335565b60018101905061334e565b5050565b601f8211156133b15761338281613251565b61338b84613266565b8101602085101561339a578190505b6133ae6133a685613266565b83018261334d565b50505b505050565b600082821c905092915050565b60006133d4600019846008026133b6565b1980831691505092915050565b60006133ed83836133c3565b9150826002028217905092915050565b613406826122ec565b67ffffffffffffffff81111561341f5761341e61252f565b5b6134298254613220565b613434828285613370565b600060209050601f8311600181146134675760008415613455578287015190505b61345f85826133e1565b8655506134c7565b601f19841661347586613251565b60005b8281101561349d57848901518255600182019150602085019450602081019050613478565b868310156134ba57848901516134b6601f8916826133c3565b8355505b6001600288020188555050505b505050505050565b7f546f6b656e20646f6573206e6f74206578697374000000000000000000000000600082015250565b60006135056014836122f7565b9150613510826134cf565b602082019050919050565b60006020820190508181036000830152613534816134f8565b9050919050565b7f496e76616c696420726563697069656e74206164647265737300000000000000600082015250565b60006135716019836122f7565b915061357c8261353b565b602082019050919050565b600060208201905081810360008301526135a081613564565b9050919050565b7f4e487b7100000000000000000000000000000000000000000000000000000000600052601160045260246000fd5b60006135e18261221f565b91506135ec8361221f565b9250828203905081811115613604576136036135a7565b5b92915050565b60006136158261221f565b91506136208361221f565b9250828201905080821115613638576136376135a7565b5b92915050565b60006040820190506136536000830185612295565b6136606020830184612295565b9392505050565b7f4172726179206c656e67746873206d757374206d617463680000000000000000600082015250565b600061369d6018836122f7565b91506136a882613667565b602082019050919050565b600060208201905081810360008301526136cc81613690565b9050919050565b7f4e487b7100000000000000000000000000000000000000000000000000000000600052603260045260246000fd5b600061370d8261221f565b91507fffffffffffffffffffffffffffffffffffffffffffffffffffffffffffffffff820361373f5761373e6135a7565b5b600182019050919050565b6000604082019050818103600083015261376481856123eb565b9050818103602083015261377881846123eb565b90509392505050565b7f4e487b7100000000000000000000000000000000000000000000000000000000600052601260045260246000fd5b60006137bb8261221f565b91506137c68361221f565b9250826137d6576137d5613781565b5b828204905092915050565b60006137ec8261221f565b91506137f78361221f565b92508261380757613806613781565b5b828206905092915050565b600081519050919050565b60008190508160005260206000209050919050565b601f821115613873576138448161381d565b61384d84613266565b8101602085101561385c578190505b61387061386885613266565b83018261334d565b50505b505050565b61388182613812565b67ffffffffffffffff81111561389a5761389961252f565b5b6138a48254613220565b6138af828285613832565b600060209050601f8311600181146138e257600084156138d0578287015190505b6138da85826133e1565b865550613942565b601f1984166138f08661381d565b60005b82811015613918578489015182556001820191506020850194506020810190506138f3565b868310156139355784890151613931601f8916826133c3565b8355505b6001600288020188555050505b505050505050565b600081905092915050565b6000613960826122ec565b61396a818561394a565b935061397a818560208601612308565b80840191505092915050565b60006139928284613955565b91508190509291505056fea26469706673582212200b5d440206d1d893b9507ae309d74a37d653a29aa5ce68f8835e08b5657fed6b64736f6c63430008120033",
  "linkReferences": {},
  "deployedLinkReferences": {}
}