{
  "_format": "hh-sol-artifact-1",
  "contractName": "TribalMembershipInternal",
  "sourceName": "contracts/Tribal/TribalIdentity.sol",
  "abi": [
    {
      "inputs": [
        {
          "internalType": "string",
          "name": "_hash",
          "type": "string"
        }
      ],
      "name": "IPFSCIDExists",
      "type": "error"
    },
    {
      "anonymous": false,
      "inputs": [
        {
          "indexed": true,
          "internalType": "address",
          "name": "owner",
          "type": "address"
        },
        {
          "indexed": true,
          "internalType": "address",
          "name": "operator",
          "type": "address"
        },
        {
          "indexed": false,
          "internalType": "bool",
          "name": "approved",
          "type": "bool"
        }
      ],
      "name": "ApprovalForAll",
      "type": "event"
    },
    {
      "anonymous": false,
      "inputs": [
        {
          "indexed": true,
          "internalType": "address",
          "name": "operator",
          "type": "address"
        },
        {
          "indexed": true,
          "internalType": "address",
          "name": "from",
          "type": "address"
        },
        {
          "indexed": true,
          "internalType": "address",
          "name": "to",
          "type": "address"
        },
        {
          "indexed": false,
          "internalType": "uint256[]",
          "name": "ids",
          "type": "uint256[]"
        },
        {
          "indexed": false,
          "internalType": "uint256[]",
          "name": "values",
          "type": "uint256[]"
        }
      ],
      "name": "TransferBatch",
      "type": "event"
    },
    {
      "anonymous": false,
      "inputs": [
        {
          "indexed": true,
          "internalType": "address",
          "name": "operator",
          "type": "address"
        },
        {
          "indexed": true,
          "internalType": "address",
          "name": "from",
          "type": "address"
        },
        {
          "indexed": true,
          "internalType": "address",
          "name": "to",
          "type": "address"
        },
        {
          "indexed": false,
          "internalType": "uint256",
          "name": "id",
          "type": "uint256"
        },
        {
          "indexed": false,
          "internalType": "uint256",
          "name": "value",
          "type": "uint256"
        }
      ],
      "name": "TransferSingle",
      "type": "event"
    },
    {
      "anonymous": false,
      "inputs": [
        {
          "indexed": false,
          "internalType": "string",
          "name": "value",
          "type": "string"
        },
        {
          "indexed": true,
          "internalType": "uint256",
          "name": "id",
          "type": "uint256"
        }
      ],
      "name": "URI",
      "type": "event"
    },
    {
      "inputs": [],
      "name": "_initializeTribalMemebrship",
      "outputs": [],
      "stateMutability": "nonpayable",
      "type": "function"
    },
    {
      "inputs": [
        {
          "internalType": "address",
          "name": "_owner",
          "type": "address"
        },
        {
          "internalType": "uint256",
          "name": "_id",
          "type": "uint256"
        }
      ],
      "name": "balanceOf",
      "outputs": [
        {
          "internalType": "uint256",
          "name": "",
          "type": "uint256"
        }
      ],
      "stateMutability": "view",
      "type": "function"
    },
    {
      "inputs": [
        {
          "internalType": "address[]",
          "name": "_owners",
          "type": "address[]"
        },
        {
          "internalType": "uint256[]",
          "name": "_ids",
          "type": "uint256[]"
        }
      ],
      "name": "balanceOfBatch",
      "outputs": [
        {
          "internalType": "uint256[]",
          "name": "",
          "type": "uint256[]"
        }
      ],
      "stateMutability": "view",
      "type": "function"
    },
    {
      "inputs": [
        {
          "internalType": "address",
          "name": "_owner",
          "type": "address"
        },
        {
          "internalType": "address",
          "name": "_operator",
          "type": "address"
        }
      ],
      "name": "isApprovedForAll",
      "outputs": [
        {
          "internalType": "bool",
          "name": "",
          "type": "bool"
        }
      ],
      "stateMutability": "view",
      "type": "function"
    },
    {
      "inputs": [],
      "name": "name",
      "outputs": [
        {
          "internalType": "string",
          "name": "",
          "type": "string"
        }
      ],
      "stateMutability": "view",
      "type": "function"
    },
    {
      "inputs": [
        {
          "internalType": "address",
          "name": "_from",
          "type": "address"
        },
        {
          "internalType": "address",
          "name": "_to",
          "type": "address"
        },
        {
          "internalType": "uint256[]",
          "name": "_ids",
          "type": "uint256[]"
        },
        {
          "internalType": "uint256[]",
          "name": "_values",
          "type": "uint256[]"
        }
      ],
      "name": "safeBatchTransferFrom",
      "outputs": [],
      "stateMutability": "nonpayable",
      "type": "function"
    },
    {
      "inputs": [
        {
          "internalType": "address",
          "name": "_from",
          "type": "address"
        },
        {
          "internalType": "address",
          "name": "_to",
          "type": "address"
        },
        {
          "internalType": "uint256",
          "name": "_id",
          "type": "uint256"
        },
        {
          "internalType": "uint256",
          "name": "_value",
          "type": "uint256"
        }
      ],
      "name": "safeTransferFrom",
      "outputs": [],
      "stateMutability": "nonpayable",
      "type": "function"
    },
    {
      "inputs": [
        {
          "internalType": "address",
          "name": "_operator",
          "type": "address"
        },
        {
          "internalType": "bool",
          "name": "_approved",
          "type": "bool"
        }
      ],
      "name": "setApprovalForAll",
      "outputs": [],
      "stateMutability": "nonpayable",
      "type": "function"
    },
    {
      "inputs": [],
      "name": "symbol",
      "outputs": [
        {
          "internalType": "string",
          "name": "",
          "type": "string"
        }
      ],
      "stateMutability": "view",
      "type": "function"
    },
    {
      "inputs": [
        {
          "internalType": "uint256",
          "name": "_id",
          "type": "uint256"
        }
      ],
      "name": "uri",
      "outputs": [
        {
          "internalType": "string",
          "name": "",
          "type": "string"
        }
      ],
      "stateMutability": "view",
      "type": "function"
    },
    {
      "inputs": [],
      "name": "uriPrefix",
      "outputs": [
        {
          "internalType": "string",
          "name": "uriPrefix_",
          "type": "string"
        }
      ],
      "stateMutability": "view",
      "type": "function"
    }
  ],
  "bytecode": "0x608060405234801561001057600080fd5b50611c72806100206000396000f3fe608060405234801561001057600080fd5b50600436106100a85760003560e01c80634e1273f4116100715780634e1273f41461015157806362b99ad41461018157806395d89b411461019f578063a22cb465146101bd578063e985e9c5146101d9578063fba0ee6414610209576100a8565b8062fdd58e146100ad57806306fdde03146100dd5780630c80d3de146100fb5780630e89341c146101055780630febdd4914610135575b600080fd5b6100c760048036038101906100c29190611146565b610225565b6040516100d49190611195565b60405180910390f35b6100e5610239565b6040516100f29190611240565b60405180910390f35b610103610248565b005b61011f600480360381019061011a9190611262565b6102c7565b60405161012c9190611240565b60405180910390f35b61014f600480360381019061014a919061128f565b6102d9565b005b61016b60048036038101906101669190611501565b6102eb565b6040516101789190611637565b60405180910390f35b6101896102ff565b6040516101969190611240565b60405180910390f35b6101a761030e565b6040516101b49190611240565b60405180910390f35b6101d760048036038101906101d29190611691565b61031d565b005b6101f360048036038101906101ee91906116d1565b61032b565b6040516102009190611720565b60405180910390f35b610223600480360381019061021e919061173b565b61033f565b005b60006102318383610351565b905092915050565b60606102436103b5565b905090565b610250610450565b60020160009054906101000a900460ff16156102a1576040517f08c379a000000000000000000000000000000000000000000000000000000000815260040161029890611826565b60405180910390fd5b60016102ab610450565b60020160006101000a81548160ff021916908315150217905550565b60606102d28261045f565b9050919050565b6102e5848484846104b9565b50505050565b60606102f7838361068c565b905092915050565b60606103096107f7565b905090565b6060610318610892565b905090565b610327828261092d565b5050565b60006103378383610a33565b905092915050565b61034b84848484610ad0565b50505050565b600061035b610d6f565b60000160008473ffffffffffffffffffffffffffffffffffffffff1673ffffffffffffffffffffffffffffffffffffffff168152602001908152602001600020600083815260200190815260200160002054905092915050565b60606103bf610d7e565b60000180546103cd90611875565b80601f01602080910402602001604051908101604052809291908181526020018280546103f990611875565b80156104465780601f1061041b57610100808354040283529160200191610446565b820191906000526020600020905b81548152906001019060200180831161042957829003601f168201915b5050505050905090565b600061045a610d8d565b905090565b606061046a82610dba565b6104a9576040517f08c379a00000000000000000000000000000000000000000000000000000000081526004016104a0906118f2565b60405180910390fd5b6104b282610e8b565b9050919050565b600073ffffffffffffffffffffffffffffffffffffffff168373ffffffffffffffffffffffffffffffffffffffff1603610528576040517f08c379a000000000000000000000000000000000000000000000000000000000815260040161051f9061195e565b60405180910390fd5b80610531610d6f565b60000160008673ffffffffffffffffffffffffffffffffffffffff1673ffffffffffffffffffffffffffffffffffffffff1681526020019081526020016000206000848152602001908152602001600020600082825461059191906119ad565b92505081905550806105a1610d6f565b60000160008573ffffffffffffffffffffffffffffffffffffffff1673ffffffffffffffffffffffffffffffffffffffff1681526020019081526020016000206000848152602001908152602001600020600082825461060191906119e1565b925050819055508273ffffffffffffffffffffffffffffffffffffffff168473ffffffffffffffffffffffffffffffffffffffff163373ffffffffffffffffffffffffffffffffffffffff167fc3d58168c5ae7397731d063d5bbf3d657854427343f4c083240f7aacaa2d0f62858560405161067e929190611a15565b60405180910390a450505050565b606081518351146106d2576040517f08c379a00000000000000000000000000000000000000000000000000000000081526004016106c990611a8a565b60405180910390fd5b6000835167ffffffffffffffff8111156106ef576106ee6112fb565b5b60405190808252806020026020018201604052801561071d5781602001602082028036833780820191505090505b50905060005b84518110156107ec57610734610d6f565b600001600086838151811061074c5761074b611aaa565b5b602002602001015173ffffffffffffffffffffffffffffffffffffffff1673ffffffffffffffffffffffffffffffffffffffff16815260200190815260200160002060008583815181106107a3576107a2611aaa565b5b60200260200101518152602001908152602001600020548282815181106107cd576107cc611aaa565b5b60200260200101818152505080806107e490611ad9565b915050610723565b508091505092915050565b6060610801610d7e565b600201805461080f90611875565b80601f016020809104026020016040519081016040528092919081815260200182805461083b90611875565b80156108885780601f1061085d57610100808354040283529160200191610888565b820191906000526020600020905b81548152906001019060200180831161086b57829003601f168201915b5050505050905090565b606061089c610d7e565b60010180546108aa90611875565b80601f01602080910402602001604051908101604052809291908181526020018280546108d690611875565b80156109235780601f106108f857610100808354040283529160200191610923565b820191906000526020600020905b81548152906001019060200180831161090657829003601f168201915b5050505050905090565b80610936610d6f565b60010160003373ffffffffffffffffffffffffffffffffffffffff1673ffffffffffffffffffffffffffffffffffffffff16815260200190815260200160002060008473ffffffffffffffffffffffffffffffffffffffff1673ffffffffffffffffffffffffffffffffffffffff16815260200190815260200160002060006101000a81548160ff0219169083151502179055508173ffffffffffffffffffffffffffffffffffffffff163373ffffffffffffffffffffffffffffffffffffffff167f17307eab39ab6107e8899845ad3d59bd9653f200f220920489ca2b5937696c3183604051610a279190611720565b60405180910390a35050565b6000610a3d610d6f565b60010160008473ffffffffffffffffffffffffffffffffffffffff1673ffffffffffffffffffffffffffffffffffffffff16815260200190815260200160002060008373ffffffffffffffffffffffffffffffffffffffff1673ffffffffffffffffffffffffffffffffffffffff16815260200190815260200160002060009054906101000a900460ff16905092915050565b600073ffffffffffffffffffffffffffffffffffffffff168373ffffffffffffffffffffffffffffffffffffffff1603610b3f576040517f08c379a0000000000000000000000000000000000000000000000000000000008152600401610b369061195e565b60405180910390fd5b8051825114610b83576040517f08c379a0000000000000000000000000000000000000000000000000000000008152600401610b7a90611a8a565b60405180910390fd5b60005b8251811015610cea57818181518110610ba257610ba1611aaa565b5b6020026020010151610bb2610d6f565b60000160008773ffffffffffffffffffffffffffffffffffffffff1673ffffffffffffffffffffffffffffffffffffffff1681526020019081526020016000206000858481518110610c0757610c06611aaa565b5b602002602001015181526020019081526020016000206000828254610c2c91906119ad565b92505081905550818181518110610c4657610c45611aaa565b5b6020026020010151610c56610d6f565b60000160008673ffffffffffffffffffffffffffffffffffffffff1673ffffffffffffffffffffffffffffffffffffffff1681526020019081526020016000206000858481518110610cab57610caa611aaa565b5b602002602001015181526020019081526020016000206000828254610cd091906119e1565b925050819055508080610ce290611ad9565b915050610b86565b508273ffffffffffffffffffffffffffffffffffffffff168473ffffffffffffffffffffffffffffffffffffffff163373ffffffffffffffffffffffffffffffffffffffff167f4a39dc06d4c0dbc64b70af90fd698a233a518aa5d07e595d983b8c0526c8f7fb8585604051610d61929190611b21565b60405180910390a450505050565b6000610d79610feb565b905090565b6000610d88611018565b905090565b6000807f96b46a2573cf79a1eecfb073a60e28308a75520866ed53bac1edc81985ea8b5c90508091505090565b60008082118015610e845750610e83610dd1610d6f565b60020160008481526020019081526020016000208054610df090611875565b80601f0160208091040260200160405190810160405280929190818152602001828054610e1c90611875565b8015610e695780601f10610e3e57610100808354040283529160200191610e69565b820191906000526020600020905b815481529060010190602001808311610e4c57829003601f168201915b505050505060405180602001604052806000815250611045565b5b9050919050565b606060008203610ed2576040518060400160405280600181526020017f30000000000000000000000000000000000000000000000000000000000000008152509050610fe6565b600082905060005b60008214610f04578080610eed90611ad9565b915050600a82610efd9190611b87565b9150610eda565b60008167ffffffffffffffff811115610f2057610f1f6112fb565b5b6040519080825280601f01601f191660200182016040528015610f525781602001600182028036833780820191505090505b5090505b60008514610fdf57600182610f6b91906119ad565b9150600a85610f7a9190611bb8565b6030610f8691906119e1565b60f81b818381518110610f9c57610f9b611aaa565b5b60200101907effffffffffffffffffffffffffffffffffffffffffffffffffffffffffffff1916908160001a905350600a85610fd89190611b87565b9450610f56565b8093505050505b919050565b6000807f0bb06319fe9f54e2607d55a14a4a9f601c7f9262ad0aba1b29fb8e9eebeeb16590508091505090565b6000807fd0663838b68b01f53e08cceabfcf6be04c591567ba78dedfc4928e98500bd9eb90508091505090565b6000816040516020016110589190611c25565b604051602081830303815290604052805190602001208360405160200161107f9190611c25565b6040516020818303038152906040528051906020012014905092915050565b6000604051905090565b600080fd5b600080fd5b600073ffffffffffffffffffffffffffffffffffffffff82169050919050565b60006110dd826110b2565b9050919050565b6110ed816110d2565b81146110f857600080fd5b50565b60008135905061110a816110e4565b92915050565b6000819050919050565b61112381611110565b811461112e57600080fd5b50565b6000813590506111408161111a565b92915050565b6000806040838503121561115d5761115c6110a8565b5b600061116b858286016110fb565b925050602061117c85828601611131565b9150509250929050565b61118f81611110565b82525050565b60006020820190506111aa6000830184611186565b92915050565b600081519050919050565b600082825260208201905092915050565b60005b838110156111ea5780820151818401526020810190506111cf565b60008484015250505050565b6000601f19601f8301169050919050565b6000611212826111b0565b61121c81856111bb565b935061122c8185602086016111cc565b611235816111f6565b840191505092915050565b6000602082019050818103600083015261125a8184611207565b905092915050565b600060208284031215611278576112776110a8565b5b600061128684828501611131565b91505092915050565b600080600080608085870312156112a9576112a86110a8565b5b60006112b7878288016110fb565b94505060206112c8878288016110fb565b93505060406112d987828801611131565b92505060606112ea87828801611131565b91505092959194509250565b600080fd5b7f4e487b7100000000000000000000000000000000000000000000000000000000600052604160045260246000fd5b611333826111f6565b810181811067ffffffffffffffff82111715611352576113516112fb565b5b80604052505050565b600061136561109e565b9050611371828261132a565b919050565b600067ffffffffffffffff821115611391576113906112fb565b5b602082029050602081019050919050565b600080fd5b60006113ba6113b584611376565b61135b565b905080838252602082019050602084028301858111156113dd576113dc6113a2565b5b835b8181101561140657806113f288826110fb565b8452602084019350506020810190506113df565b5050509392505050565b600082601f830112611425576114246112f6565b5b81356114358482602086016113a7565b91505092915050565b600067ffffffffffffffff821115611459576114586112fb565b5b602082029050602081019050919050565b600061147d6114788461143e565b61135b565b905080838252602082019050602084028301858111156114a05761149f6113a2565b5b835b818110156114c957806114b58882611131565b8452602084019350506020810190506114a2565b5050509392505050565b600082601f8301126114e8576114e76112f6565b5b81356114f884826020860161146a565b91505092915050565b60008060408385031215611518576115176110a8565b5b600083013567ffffffffffffffff811115611536576115356110ad565b5b61154285828601611410565b925050602083013567ffffffffffffffff811115611563576115626110ad565b5b61156f858286016114d3565b9150509250929050565b600081519050919050565b600082825260208201905092915050565b6000819050602082019050919050565b6115ae81611110565b82525050565b60006115c083836115a5565b60208301905092915050565b6000602082019050919050565b60006115e482611579565b6115ee8185611584565b93506115f983611595565b8060005b8381101561162a57815161161188826115b4565b975061161c836115cc565b9250506001810190506115fd565b5085935050505092915050565b6000602082019050818103600083015261165181846115d9565b905092915050565b60008115159050919050565b61166e81611659565b811461167957600080fd5b50565b60008135905061168b81611665565b92915050565b600080604083850312156116a8576116a76110a8565b5b60006116b6858286016110fb565b92505060206116c78582860161167c565b9150509250929050565b600080604083850312156116e8576116e76110a8565b5b60006116f6858286016110fb565b9250506020611707858286016110fb565b9150509250929050565b61171a81611659565b82525050565b60006020820190506117356000830184611711565b92915050565b60008060008060808587031215611755576117546110a8565b5b6000611763878288016110fb565b9450506020611774878288016110fb565b935050604085013567ffffffffffffffff811115611795576117946110ad565b5b6117a1878288016114d3565b925050606085013567ffffffffffffffff8111156117c2576117c16110ad565b5b6117ce878288016114d3565b91505092959194509250565b7f436f6e747261637420616c726561647920696e697469616c697a656400000000600082015250565b6000611810601c836111bb565b915061181b826117da565b602082019050919050565b6000602082019050818103600083015261183f81611803565b9050919050565b7f4e487b7100000000000000000000000000000000000000000000000000000000600052602260045260246000fd5b6000600282049050600182168061188d57607f821691505b6020821081036118a05761189f611846565b5b50919050565b7f546f6b656e20646f6573206e6f74206578697374000000000000000000000000600082015250565b60006118dc6014836111bb565b91506118e7826118a6565b602082019050919050565b6000602082019050818103600083015261190b816118cf565b9050919050565b7f496e76616c696420726563697069656e74206164647265737300000000000000600082015250565b60006119486019836111bb565b915061195382611912565b602082019050919050565b600060208201905081810360008301526119778161193b565b9050919050565b7f4e487b7100000000000000000000000000000000000000000000000000000000600052601160045260246000fd5b60006119b882611110565b91506119c383611110565b92508282039050818111156119db576119da61197e565b5b92915050565b60006119ec82611110565b91506119f783611110565b9250828201905080821115611a0f57611a0e61197e565b5b92915050565b6000604082019050611a2a6000830185611186565b611a376020830184611186565b9392505050565b7f4172726179206c656e67746873206d757374206d617463680000000000000000600082015250565b6000611a746018836111bb565b9150611a7f82611a3e565b602082019050919050565b60006020820190508181036000830152611aa381611a67565b9050919050565b7f4e487b7100000000000000000000000000000000000000000000000000000000600052603260045260246000fd5b6000611ae482611110565b91507fffffffffffffffffffffffffffffffffffffffffffffffffffffffffffffffff8203611b1657611b1561197e565b5b600182019050919050565b60006040820190508181036000830152611b3b81856115d9565b90508181036020830152611b4f81846115d9565b90509392505050565b7f4e487b7100000000000000000000000000000000000000000000000000000000600052601260045260246000fd5b6000611b9282611110565b9150611b9d83611110565b925082611bad57611bac611b58565b5b828204905092915050565b6000611bc382611110565b9150611bce83611110565b925082611bde57611bdd611b58565b5b828206905092915050565b600081905092915050565b6000611bff826111b0565b611c098185611be9565b9350611c198185602086016111cc565b80840191505092915050565b6000611c318284611bf4565b91508190509291505056fea26469706673582212206a01f134267e10e75a199428f098291fe668c0e95c8e7b54823e4fc448a0188264736f6c63430008120033",
  "linkReferences": {},
  "deployedLinkReferences": {}
}