{
  "_format": "hh-sol-artifact-1",
  "contractName": "CopperFaucet",
  "sourceName": "contracts/CopperFaucet/CopperFaucet.sol",
  "abi": [
    {
      "inputs": [
        {
          "internalType": "uint256",
          "name": "_requestInterval",
          "type": "uint256"
        },
        {
          "internalType": "uint256",
          "name": "_requestAmount",
          "type": "uint256"
        }
      ],
      "stateMutability": "nonpayable",
      "type": "constructor"
    },
    {
      "inputs": [],
      "name": "DOMAIN_NAME",
      "outputs": [
        {
          "internalType": "string",
          "name": "",
          "type": "string"
        }
      ],
      "stateMutability": "view",
      "type": "function"
    },
    {
      "inputs": [],
      "name": "DOMAIN_SEPARATOR",
      "outputs": [
        {
          "internalType": "bytes32",
          "name": "",
          "type": "bytes32"
        }
      ],
      "stateMutability": "view",
      "type": "function"
    },
    {
      "inputs": [],
      "name": "DOMAIN_VERSION",
      "outputs": [
        {
          "internalType": "string",
          "name": "",
          "type": "string"
        }
      ],
      "stateMutability": "view",
      "type": "function"
    },
    {
      "inputs": [],
      "name": "REQUEST_TYPEHASH",
      "outputs": [
        {
          "internalType": "bytes32",
          "name": "",
          "type": "bytes32"
        }
      ],
      "stateMutability": "view",
      "type": "function"
    },
    {
      "inputs": [],
      "name": "admin",
      "outputs": [
        {
          "internalType": "address",
          "name": "",
          "type": "address"
        }
      ],
      "stateMutability": "view",
      "type": "function"
    },
    {
      "inputs": [
        {
          "internalType": "address",
          "name": "tokenAddress",
          "type": "address"
        },
        {
          "internalType": "uint256",
          "name": "amount",
          "type": "uint256"
        }
      ],
      "name": "depositTokens",
      "outputs": [],
      "stateMutability": "nonpayable",
      "type": "function"
    },
    {
      "inputs": [
        {
          "internalType": "address",
          "name": "",
          "type": "address"
        }
      ],
      "name": "lastRequestTime",
      "outputs": [
        {
          "internalType": "uint256",
          "name": "",
          "type": "uint256"
        }
      ],
      "stateMutability": "view",
      "type": "function"
    },
    {
      "inputs": [],
      "name": "requestAmount",
      "outputs": [
        {
          "internalType": "uint256",
          "name": "",
          "type": "uint256"
        }
      ],
      "stateMutability": "view",
      "type": "function"
    },
    {
      "inputs": [
        {
          "internalType": "bytes",
          "name": "signature",
          "type": "bytes"
        }
      ],
      "name": "requestETH",
      "outputs": [],
      "stateMutability": "nonpayable",
      "type": "function"
    },
    {
      "inputs": [],
      "name": "requestInterval",
      "outputs": [
        {
          "internalType": "uint256",
          "name": "",
          "type": "uint256"
        }
      ],
      "stateMutability": "view",
      "type": "function"
    },
    {
      "inputs": [
        {
          "internalType": "uint256",
          "name": "_requestAmount",
          "type": "uint256"
        }
      ],
      "name": "setRequestAmount",
      "outputs": [],
      "stateMutability": "nonpayable",
      "type": "function"
    },
    {
      "inputs": [
        {
          "internalType": "uint256",
          "name": "_requestInterval",
          "type": "uint256"
        }
      ],
      "name": "setRequestInterval",
      "outputs": [],
      "stateMutability": "nonpayable",
      "type": "function"
    },
    {
      "inputs": [
        {
          "internalType": "address",
          "name": "tokenAddress",
          "type": "address"
        },
        {
          "internalType": "uint256",
          "name": "amount",
          "type": "uint256"
        }
      ],
      "name": "withdrawTokens",
      "outputs": [],
      "stateMutability": "nonpayable",
      "type": "function"
    },
    {
      "stateMutability": "payable",
      "type": "receive"
    }
  ],
  "bytecode": "0x60a06040527f8b73c3c69bb8fe3d512ecc4cf759cc79239f7b179b0ffacaa9a75d522b39400f6040518060400160405280600c81526020017f436f707065724661756365740000000000000000000000000000000000000000815250805190602001206040518060400160405280600181526020017f310000000000000000000000000000000000000000000000000000000000000081525080519060200120620000af6200016b60201b60201c565b30604051602001620000c6959493929190620001f3565b60405160208183030381529060405280519060200120608090815250348015620000ef57600080fd5b5060405162001d2c38038062001d2c833981810160405281019062000115919062000286565b336000806101000a81548173ffffffffffffffffffffffffffffffffffffffff021916908373ffffffffffffffffffffffffffffffffffffffff16021790555081600181905550806002819055505050620002cd565b6000804690508091505090565b6000819050919050565b6200018d8162000178565b82525050565b6000819050919050565b620001a88162000193565b82525050565b600073ffffffffffffffffffffffffffffffffffffffff82169050919050565b6000620001db82620001ae565b9050919050565b620001ed81620001ce565b82525050565b600060a0820190506200020a600083018862000182565b62000219602083018762000182565b62000228604083018662000182565b6200023760608301856200019d565b620002466080830184620001e2565b9695505050505050565b600080fd5b620002608162000193565b81146200026c57600080fd5b50565b600081519050620002808162000255565b92915050565b60008060408385031215620002a0576200029f62000250565b5b6000620002b0858286016200026f565b9250506020620002c3858286016200026f565b9150509250929050565b608051611a3c620002f06000396000818161051c0152610b900152611a3c6000f3fe6080604052600436106100c65760003560e01c806366168bd71161007f578063a9dea89b11610059578063a9dea89b1461025f578063acb8cc4914610288578063f52ec46c146102b3578063f851a440146102de576100cd565b806366168bd7146101e0578063796f077b146102095780639e39b73e14610234576100cd565b806306b091f9146100d25780633644e515146100fb578063394f6181146101265780634015a4d71461016357806344af68191461018c578063536f6070146101b5576100cd565b366100cd57005b600080fd5b3480156100de57600080fd5b506100f960048036038101906100f49190610f87565b610309565b005b34801561010757600080fd5b5061011061051a565b60405161011d9190610fe0565b60405180910390f35b34801561013257600080fd5b5061014d60048036038101906101489190610ffb565b61053e565b60405161015a9190611037565b60405180910390f35b34801561016f57600080fd5b5061018a60048036038101906101859190611052565b610556565b005b34801561019857600080fd5b506101b360048036038101906101ae9190611052565b6105ee565b005b3480156101c157600080fd5b506101ca610686565b6040516101d79190611037565b60405180910390f35b3480156101ec57600080fd5b5061020760048036038101906102029190610f87565b61068c565b005b34801561021557600080fd5b5061021e610856565b60405161022b919061110f565b60405180910390f35b34801561024057600080fd5b5061024961088f565b6040516102569190610fe0565b60405180910390f35b34801561026b57600080fd5b5061028660048036038101906102819190611196565b6108b3565b005b34801561029457600080fd5b5061029d610ab3565b6040516102aa919061110f565b60405180910390f35b3480156102bf57600080fd5b506102c8610aec565b6040516102d59190611037565b60405180910390f35b3480156102ea57600080fd5b506102f3610af2565b60405161030091906111f2565b60405180910390f35b60008054906101000a900473ffffffffffffffffffffffffffffffffffffffff1673ffffffffffffffffffffffffffffffffffffffff163373ffffffffffffffffffffffffffffffffffffffff1614610397576040517f08c379a000000000000000000000000000000000000000000000000000000000815260040161038e9061127f565b60405180910390fd5b6000829050818173ffffffffffffffffffffffffffffffffffffffff166370a08231306040518263ffffffff1660e01b81526004016103d691906111f2565b602060405180830381865afa1580156103f3573d6000803e3d6000fd5b505050506040513d601f19601f8201168201806040525081019061041791906112b4565b1015610458576040517f08c379a000000000000000000000000000000000000000000000000000000000815260040161044f9061132d565b60405180910390fd5b8073ffffffffffffffffffffffffffffffffffffffff1663a9059cbb33846040518363ffffffff1660e01b815260040161049392919061134d565b6020604051808303816000875af11580156104b2573d6000803e3d6000fd5b505050506040513d601f19601f820116820180604052508101906104d691906113ae565b610515576040517f08c379a000000000000000000000000000000000000000000000000000000000815260040161050c90611427565b60405180910390fd5b505050565b7f000000000000000000000000000000000000000000000000000000000000000081565b60036020528060005260406000206000915090505481565b60008054906101000a900473ffffffffffffffffffffffffffffffffffffffff1673ffffffffffffffffffffffffffffffffffffffff163373ffffffffffffffffffffffffffffffffffffffff16146105e4576040517f08c379a00000000000000000000000000000000000000000000000000000000081526004016105db9061127f565b60405180910390fd5b8060028190555050565b60008054906101000a900473ffffffffffffffffffffffffffffffffffffffff1673ffffffffffffffffffffffffffffffffffffffff163373ffffffffffffffffffffffffffffffffffffffff161461067c576040517f08c379a00000000000000000000000000000000000000000000000000000000081526004016106739061127f565b60405180910390fd5b8060018190555050565b60015481565b600081116106cf576040517f08c379a00000000000000000000000000000000000000000000000000000000081526004016106c690611493565b60405180910390fd5b6000829050818173ffffffffffffffffffffffffffffffffffffffff1663dd62ed3e33306040518363ffffffff1660e01b81526004016107109291906114b3565b602060405180830381865afa15801561072d573d6000803e3d6000fd5b505050506040513d601f19601f8201168201806040525081019061075191906112b4565b1015610792576040517f08c379a000000000000000000000000000000000000000000000000000000000815260040161078990611528565b60405180910390fd5b8073ffffffffffffffffffffffffffffffffffffffff166323b872dd3330856040518463ffffffff1660e01b81526004016107cf93929190611548565b6020604051808303816000875af11580156107ee573d6000803e3d6000fd5b505050506040513d601f19601f8201168201806040525081019061081291906113ae565b610851576040517f08c379a000000000000000000000000000000000000000000000000000000000815260040161084890611427565b60405180910390fd5b505050565b6040518060400160405280600c81526020017f436f70706572466175636574000000000000000000000000000000000000000081525081565b7f964eb16c7e6996a794d041eed4e38f2380f962a7f889354cedf334cd1f32b5c481565b6000600360003373ffffffffffffffffffffffffffffffffffffffff1673ffffffffffffffffffffffffffffffffffffffff16815260200190815260200160002054905061090c60015482610b1690919063ffffffff16565b42101561094e576040517f08c379a0000000000000000000000000000000000000000000000000000000008152600401610945906115cb565b60405180910390fd5b600254471015610993576040517f08c379a000000000000000000000000000000000000000000000000000000000815260040161098a90611637565b60405180910390fd5b6109e2338285858080601f016020809104026020016040519081016040528093929190818152602001838380828437600081840152601f19601f82011690508083019250505050505050610b2c565b610a21576040517f08c379a0000000000000000000000000000000000000000000000000000000008152600401610a18906116a3565b60405180910390fd5b3373ffffffffffffffffffffffffffffffffffffffff166108fc6002549081150290604051600060405180830381858888f19350505050158015610a69573d6000803e3d6000fd5b5042600360003373ffffffffffffffffffffffffffffffffffffffff1673ffffffffffffffffffffffffffffffffffffffff16815260200190815260200160002081905550505050565b6040518060400160405280600181526020017f310000000000000000000000000000000000000000000000000000000000000081525081565b60025481565b60008054906101000a900473ffffffffffffffffffffffffffffffffffffffff1681565b60008183610b2491906116f2565b905092915050565b600080610b398585610b8c565b90506000610b508483610c2990919063ffffffff16565b90508573ffffffffffffffffffffffffffffffffffffffff168173ffffffffffffffffffffffffffffffffffffffff1614925050509392505050565b60007f00000000000000000000000000000000000000000000000000000000000000007f964eb16c7e6996a794d041eed4e38f2380f962a7f889354cedf334cd1f32b5c48484604051602001610be493929190611726565b60405160208183030381529060405280519060200120604051602001610c0b9291906117d5565b60405160208183030381529060405280519060200120905092915050565b6000806000610c388585610c50565b91509150610c4581610ca1565b819250505092915050565b6000806041835103610c915760008060006020860151925060408601519150606086015160001a9050610c8587828585610e07565b94509450505050610c9a565b60006002915091505b9250929050565b60006004811115610cb557610cb461180c565b5b816004811115610cc857610cc761180c565b5b0315610e045760016004811115610ce257610ce161180c565b5b816004811115610cf557610cf461180c565b5b03610d35576040517f08c379a0000000000000000000000000000000000000000000000000000000008152600401610d2c90611887565b60405180910390fd5b60026004811115610d4957610d4861180c565b5b816004811115610d5c57610d5b61180c565b5b03610d9c576040517f08c379a0000000000000000000000000000000000000000000000000000000008152600401610d93906118f3565b60405180910390fd5b60036004811115610db057610daf61180c565b5b816004811115610dc357610dc261180c565b5b03610e03576040517f08c379a0000000000000000000000000000000000000000000000000000000008152600401610dfa90611985565b60405180910390fd5b5b50565b6000807f7fffffffffffffffffffffffffffffff5d576e7357a4501ddfe92f46681b20a08360001c1115610e42576000600391509150610ee0565b600060018787878760405160008152602001604052604051610e6794939291906119c1565b6020604051602081039080840390855afa158015610e89573d6000803e3d6000fd5b505050602060405103519050600073ffffffffffffffffffffffffffffffffffffffff168173ffffffffffffffffffffffffffffffffffffffff1603610ed757600060019250925050610ee0565b80600092509250505b94509492505050565b600080fd5b600080fd5b600073ffffffffffffffffffffffffffffffffffffffff82169050919050565b6000610f1e82610ef3565b9050919050565b610f2e81610f13565b8114610f3957600080fd5b50565b600081359050610f4b81610f25565b92915050565b6000819050919050565b610f6481610f51565b8114610f6f57600080fd5b50565b600081359050610f8181610f5b565b92915050565b60008060408385031215610f9e57610f9d610ee9565b5b6000610fac85828601610f3c565b9250506020610fbd85828601610f72565b9150509250929050565b6000819050919050565b610fda81610fc7565b82525050565b6000602082019050610ff56000830184610fd1565b92915050565b60006020828403121561101157611010610ee9565b5b600061101f84828501610f3c565b91505092915050565b61103181610f51565b82525050565b600060208201905061104c6000830184611028565b92915050565b60006020828403121561106857611067610ee9565b5b600061107684828501610f72565b91505092915050565b600081519050919050565b600082825260208201905092915050565b60005b838110156110b957808201518184015260208101905061109e565b60008484015250505050565b6000601f19601f8301169050919050565b60006110e18261107f565b6110eb818561108a565b93506110fb81856020860161109b565b611104816110c5565b840191505092915050565b6000602082019050818103600083015261112981846110d6565b905092915050565b600080fd5b600080fd5b600080fd5b60008083601f84011261115657611155611131565b5b8235905067ffffffffffffffff81111561117357611172611136565b5b60208301915083600182028301111561118f5761118e61113b565b5b9250929050565b600080602083850312156111ad576111ac610ee9565b5b600083013567ffffffffffffffff8111156111cb576111ca610eee565b5b6111d785828601611140565b92509250509250929050565b6111ec81610f13565b82525050565b600060208201905061120760008301846111e3565b92915050565b7f4f6e6c792061646d696e2063616e2063616c6c20746869732066756e6374696f60008201527f6e00000000000000000000000000000000000000000000000000000000000000602082015250565b600061126960218361108a565b91506112748261120d565b604082019050919050565b600060208201905081810360008301526112988161125c565b9050919050565b6000815190506112ae81610f5b565b92915050565b6000602082840312156112ca576112c9610ee9565b5b60006112d88482850161129f565b91505092915050565b7f496e73756666696369656e7420746f6b656e2062616c616e6365000000000000600082015250565b6000611317601a8361108a565b9150611322826112e1565b602082019050919050565b600060208201905081810360008301526113468161130a565b9050919050565b600060408201905061136260008301856111e3565b61136f6020830184611028565b9392505050565b60008115159050919050565b61138b81611376565b811461139657600080fd5b50565b6000815190506113a881611382565b92915050565b6000602082840312156113c4576113c3610ee9565b5b60006113d284828501611399565b91505092915050565b7f546f6b656e207472616e73666572206661696c65640000000000000000000000600082015250565b600061141160158361108a565b915061141c826113db565b602082019050919050565b6000602082019050818103600083015261144081611404565b9050919050565b7f416d6f756e74206d7573742062652067726561746572207468616e2030000000600082015250565b600061147d601d8361108a565b915061148882611447565b602082019050919050565b600060208201905081810360008301526114ac81611470565b9050919050565b60006040820190506114c860008301856111e3565b6114d560208301846111e3565b9392505050565b7f496e73756666696369656e7420616c6c6f77616e636500000000000000000000600082015250565b600061151260168361108a565b915061151d826114dc565b602082019050919050565b6000602082019050818103600083015261154181611505565b9050919050565b600060608201905061155d60008301866111e3565b61156a60208301856111e3565b6115776040830184611028565b949350505050565b7f546f6f20736f6f6e20746f207265717565737420455448000000000000000000600082015250565b60006115b560178361108a565b91506115c08261157f565b602082019050919050565b600060208201905081810360008301526115e4816115a8565b9050919050565b7f46617563657420646f65736e2774206861766520656e6f756768204554480000600082015250565b6000611621601e8361108a565b915061162c826115eb565b602082019050919050565b6000602082019050818103600083015261165081611614565b9050919050565b7f496e76616c6964207369676e6174757265000000000000000000000000000000600082015250565b600061168d60118361108a565b915061169882611657565b602082019050919050565b600060208201905081810360008301526116bc81611680565b9050919050565b7f4e487b7100000000000000000000000000000000000000000000000000000000600052601160045260246000fd5b60006116fd82610f51565b915061170883610f51565b92508282019050808211156117205761171f6116c3565b5b92915050565b600060608201905061173b6000830186610fd1565b61174860208301856111e3565b6117556040830184611028565b949350505050565b600081905092915050565b7f1901000000000000000000000000000000000000000000000000000000000000600082015250565b600061179e60028361175d565b91506117a982611768565b600282019050919050565b6000819050919050565b6117cf6117ca82610fc7565b6117b4565b82525050565b60006117e082611791565b91506117ec82856117be565b6020820191506117fc82846117be565b6020820191508190509392505050565b7f4e487b7100000000000000000000000000000000000000000000000000000000600052602160045260246000fd5b7f45434453413a20696e76616c6964207369676e61747572650000000000000000600082015250565b600061187160188361108a565b915061187c8261183b565b602082019050919050565b600060208201905081810360008301526118a081611864565b9050919050565b7f45434453413a20696e76616c6964207369676e6174757265206c656e67746800600082015250565b60006118dd601f8361108a565b91506118e8826118a7565b602082019050919050565b6000602082019050818103600083015261190c816118d0565b9050919050565b7f45434453413a20696e76616c6964207369676e6174757265202773272076616c60008201527f7565000000000000000000000000000000000000000000000000000000000000602082015250565b600061196f60228361108a565b915061197a82611913565b604082019050919050565b6000602082019050818103600083015261199e81611962565b9050919050565b600060ff82169050919050565b6119bb816119a5565b82525050565b60006080820190506119d66000830187610fd1565b6119e360208301866119b2565b6119f06040830185610fd1565b6119fd6060830184610fd1565b9594505050505056fea2646970667358221220ef9b52dee7ce10ef6c631c57b0556fad66bf6e9d5993fd7b10133cfa16febc6a64736f6c63430008120033",
  "linkReferences": {},
  "deployedLinkReferences": {}
}