{
  "_format": "hh-sol-artifact-1",
  "contractName": "Trust",
  "sourceName": "contracts/shared/facets/Trust/Trust.sol",
  "abi": [
    {
      "inputs": [],
      "stateMutability": "nonpayable",
      "type": "constructor"
    },
    {
      "anonymous": false,
      "inputs": [
        {
          "indexed": true,
          "internalType": "address",
          "name": "trustee",
          "type": "address"
        }
      ],
      "name": "TrusteeAccepted",
      "type": "event"
    },
    {
      "anonymous": false,
      "inputs": [
        {
          "indexed": true,
          "internalType": "address",
          "name": "trustee",
          "type": "address"
        }
      ],
      "name": "TrusteeAdded",
      "type": "event"
    },
    {
      "anonymous": false,
      "inputs": [
        {
          "indexed": true,
          "internalType": "address",
          "name": "trustee",
          "type": "address"
        }
      ],
      "name": "TrusteeDeclined",
      "type": "event"
    },
    {
      "anonymous": false,
      "inputs": [
        {
          "indexed": true,
          "internalType": "address",
          "name": "trustee",
          "type": "address"
        }
      ],
      "name": "TrusteeRevoked",
      "type": "event"
    },
    {
      "inputs": [],
      "name": "GRANTOR_ROLE",
      "outputs": [
        {
          "internalType": "bytes32",
          "name": "",
          "type": "bytes32"
        }
      ],
      "stateMutability": "view",
      "type": "function"
    },
    {
      "inputs": [],
      "name": "TRUSTEE_ADMIN_ROLE",
      "outputs": [
        {
          "internalType": "bytes32",
          "name": "",
          "type": "bytes32"
        }
      ],
      "stateMutability": "view",
      "type": "function"
    },
    {
      "inputs": [],
      "name": "TRUSTEE_ROLE",
      "outputs": [
        {
          "internalType": "bytes32",
          "name": "",
          "type": "bytes32"
        }
      ],
      "stateMutability": "view",
      "type": "function"
    },
    {
      "inputs": [],
      "name": "acceptTrustee",
      "outputs": [],
      "stateMutability": "nonpayable",
      "type": "function"
    },
    {
      "inputs": [
        {
          "internalType": "address",
          "name": "_trustee",
          "type": "address"
        }
      ],
      "name": "addTrustee",
      "outputs": [],
      "stateMutability": "nonpayable",
      "type": "function"
    },
    {
      "inputs": [],
      "name": "declineTrustee",
      "outputs": [],
      "stateMutability": "nonpayable",
      "type": "function"
    },
    {
      "inputs": [],
      "name": "getAllTrustees",
      "outputs": [
        {
          "components": [
            {
              "internalType": "address",
              "name": "trustee",
              "type": "address"
            },
            {
              "internalType": "bool",
              "name": "accepted",
              "type": "bool"
            },
            {
              "internalType": "bool",
              "name": "revoked",
              "type": "bool"
            },
            {
              "internalType": "bool",
              "name": "declined",
              "type": "bool"
            },
            {
              "internalType": "bytes",
              "name": "acceptedSignature",
              "type": "bytes"
            },
            {
              "internalType": "uint256",
              "name": "acceptanceBlock",
              "type": "uint256"
            },
            {
              "internalType": "uint256",
              "name": "revocationBlock",
              "type": "uint256"
            }
          ],
          "internalType": "struct TrusteeData[]",
          "name": "trustees",
          "type": "tuple[]"
        }
      ],
      "stateMutability": "view",
      "type": "function"
    },
    {
      "inputs": [
        {
          "internalType": "address",
          "name": "_trustee",
          "type": "address"
        }
      ],
      "name": "getTrusteeData",
      "outputs": [
        {
          "components": [
            {
              "internalType": "address",
              "name": "trustee",
              "type": "address"
            },
            {
              "internalType": "bool",
              "name": "accepted",
              "type": "bool"
            },
            {
              "internalType": "bool",
              "name": "revoked",
              "type": "bool"
            },
            {
              "internalType": "bool",
              "name": "declined",
              "type": "bool"
            },
            {
              "internalType": "bytes",
              "name": "acceptedSignature",
              "type": "bytes"
            },
            {
              "internalType": "uint256",
              "name": "acceptanceBlock",
              "type": "uint256"
            },
            {
              "internalType": "uint256",
              "name": "revocationBlock",
              "type": "uint256"
            }
          ],
          "internalType": "struct TrusteeData",
          "name": "trustee",
          "type": "tuple"
        }
      ],
      "stateMutability": "view",
      "type": "function"
    },
    {
      "inputs": [
        {
          "internalType": "contract IERC20",
          "name": "_beneficialInterestUnits",
          "type": "address"
        },
        {
          "internalType": "bytes",
          "name": "_trusteeAcceptanceString",
          "type": "bytes"
        },
        {
          "internalType": "contract IDocumentRegistry",
          "name": "_documentRegistry",
          "type": "address"
        },
        {
          "internalType": "address[]",
          "name": "_grantors",
          "type": "address[]"
        },
        {
          "internalType": "address[]",
          "name": "_trustees",
          "type": "address[]"
        }
      ],
      "name": "initialize",
      "outputs": [],
      "stateMutability": "nonpayable",
      "type": "function"
    },
    {
      "inputs": [
        {
          "internalType": "address",
          "name": "_trustee",
          "type": "address"
        }
      ],
      "name": "revokeTrustee",
      "outputs": [],
      "stateMutability": "nonpayable",
      "type": "function"
    }
  ],
  "bytecode": "0x60a06040523373ffffffffffffffffffffffffffffffffffffffff1660809073ffffffffffffffffffffffffffffffffffffffff1681525034801561004357600080fd5b5060805161005561009b60201b60201c565b60000160006101000a81548173ffffffffffffffffffffffffffffffffffffffff021916908373ffffffffffffffffffffffffffffffffffffffff1602179055506100e1565b60006100af6100b460201b61075d1760201c565b905090565b6000807fb6702c6092f39ec24fda45d06510ee9e0630773743ae07e169216fd9a4b2a58190508091505090565b608051611dc0620001046000396000818161041401526104cb0152611dc06000f3fe608060405234801561001057600080fd5b506004361061009e5760003560e01c80639aea9620116100665780639aea962014610135578063c50a40b514610151578063d7544d891461016f578063dc78ac1c14610179578063e15fb83f146101955761009e565b80630149ea05146100a35780634c10b9cd146100c157806372777649146100cb5780637b1f3cd3146100e95780638c9c5cc014610119575b600080fd5b6100ab6101b3565b6040516100b8919061133a565b60405180910390f35b6100c96101c2565b005b6100d3610260565b6040516100e09190611375565b60405180910390f35b61010360048036038101906100fe91906113c6565b610284565b604051610110919061148f565b60405180910390f35b610133600480360381019061012e91906115e8565b6103f4565b005b61014f600480360381019061014a91906113c6565b6104ab565b005b6101596105d8565b6040516101669190611375565b60405180910390f35b6101776105fc565b005b610193600480360381019061018e91906113c6565b61069a565b005b61019d610739565b6040516101aa9190611375565b60405180910390f35b60606101bd61078a565b905090565b6101d26101cd6109a6565b610a56565b15610212576040517f08c379a000000000000000000000000000000000000000000000000000000000815260040161020990611721565b60405180910390fd5b61021b33610a7e565b3373ffffffffffffffffffffffffffffffffffffffff167fb5c7d7bbdf1b9fa283e58cf0494168be8c16f6a3fa159d11f319dca3509adffc60405160405180910390a2565b7f700b68d05515876e1b5bee45535f56f17ecf1fbb63ac93e8914591401365025d81565b61028c61107e565b61029582610aac565b6040518060e00160405290816000820160009054906101000a900473ffffffffffffffffffffffffffffffffffffffff1673ffffffffffffffffffffffffffffffffffffffff1673ffffffffffffffffffffffffffffffffffffffff1681526020016000820160149054906101000a900460ff161515151581526020016000820160159054906101000a900460ff161515151581526020016000820160169054906101000a900460ff1615151515815260200160018201805461035790611770565b80601f016020809104026020016040519081016040528092919081815260200182805461038390611770565b80156103d05780601f106103a5576101008083540402835291602001916103d0565b820191906000526020600020905b8154815290600101906020018083116103b357829003601f168201915b50505050508152602001600282015481526020016003820154815250509050919050565b6103fc6109a6565b73ffffffffffffffffffffffffffffffffffffffff167f000000000000000000000000000000000000000000000000000000000000000073ffffffffffffffffffffffffffffffffffffffff1614610489576040517f08c379a0000000000000000000000000000000000000000000000000000000008152600401610480906117ed565b60405180910390fd5b610497888888888888610ade565b6104a18282610c4a565b5050505050505050565b6104b36109a6565b73ffffffffffffffffffffffffffffffffffffffff167f000000000000000000000000000000000000000000000000000000000000000073ffffffffffffffffffffffffffffffffffffffff1614610540576040517f08c379a0000000000000000000000000000000000000000000000000000000008152600401610537906117ed565b60405180910390fd5b61054981610d26565b15610589576040517f08c379a000000000000000000000000000000000000000000000000000000000815260040161058090611859565b60405180910390fd5b61059281610d4e565b8073ffffffffffffffffffffffffffffffffffffffff167f5a264f99905fb354931ca9f5deef940c0388146a88f400a5b2e217a699043d8e60405160405180910390a250565b7f7e6469f1a61b2adc85652d90bc4338c024ede1c3ef533071de9f6fd1c59bf2ca81565b61060c6106076109a6565b610a56565b1561064c576040517f08c379a000000000000000000000000000000000000000000000000000000000815260040161064390611721565b60405180910390fd5b61065533610d7c565b3373ffffffffffffffffffffffffffffffffffffffff167f091827190898e3cc6886f260b245214db94dad595e722440687504b9e6f50ad760405160405180910390a2565b6106aa6106a56109a6565b610a56565b156106ea576040517f08c379a00000000000000000000000000000000000000000000000000000000081526004016106e190611721565b60405180910390fd5b6106f381610daa565b8073ffffffffffffffffffffffffffffffffffffffff167f136b04e34cc22b4b7473adab82a20348a3f0600d6820f08c1a0543e5e9d5bff960405160405180910390a250565b7fd10feaa7fea55567e367a112bc53907318a50949442dfc0570945570c5af57cf81565b6000807fb6702c6092f39ec24fda45d06510ee9e0630773743ae07e169216fd9a4b2a58190508091505090565b6060600080610797610eac565b6004015490508067ffffffffffffffff8111156107b7576107b6611879565b5b6040519080825280602002602001820160405280156107f057816020015b6107dd61107e565b8152602001906001900390816107d55790505b5092505b808210156109a157610804610eac565b60030160008381526020019081526020016000206040518060e00160405290816000820160009054906101000a900473ffffffffffffffffffffffffffffffffffffffff1673ffffffffffffffffffffffffffffffffffffffff1673ffffffffffffffffffffffffffffffffffffffff1681526020016000820160149054906101000a900460ff161515151581526020016000820160159054906101000a900460ff161515151581526020016000820160169054906101000a900460ff161515151581526020016001820180546108da90611770565b80601f016020809104026020016040519081016040528092919081815260200182805461090690611770565b80156109535780601f1061092857610100808354040283529160200191610953565b820191906000526020600020905b81548152906001019060200180831161093657829003601f168201915b5050505050815260200160028201548152602001600382015481525050838381518110610983576109826118a8565b5b6020026020010181905250818061099990611906565b9250506107f4565b505090565b60003073ffffffffffffffffffffffffffffffffffffffff163373ffffffffffffffffffffffffffffffffffffffff1603610a4f57600080368080601f016020809104026020016040519081016040528093929190818152602001838380828437600081840152601f19601f820116905080830192505050505050509050600080369050905073ffffffffffffffffffffffffffffffffffffffff818301511692505050610a53565b3390505b90565b600080610a6283610aac565b90508060000160149054906101000a900460ff16915050919050565b6000610a8982610aac565b905060018160000160146101000a81548160ff0219169083151502179055505050565b600080610ab883610ebb565b9050610ac2610eac565b6003016000828152602001908152602001600020915050919050565b610ae661075d565b60090160009054906101000a900460ff1615610b37576040517f08c379a0000000000000000000000000000000000000000000000000000000008152600401610b2e9061199a565b60405180910390fd5b85610b40610eac565b60050160006101000a81548173ffffffffffffffffffffffffffffffffffffffff021916908373ffffffffffffffffffffffffffffffffffffffff1602179055508484610b8b610eac565b6006019182610b9b929190611b71565b5082610ba5610eac565b600c0160006101000a81548173ffffffffffffffffffffffffffffffffffffffff021916908373ffffffffffffffffffffffffffffffffffffffff16021790555060005b82829050811015610c3757610c24838383818110610c0a57610c096118a8565b5b9050602002016020810190610c1f91906113c6565b610fa5565b8080610c2f90611906565b915050610be9565b50610c426001611035565b505050505050565b6000808383905090505b80821015610d2057838383818110610c6f57610c6e6118a8565b5b9050602002016020810190610c8491906113c6565b610c8c610eac565b6003016000610c99610eac565b60040154815260200190815260200160002060000160006101000a81548173ffffffffffffffffffffffffffffffffffffffff021916908373ffffffffffffffffffffffffffffffffffffffff160217905550610cf4610eac565b6004016000815480929190610d0890611906565b91905055508180610d1890611906565b925050610c54565b50505050565b600080610d3283610aac565b90508060000160159054906101000a900460ff16915050919050565b6000610d5982610aac565b905060018160000160156101000a81548160ff0219169083151502179055505050565b6000610d8782610aac565b905060018160000160166101000a81548160ff0219169083151502179055505050565b6000610db4610eac565b6004015490506000610dc4610eac565b60030160008381526020019081526020016000209050828160000160006101000a81548173ffffffffffffffffffffffffffffffffffffffff021916908373ffffffffffffffffffffffffffffffffffffffff16021790555060008160000160146101000a81548160ff02191690831515021790555060008160000160156101000a81548160ff02191690831515021790555060008160000160166101000a81548160ff02191690831515021790555060405180602001604052806000815250816001019081610e949190611c4c565b5060008160020181905550610ea761105b565b505050565b6000610eb661075d565b905090565b600080600090505b610ecb610eac565b60040154811015610f64578273ffffffffffffffffffffffffffffffffffffffff16610ef5610eac565b600301600083815260200190815260200160002060000160009054906101000a900473ffffffffffffffffffffffffffffffffffffffff1673ffffffffffffffffffffffffffffffffffffffff1603610f515780915050610fa0565b8080610f5c90611906565b915050610ec3565b506040517f08c379a0000000000000000000000000000000000000000000000000000000008152600401610f9790611d6a565b60405180910390fd5b919050565b6000610faf610eac565b60020154905081610fbe610eac565b600101600083815260200190815260200160002060006101000a81548173ffffffffffffffffffffffffffffffffffffffff021916908373ffffffffffffffffffffffffffffffffffffffff160217905550611018610eac565b600201600081548092919061102c90611906565b91905055505050565b8061103e610eac565b60090160006101000a81548160ff02191690831515021790555050565b611063610eac565b600401600081548092919061107790611906565b9190505550565b6040518060e00160405280600073ffffffffffffffffffffffffffffffffffffffff1681526020016000151581526020016000151581526020016000151581526020016060815260200160008152602001600081525090565b600081519050919050565b600082825260208201905092915050565b6000819050602082019050919050565b600073ffffffffffffffffffffffffffffffffffffffff82169050919050565b600061112e82611103565b9050919050565b61113e81611123565b82525050565b60008115159050919050565b61115981611144565b82525050565b600081519050919050565b600082825260208201905092915050565b60005b8381101561119957808201518184015260208101905061117e565b60008484015250505050565b6000601f19601f8301169050919050565b60006111c18261115f565b6111cb818561116a565b93506111db81856020860161117b565b6111e4816111a5565b840191505092915050565b6000819050919050565b611202816111ef565b82525050565b600060e0830160008301516112206000860182611135565b5060208301516112336020860182611150565b5060408301516112466040860182611150565b5060608301516112596060860182611150565b506080830151848203608086015261127182826111b6565b91505060a083015161128660a08601826111f9565b5060c083015161129960c08601826111f9565b508091505092915050565b60006112b08383611208565b905092915050565b6000602082019050919050565b60006112d0826110d7565b6112da81856110e2565b9350836020820285016112ec856110f3565b8060005b85811015611328578484038952815161130985826112a4565b9450611314836112b8565b925060208a019950506001810190506112f0565b50829750879550505050505092915050565b6000602082019050818103600083015261135481846112c5565b905092915050565b6000819050919050565b61136f8161135c565b82525050565b600060208201905061138a6000830184611366565b92915050565b600080fd5b600080fd5b6113a381611123565b81146113ae57600080fd5b50565b6000813590506113c08161139a565b92915050565b6000602082840312156113dc576113db611390565b5b60006113ea848285016113b1565b91505092915050565b600060e08301600083015161140b6000860182611135565b50602083015161141e6020860182611150565b5060408301516114316040860182611150565b5060608301516114446060860182611150565b506080830151848203608086015261145c82826111b6565b91505060a083015161147160a08601826111f9565b5060c083015161148460c08601826111f9565b508091505092915050565b600060208201905081810360008301526114a981846113f3565b905092915050565b60006114bc82611123565b9050919050565b6114cc816114b1565b81146114d757600080fd5b50565b6000813590506114e9816114c3565b92915050565b600080fd5b600080fd5b600080fd5b60008083601f840112611514576115136114ef565b5b8235905067ffffffffffffffff811115611531576115306114f4565b5b60208301915083600182028301111561154d5761154c6114f9565b5b9250929050565b600061155f82611123565b9050919050565b61156f81611554565b811461157a57600080fd5b50565b60008135905061158c81611566565b92915050565b60008083601f8401126115a8576115a76114ef565b5b8235905067ffffffffffffffff8111156115c5576115c46114f4565b5b6020830191508360208202830111156115e1576115e06114f9565b5b9250929050565b60008060008060008060008060a0898b03121561160857611607611390565b5b60006116168b828c016114da565b985050602089013567ffffffffffffffff81111561163757611636611395565b5b6116438b828c016114fe565b975097505060406116568b828c0161157d565b955050606089013567ffffffffffffffff81111561167757611676611395565b5b6116838b828c01611592565b9450945050608089013567ffffffffffffffff8111156116a6576116a5611395565b5b6116b28b828c01611592565b92509250509295985092959890939650565b600082825260208201905092915050565b7f5472757374656520616c72656164792061636365707465640000000000000000600082015250565b600061170b6018836116c4565b9150611716826116d5565b602082019050919050565b6000602082019050818103600083015261173a816116fe565b9050919050565b7f4e487b7100000000000000000000000000000000000000000000000000000000600052602260045260246000fd5b6000600282049050600182168061178857607f821691505b60208210810361179b5761179a611741565b5b50919050565b7f554e415554484f52495a45443a204e4f54204445504c4f594552000000000000600082015250565b60006117d7601a836116c4565b91506117e2826117a1565b602082019050919050565b60006020820190508181036000830152611806816117ca565b9050919050565b7f5472757374656520616c7265616479207265766f6b6564000000000000000000600082015250565b60006118436017836116c4565b915061184e8261180d565b602082019050919050565b6000602082019050818103600083015261187281611836565b9050919050565b7f4e487b7100000000000000000000000000000000000000000000000000000000600052604160045260246000fd5b7f4e487b7100000000000000000000000000000000000000000000000000000000600052603260045260246000fd5b7f4e487b7100000000000000000000000000000000000000000000000000000000600052601160045260246000fd5b6000611911826111ef565b91507fffffffffffffffffffffffffffffffffffffffffffffffffffffffffffffffff8203611943576119426118d7565b5b600182019050919050565b7f547275737420616c726561647920696e697469616c697a656400000000000000600082015250565b60006119846019836116c4565b915061198f8261194e565b602082019050919050565b600060208201905081810360008301526119b381611977565b9050919050565b600082905092915050565b60008190508160005260206000209050919050565b60006020601f8301049050919050565b600082821b905092915050565b600060088302611a277fffffffffffffffffffffffffffffffffffffffffffffffffffffffffffffffff826119ea565b611a3186836119ea565b95508019841693508086168417925050509392505050565b6000819050919050565b6000611a6e611a69611a64846111ef565b611a49565b6111ef565b9050919050565b6000819050919050565b611a8883611a53565b611a9c611a9482611a75565b8484546119f7565b825550505050565b600090565b611ab1611aa4565b611abc818484611a7f565b505050565b5b81811015611ae057611ad5600082611aa9565b600181019050611ac2565b5050565b601f821115611b2557611af6816119c5565b611aff846119da565b81016020851015611b0e578190505b611b22611b1a856119da565b830182611ac1565b50505b505050565b600082821c905092915050565b6000611b4860001984600802611b2a565b1980831691505092915050565b6000611b618383611b37565b9150826002028217905092915050565b611b7b83836119ba565b67ffffffffffffffff811115611b9457611b93611879565b5b611b9e8254611770565b611ba9828285611ae4565b6000601f831160018114611bd85760008415611bc6578287013590505b611bd08582611b55565b865550611c38565b601f198416611be6866119c5565b60005b82811015611c0e57848901358255600182019150602085019450602081019050611be9565b86831015611c2b5784890135611c27601f891682611b37565b8355505b6001600288020188555050505b50505050505050565b600081519050919050565b611c5582611c41565b67ffffffffffffffff811115611c6e57611c6d611879565b5b611c788254611770565b611c83828285611ae4565b600060209050601f831160018114611cb65760008415611ca4578287015190505b611cae8582611b55565b865550611d16565b601f198416611cc4866119c5565b60005b82811015611cec57848901518255600182019150602085019450602081019050611cc7565b86831015611d095784890151611d05601f891682611b37565b8355505b6001600288020188555050505b505050505050565b7f54727573746565206e6f7420666f756e64000000000000000000000000000000600082015250565b6000611d546011836116c4565b9150611d5f82611d1e565b602082019050919050565b60006020820190508181036000830152611d8381611d47565b905091905056fea26469706673582212205359a1b7874dc3bee6466ca83ea966b280383c994532e71b90a41f56fc81a82564736f6c63430008120033",
  "linkReferences": {},
  "deployedLinkReferences": {}
}