{
  "_format": "hh-sol-artifact-1",
  "contractName": "ERC173Base",
  "sourceName": "contracts/shared/facets/ERC173/ERC173Base.sol",
  "abi": [
    {
      "anonymous": false,
      "inputs": [
        {
          "indexed": true,
          "internalType": "address",
          "name": "oldOwner",
          "type": "address"
        },
        {
          "indexed": true,
          "internalType": "address",
          "name": "newOwner",
          "type": "address"
        }
      ],
      "name": "OwnershipTransferred",
      "type": "event"
    },
    {
      "inputs": [],
      "name": "renounceOwnership",
      "outputs": [],
      "stateMutability": "nonpayable",
      "type": "function"
    },
    {
      "inputs": [
        {
          "internalType": "address",
          "name": "newOwner",
          "type": "address"
        }
      ],
      "name": "transferOwnership",
      "outputs": [],
      "stateMutability": "nonpayable",
      "type": "function"
    }
  ],
  "bytecode": "0x608060405234801561001057600080fd5b506106b1806100206000396000f3fe608060405234801561001057600080fd5b50600436106100365760003560e01c8063715018a61461003b578063f2fde38b14610045575b600080fd5b610043610061565b005b61005f600480360381019061005a91906104d3565b61006b565b005b610069610077565b565b6100748161010f565b50565b6000610081610215565b9050600073ffffffffffffffffffffffffffffffffffffffff168160000160009054906101000a900473ffffffffffffffffffffffffffffffffffffffff1673ffffffffffffffffffffffffffffffffffffffff167f8be0079c531659141344cd1fd0a4f28419497f9722a3daafe3b4186f6b6457e060405160405180910390a361010c6000610242565b50565b6000610119610215565b9050600073ffffffffffffffffffffffffffffffffffffffff168273ffffffffffffffffffffffffffffffffffffffff160361018a576040517f08c379a000000000000000000000000000000000000000000000000000000000815260040161018190610583565b60405180910390fd5b8173ffffffffffffffffffffffffffffffffffffffff168160000160009054906101000a900473ffffffffffffffffffffffffffffffffffffffff1673ffffffffffffffffffffffffffffffffffffffff167f8be0079c531659141344cd1fd0a4f28419497f9722a3daafe3b4186f6b6457e060405160405180910390a361021182610242565b5050565b6000807f27988b2aa29f3642335c5e67256193dbbf8f93e69169bf18beacd3e4004b1d7a90508091505090565b600061024c610215565b90508060000160009054906101000a900473ffffffffffffffffffffffffffffffffffffffff1673ffffffffffffffffffffffffffffffffffffffff168273ffffffffffffffffffffffffffffffffffffffff16036102e0576040517f08c379a00000000000000000000000000000000000000000000000000000000081526004016102d7906105ef565b60405180910390fd5b8060000160009054906101000a900473ffffffffffffffffffffffffffffffffffffffff1673ffffffffffffffffffffffffffffffffffffffff166103236103c0565b73ffffffffffffffffffffffffffffffffffffffff1614610379576040517f08c379a00000000000000000000000000000000000000000000000000000000081526004016103709061065b565b60405180910390fd5b818160000160006101000a81548173ffffffffffffffffffffffffffffffffffffffff021916908373ffffffffffffffffffffffffffffffffffffffff1602179055505050565b60003073ffffffffffffffffffffffffffffffffffffffff163373ffffffffffffffffffffffffffffffffffffffff160361046957600080368080601f016020809104026020016040519081016040528093929190818152602001838380828437600081840152601f19601f820116905080830192505050505050509050600080369050905073ffffffffffffffffffffffffffffffffffffffff81830151169250505061046d565b3390505b90565b600080fd5b600073ffffffffffffffffffffffffffffffffffffffff82169050919050565b60006104a082610475565b9050919050565b6104b081610495565b81146104bb57600080fd5b50565b6000813590506104cd816104a7565b92915050565b6000602082840312156104e9576104e8610470565b5b60006104f7848285016104be565b91505092915050565b600082825260208201905092915050565b7f4552433137333a206e6577206f776e657220697320746865207a65726f20616460008201527f6472657373000000000000000000000000000000000000000000000000000000602082015250565b600061056d602583610500565b915061057882610511565b604082019050919050565b6000602082019050818103600083015261059c81610560565b9050919050565b7f53414d45204f574e455200000000000000000000000000000000000000000000600082015250565b60006105d9600a83610500565b91506105e4826105a3565b602082019050919050565b60006020820190508181036000830152610608816105cc565b9050919050565b7f554e415554484f52495a45440000000000000000000000000000000000000000600082015250565b6000610645600c83610500565b91506106508261060f565b602082019050919050565b6000602082019050818103600083015261067481610638565b905091905056fea2646970667358221220f448fd8564e6f33ca2b69b213106ae0e32a9bf5e85684085dbac37ff0aaa81a864736f6c63430008120033",
  "linkReferences": {},
  "deployedLinkReferences": {}
}