{
  "_format": "hh-sol-artifact-1",
  "contractName": "CopperTrustUnits",
  "sourceName": "contracts/CopperTrustUnits/CopperTrustUnits.sol",
  "abi": [
    {
      "inputs": [
        {
          "internalType": "string",
          "name": "name",
          "type": "string"
        },
        {
          "internalType": "string",
          "name": "symbol",
          "type": "string"
        },
        {
          "internalType": "uint256",
          "name": "initialSupply",
          "type": "uint256"
        },
        {
          "internalType": "uint8",
          "name": "decimals",
          "type": "uint8"
        },
        {
          "internalType": "uint256",
          "name": "cap",
          "type": "uint256"
        },
        {
          "internalType": "address[]",
          "name": "minters",
          "type": "address[]"
        },
        {
          "internalType": "address[]",
          "name": "burners",
          "type": "address[]"
        }
      ],
      "stateMutability": "nonpayable",
      "type": "constructor"
    },
    {
      "anonymous": false,
      "inputs": [
        {
          "indexed": true,
          "internalType": "address",
          "name": "owner",
          "type": "address"
        },
        {
          "indexed": true,
          "internalType": "address",
          "name": "spender",
          "type": "address"
        },
        {
          "indexed": false,
          "internalType": "uint256",
          "name": "value",
          "type": "uint256"
        }
      ],
      "name": "Approval",
      "type": "event"
    },
    {
      "anonymous": false,
      "inputs": [
        {
          "indexed": true,
          "internalType": "address",
          "name": "account",
          "type": "address"
        }
      ],
      "name": "BurnerAdded",
      "type": "event"
    },
    {
      "anonymous": false,
      "inputs": [
        {
          "indexed": true,
          "internalType": "address",
          "name": "account",
          "type": "address"
        }
      ],
      "name": "BurnerRemoved",
      "type": "event"
    },
    {
      "anonymous": false,
      "inputs": [
        {
          "indexed": true,
          "internalType": "address",
          "name": "account",
          "type": "address"
        }
      ],
      "name": "MintBurnAdminAdded",
      "type": "event"
    },
    {
      "anonymous": false,
      "inputs": [
        {
          "indexed": true,
          "internalType": "address",
          "name": "account",
          "type": "address"
        }
      ],
      "name": "MintBurnAdminRemoved",
      "type": "event"
    },
    {
      "anonymous": false,
      "inputs": [
        {
          "indexed": true,
          "internalType": "address",
          "name": "account",
          "type": "address"
        }
      ],
      "name": "MinterAdded",
      "type": "event"
    },
    {
      "anonymous": false,
      "inputs": [
        {
          "indexed": true,
          "internalType": "address",
          "name": "account",
          "type": "address"
        }
      ],
      "name": "MinterRemoved",
      "type": "event"
    },
    {
      "anonymous": false,
      "inputs": [
        {
          "indexed": true,
          "internalType": "address",
          "name": "from",
          "type": "address"
        },
        {
          "indexed": true,
          "internalType": "address",
          "name": "to",
          "type": "address"
        },
        {
          "indexed": false,
          "internalType": "uint256",
          "name": "value",
          "type": "uint256"
        }
      ],
      "name": "Transfer",
      "type": "event"
    },
    {
      "inputs": [
        {
          "internalType": "address",
          "name": "account",
          "type": "address"
        }
      ],
      "name": "addBurner",
      "outputs": [],
      "stateMutability": "nonpayable",
      "type": "function"
    },
    {
      "inputs": [
        {
          "internalType": "address",
          "name": "account",
          "type": "address"
        }
      ],
      "name": "addMintBurnAdmin",
      "outputs": [],
      "stateMutability": "nonpayable",
      "type": "function"
    },
    {
      "inputs": [
        {
          "internalType": "address",
          "name": "account",
          "type": "address"
        }
      ],
      "name": "addMinter",
      "outputs": [],
      "stateMutability": "nonpayable",
      "type": "function"
    },
    {
      "inputs": [
        {
          "internalType": "address",
          "name": "owner",
          "type": "address"
        },
        {
          "internalType": "address",
          "name": "spender",
          "type": "address"
        }
      ],
      "name": "allowance",
      "outputs": [
        {
          "internalType": "uint256",
          "name": "",
          "type": "uint256"
        }
      ],
      "stateMutability": "view",
      "type": "function"
    },
    {
      "inputs": [
        {
          "internalType": "address",
          "name": "spender",
          "type": "address"
        },
        {
          "internalType": "uint256",
          "name": "value",
          "type": "uint256"
        }
      ],
      "name": "approve",
      "outputs": [
        {
          "internalType": "bool",
          "name": "",
          "type": "bool"
        }
      ],
      "stateMutability": "nonpayable",
      "type": "function"
    },
    {
      "inputs": [
        {
          "internalType": "address",
          "name": "account",
          "type": "address"
        }
      ],
      "name": "balanceOf",
      "outputs": [
        {
          "internalType": "uint256",
          "name": "",
          "type": "uint256"
        }
      ],
      "stateMutability": "view",
      "type": "function"
    },
    {
      "inputs": [
        {
          "internalType": "uint256",
          "name": "value",
          "type": "uint256"
        }
      ],
      "name": "burn",
      "outputs": [],
      "stateMutability": "nonpayable",
      "type": "function"
    },
    {
      "inputs": [],
      "name": "cap",
      "outputs": [
        {
          "internalType": "uint256",
          "name": "cap_",
          "type": "uint256"
        }
      ],
      "stateMutability": "view",
      "type": "function"
    },
    {
      "inputs": [],
      "name": "decimals",
      "outputs": [
        {
          "internalType": "uint8",
          "name": "",
          "type": "uint8"
        }
      ],
      "stateMutability": "view",
      "type": "function"
    },
    {
      "inputs": [
        {
          "internalType": "uint256",
          "name": "cap_",
          "type": "uint256"
        }
      ],
      "name": "initERC20Capped",
      "outputs": [],
      "stateMutability": "nonpayable",
      "type": "function"
    },
    {
      "inputs": [
        {
          "internalType": "uint256",
          "name": "totalSupply_",
          "type": "uint256"
        },
        {
          "internalType": "uint256",
          "name": "decimals_",
          "type": "uint256"
        }
      ],
      "name": "initialize",
      "outputs": [],
      "stateMutability": "nonpayable",
      "type": "function"
    },
    {
      "inputs": [
        {
          "internalType": "address",
          "name": "account",
          "type": "address"
        },
        {
          "internalType": "uint256",
          "name": "value",
          "type": "uint256"
        }
      ],
      "name": "mint",
      "outputs": [],
      "stateMutability": "nonpayable",
      "type": "function"
    },
    {
      "inputs": [
        {
          "internalType": "address",
          "name": "account",
          "type": "address"
        }
      ],
      "name": "removeBurner",
      "outputs": [],
      "stateMutability": "nonpayable",
      "type": "function"
    },
    {
      "inputs": [
        {
          "internalType": "address",
          "name": "account",
          "type": "address"
        }
      ],
      "name": "removeMintBurnAdmin",
      "outputs": [],
      "stateMutability": "nonpayable",
      "type": "function"
    },
    {
      "inputs": [
        {
          "internalType": "address",
          "name": "account",
          "type": "address"
        }
      ],
      "name": "removeMinter",
      "outputs": [],
      "stateMutability": "nonpayable",
      "type": "function"
    },
    {
      "inputs": [],
      "name": "totalSupply",
      "outputs": [
        {
          "internalType": "uint256",
          "name": "",
          "type": "uint256"
        }
      ],
      "stateMutability": "view",
      "type": "function"
    },
    {
      "inputs": [
        {
          "internalType": "address",
          "name": "to",
          "type": "address"
        },
        {
          "internalType": "uint256",
          "name": "value",
          "type": "uint256"
        }
      ],
      "name": "transfer",
      "outputs": [
        {
          "internalType": "bool",
          "name": "",
          "type": "bool"
        }
      ],
      "stateMutability": "nonpayable",
      "type": "function"
    },
    {
      "inputs": [
        {
          "internalType": "address",
          "name": "from",
          "type": "address"
        },
        {
          "internalType": "address",
          "name": "to",
          "type": "address"
        },
        {
          "internalType": "uint256",
          "name": "value",
          "type": "uint256"
        }
      ],
      "name": "transferFrom",
      "outputs": [
        {
          "internalType": "bool",
          "name": "",
          "type": "bool"
        }
      ],
      "stateMutability": "nonpayable",
      "type": "function"
    }
  ],
  "bytecode": "0x60806040523480156200001157600080fd5b506040516200428e3803806200428e833981810160405281019062000037919062000ce4565b6200004c858560ff166200008e60201b60201c565b6200005e8787620001cb60201b60201c565b6200006f836200021160201b60201c565b6200008182826200023760201b60201c565b50505050505050620012bd565b6000620000a56200059d60201b620009fd1760201c565b90506000620000be620005ca60201b62000a2a1760201c565b905083816001018190555082816000018190555083816002016000620000ee620005f760201b62000a571760201c565b73ffffffffffffffffffffffffffffffffffffffff1673ffffffffffffffffffffffffffffffffffffffff1681526020019081526020016000208190555062000141620005f760201b62000a571760201c565b73ffffffffffffffffffffffffffffffffffffffff16600073ffffffffffffffffffffffffffffffffffffffff167fddf252ad1be2c89b69c2b068fc378daa952ba7f163c4a11628f55a4df523b3ef86604051620001a0919062000e24565b60405180910390a360018160060160006101000a81548160ff02191690831515021790555050505050565b6000620001e2620006a960201b62000b071760201c565b905082816000019081620001f7919062001082565b50818160010190816200020b919062001082565b50505050565b600062000228620006d660201b62000b341760201c565b90508181600001819055505050565b60006200024e6200070360201b62000b611760201c565b9050620002a77f524f4c455f45524332305f4d494e5445520000000000000000000000000000007f524f4c455f45524332305f41444d494e000000000000000000000000000000006200073060201b62000b8e1760201c565b620002fe7f524f4c455f45524332305f4255524e45520000000000000000000000000000007f524f4c455f45524332305f41444d494e000000000000000000000000000000006200073060201b62000b8e1760201c565b620003557f524f4c455f45524332305f4d494e5445520000000000000000000000000000007f524f4c455f45524332305f4d494e545f4255524e5f41444d494e0000000000006200073060201b62000b8e1760201c565b620003ac7f524f4c455f45524332305f4255524e45520000000000000000000000000000007f524f4c455f45524332305f4d494e545f4255524e5f41444d494e0000000000006200073060201b62000b8e1760201c565b620004037f524f4c455f45524332305f4d494e545f4255524e5f41444d494e0000000000007f524f4c455f45524332305f41444d494e000000000000000000000000000000006200073060201b62000b8e1760201c565b60006200041a620005f760201b62000a571760201c565b9050620004537f524f4c455f45524332305f41444d494e00000000000000000000000000000000826200076360201b62000bb91760201c565b6200048a7f524f4c455f45524332305f4d494e545f4255524e5f41444d494e000000000000826200076360201b62000bb91760201c565b60005b84518110156200050157620004eb7f524f4c455f45524332305f4d494e544552000000000000000000000000000000868381518110620004d257620004d162001169565b5b60200260200101516200076360201b62000bb91760201c565b8080620004f890620011c7565b9150506200048d565b5060005b83518110156200057957620005637f524f4c455f45524332305f4255524e45520000000000000000000000000000008583815181106200054a576200054962001169565b5b60200260200101516200076360201b62000bb91760201c565b80806200057090620011c7565b91505062000505565b5060018260000160006101000a81548160ff02191690831515021790555050505050565b6000807ffb5f9bce5f7fbdcd10da4fc50325b76117b61254b1eb429f0cacf74a65cc34ad90508091505090565b6000807f7c93868e1bfb5ff7f7930e0ba0154b0d59fc7f9fd1852f9ca4873d7bcbe740d090508091505090565b60003073ffffffffffffffffffffffffffffffffffffffff163373ffffffffffffffffffffffffffffffffffffffff1603620006a257600080368080601f016020809104026020016040519081016040528093929190818152602001838380828437600081840152601f19601f820116905080830192505050505050509050600080369050905073ffffffffffffffffffffffffffffffffffffffff818301511692505050620006a6565b3390505b90565b6000807fd0663838b68b01f53e08cceabfcf6be04c591567ba78dedfc4928e98500bd9eb90508091505090565b6000807f5215d25d8b638773b1d490e0d378c0e55b7f29d487d042ceb761433bb840513690508091505090565b6000807f76d69fecfc8e52f94fec6a5768aaea5d46d249c645e44f1d8446c60d2c0762ed90508091505090565b6000620007426200059d60201b60201c565b90508181600301600085815260200190815260200160002081905550505050565b6000620007756200059d60201b60201c565b90506200078983836200091a60201b60201c565b15620007cc576040517f08c379a0000000000000000000000000000000000000000000000000000000008152600401620007c3906200129b565b60405180910390fd5b600181600001600085815260200190815260200160002060008473ffffffffffffffffffffffffffffffffffffffff1673ffffffffffffffffffffffffffffffffffffffff16815260200190815260200160002060006101000a81548160ff0219169083151502179055508060010160008373ffffffffffffffffffffffffffffffffffffffff1673ffffffffffffffffffffffffffffffffffffffff168152602001908152602001600020839080600181540180825580915050600190039060005260206000200160009091909190915055806002016000848152602001908152602001600020829080600181540180825580915050600190039060005260206000200160009091909190916101000a81548173ffffffffffffffffffffffffffffffffffffffff021916908373ffffffffffffffffffffffffffffffffffffffff160217905550505050565b6000806200092d6200059d60201b60201c565b905080600001600085815260200190815260200160002060008473ffffffffffffffffffffffffffffffffffffffff1673ffffffffffffffffffffffffffffffffffffffff16815260200190815260200160002060009054906101000a900460ff1691505092915050565b6000604051905090565b600080fd5b600080fd5b600080fd5b600080fd5b6000601f19601f8301169050919050565b7f4e487b7100000000000000000000000000000000000000000000000000000000600052604160045260246000fd5b62000a0182620009b6565b810181811067ffffffffffffffff8211171562000a235762000a22620009c7565b5b80604052505050565b600062000a3862000998565b905062000a468282620009f6565b919050565b600067ffffffffffffffff82111562000a695762000a68620009c7565b5b62000a7482620009b6565b9050602081019050919050565b60005b8381101562000aa157808201518184015260208101905062000a84565b60008484015250505050565b600062000ac462000abe8462000a4b565b62000a2c565b90508281526020810184848401111562000ae35762000ae2620009b1565b5b62000af084828562000a81565b509392505050565b600082601f83011262000b105762000b0f620009ac565b5b815162000b2284826020860162000aad565b91505092915050565b6000819050919050565b62000b408162000b2b565b811462000b4c57600080fd5b50565b60008151905062000b608162000b35565b92915050565b600060ff82169050919050565b62000b7e8162000b66565b811462000b8a57600080fd5b50565b60008151905062000b9e8162000b73565b92915050565b600067ffffffffffffffff82111562000bc25762000bc1620009c7565b5b602082029050602081019050919050565b600080fd5b600073ffffffffffffffffffffffffffffffffffffffff82169050919050565b600062000c058262000bd8565b9050919050565b62000c178162000bf8565b811462000c2357600080fd5b50565b60008151905062000c378162000c0c565b92915050565b600062000c5462000c4e8462000ba4565b62000a2c565b9050808382526020820190506020840283018581111562000c7a5762000c7962000bd3565b5b835b8181101562000ca7578062000c92888262000c26565b84526020840193505060208101905062000c7c565b5050509392505050565b600082601f83011262000cc95762000cc8620009ac565b5b815162000cdb84826020860162000c3d565b91505092915050565b600080600080600080600060e0888a03121562000d065762000d05620009a2565b5b600088015167ffffffffffffffff81111562000d275762000d26620009a7565b5b62000d358a828b0162000af8565b975050602088015167ffffffffffffffff81111562000d595762000d58620009a7565b5b62000d678a828b0162000af8565b965050604062000d7a8a828b0162000b4f565b955050606062000d8d8a828b0162000b8d565b945050608062000da08a828b0162000b4f565b93505060a088015167ffffffffffffffff81111562000dc45762000dc3620009a7565b5b62000dd28a828b0162000cb1565b92505060c088015167ffffffffffffffff81111562000df65762000df5620009a7565b5b62000e048a828b0162000cb1565b91505092959891949750929550565b62000e1e8162000b2b565b82525050565b600060208201905062000e3b600083018462000e13565b92915050565b600081519050919050565b7f4e487b7100000000000000000000000000000000000000000000000000000000600052602260045260246000fd5b6000600282049050600182168062000e9457607f821691505b60208210810362000eaa5762000ea962000e4c565b5b50919050565b60008190508160005260206000209050919050565b60006020601f8301049050919050565b600082821b905092915050565b60006008830262000f147fffffffffffffffffffffffffffffffffffffffffffffffffffffffffffffffff8262000ed5565b62000f20868362000ed5565b95508019841693508086168417925050509392505050565b6000819050919050565b600062000f6362000f5d62000f578462000b2b565b62000f38565b62000b2b565b9050919050565b6000819050919050565b62000f7f8362000f42565b62000f9762000f8e8262000f6a565b84845462000ee2565b825550505050565b600090565b62000fae62000f9f565b62000fbb81848462000f74565b505050565b5b8181101562000fe35762000fd760008262000fa4565b60018101905062000fc1565b5050565b601f821115620010325762000ffc8162000eb0565b620010078462000ec5565b8101602085101562001017578190505b6200102f620010268562000ec5565b83018262000fc0565b50505b505050565b600082821c905092915050565b6000620010576000198460080262001037565b1980831691505092915050565b600062001072838362001044565b9150826002028217905092915050565b6200108d8262000e41565b67ffffffffffffffff811115620010a957620010a8620009c7565b5b620010b5825462000e7b565b620010c282828562000fe7565b600060209050601f831160018114620010fa5760008415620010e5578287015190505b620010f1858262001064565b86555062001161565b601f1984166200110a8662000eb0565b60005b8281101562001134578489015182556001820191506020850194506020810190506200110d565b8683101562001154578489015162001150601f89168262001044565b8355505b6001600288020188555050505b505050505050565b7f4e487b7100000000000000000000000000000000000000000000000000000000600052603260045260246000fd5b7f4e487b7100000000000000000000000000000000000000000000000000000000600052601160045260246000fd5b6000620011d48262000b2b565b91507fffffffffffffffffffffffffffffffffffffffffffffffffffffffffffffffff820362001209576200120862001198565b5b600182019050919050565b600082825260208201905092915050565b7f416363657373436f6e74726f6c3a206163636f756e7420616c7265616479206860008201527f617320726f6c6500000000000000000000000000000000000000000000000000602082015250565b60006200128360278362001214565b9150620012908262001225565b604082019050919050565b60006020820190508181036000830152620012b68162001274565b9050919050565b612fc180620012cd6000396000f3fe608060405234801561001057600080fd5b50600436106101165760003560e01c806370a08231116100a2578063a9059cbb11610071578063a9059cbb146102c9578063dd62ed3e146102f9578063e45b973b14610329578063e4a3011614610345578063f44637ba1461036157610116565b806370a08231146102455780638dbff5cc14610275578063983b2d56146102915780639e8b30b0146102ad57610116565b80633092afd5116100e95780633092afd5146101b5578063313ce567146101d1578063355274ea146101ef57806340c10f191461020d57806342966c681461022957610116565b8063028468581461011b578063095ea7b31461013757806318160ddd1461016757806323b872dd14610185575b600080fd5b610135600480360381019061013091906121f2565b61037d565b005b610151600480360381019061014c9190612255565b6103ba565b60405161015e91906122b0565b60405180910390f35b61016f610435565b60405161017c91906122da565b60405180910390f35b61019f600480360381019061019a91906122f5565b6104a1565b6040516101ac91906122b0565b60405180910390f35b6101cf60048036038101906101ca91906121f2565b610516565b005b6101d9610553565b6040516101e69190612364565b60405180910390f35b6101f76105bf565b60405161020491906122da565b60405180910390f35b61022760048036038101906102229190612255565b6105ce565b005b610243600480360381019061023e919061237f565b610678565b005b61025f600480360381019061025a91906121f2565b610728565b60405161026c91906122da565b60405180910390f35b61028f600480360381019061028a91906121f2565b610797565b005b6102ab60048036038101906102a691906121f2565b6107d4565b005b6102c760048036038101906102c2919061237f565b610811565b005b6102e360048036038101906102de9190612255565b61081d565b6040516102f091906122b0565b60405180910390f35b610313600480360381019061030e91906123ac565b6108a5565b60405161032091906122da565b60405180910390f35b610343600480360381019061033e91906121f2565b610916565b005b61035f600480360381019061035a91906123ec565b610953565b005b61037b600480360381019061037691906121f2565b6109c0565b005b6103ae7f524f4c455f45524332305f4d494e545f4255524e5f41444d494e0000000000006103a9610a57565b610d5d565b6103b781610daa565b50565b6000806103c5610a2a565b90508060060160009054906101000a900460ff16610418576040517f08c379a000000000000000000000000000000000000000000000000000000000815260040161040f90612489565b60405180910390fd5b61042a610423610a57565b8585610e89565b600191505092915050565b600080610440610a2a565b90508060060160009054906101000a900460ff16610493576040517f08c379a000000000000000000000000000000000000000000000000000000000815260040161048a90612489565b60405180910390fd5b61049b611061565b91505090565b6000806104ac610a2a565b90508060060160009054906101000a900460ff166104ff576040517f08c379a00000000000000000000000000000000000000000000000000000000081526004016104f690612489565b60405180910390fd5b61050a858585611079565b60019150509392505050565b6105477f524f4c455f45524332305f4d494e545f4255524e5f41444d494e000000000000610542610a57565b610d5d565b610550816111fa565b50565b60008061055e610a2a565b90508060060160009054906101000a900460ff166105b1576040517f08c379a00000000000000000000000000000000000000000000000000000000081526004016105a890612489565b60405180910390fd5b6105b96112d9565b91505090565b60006105c96112f1565b905090565b60006105d8610b61565b90508060000160009054906101000a900460ff1661062b576040517f08c379a000000000000000000000000000000000000000000000000000000000815260040161062290612489565b60405180910390fd5b60006106356109fd565b90506106687f524f4c455f45524332305f4d494e544552000000000000000000000000000000610663610a57565b610d5d565b6106728484611309565b50505050565b6000610682610b61565b90508060000160009054906101000a900460ff166106d5576040517f08c379a00000000000000000000000000000000000000000000000000000000081526004016106cc90612489565b60405180910390fd5b60006106df6109fd565b90506107127f524f4c455f45524332305f4255524e455200000000000000000000000000000061070d610a57565b610d5d565b61072361071d610a57565b846113fc565b505050565b600080610733610a2a565b90508060060160009054906101000a900460ff16610786576040517f08c379a000000000000000000000000000000000000000000000000000000000815260040161077d90612489565b60405180910390fd5b61078f83611504565b915050919050565b6107c87f524f4c455f45524332305f4d494e545f4255524e5f41444d494e0000000000006107c3610a57565b610d5d565b6107d18161155b565b50565b6108057f524f4c455f45524332305f4d494e545f4255524e5f41444d494e000000000000610800610a57565b610d5d565b61080e8161163a565b50565b61081a81611719565b50565b60003073ffffffffffffffffffffffffffffffffffffffff1663a9059cbb84846040518363ffffffff1660e01b815260040161085a9291906124b8565b6020604051808303816000875af1158015610879573d6000803e3d6000fd5b505050506040513d601f19601f8201168201806040525081019061089d919061250d565b905092915050565b6000806108b0610a2a565b90508060060160009054906101000a900460ff16610903576040517f08c379a00000000000000000000000000000000000000000000000000000000081526004016108fa90612489565b60405180910390fd5b61090d8484611732565b91505092915050565b6109477f524f4c455f45524332305f4d494e545f4255524e5f41444d494e000000000000610942610a57565b610d5d565b610950816117c7565b50565b600061095d610a2a565b90508060060160009054906101000a900460ff16156109b1576040517f08c379a00000000000000000000000000000000000000000000000000000000081526004016109a890612586565b60405180910390fd5b6109bb83836118a6565b505050565b6109f17f524f4c455f45524332305f4d494e545f4255524e5f41444d494e0000000000006109ec610a57565b610d5d565b6109fa816119ad565b50565b6000807ffb5f9bce5f7fbdcd10da4fc50325b76117b61254b1eb429f0cacf74a65cc34ad90508091505090565b6000807f7c93868e1bfb5ff7f7930e0ba0154b0d59fc7f9fd1852f9ca4873d7bcbe740d090508091505090565b60003073ffffffffffffffffffffffffffffffffffffffff163373ffffffffffffffffffffffffffffffffffffffff1603610b0057600080368080601f016020809104026020016040519081016040528093929190818152602001838380828437600081840152601f19601f820116905080830192505050505050509050600080369050905073ffffffffffffffffffffffffffffffffffffffff818301511692505050610b04565b3390505b90565b6000807fd0663838b68b01f53e08cceabfcf6be04c591567ba78dedfc4928e98500bd9eb90508091505090565b6000807f5215d25d8b638773b1d490e0d378c0e55b7f29d487d042ceb761433bb840513690508091505090565b6000807f76d69fecfc8e52f94fec6a5768aaea5d46d249c645e44f1d8446c60d2c0762ed90508091505090565b6000610b986109fd565b90508181600301600085815260200190815260200160002081905550505050565b6000610bc36109fd565b9050610bcf8383611a8c565b15610c0f576040517f08c379a0000000000000000000000000000000000000000000000000000000008152600401610c0690612618565b60405180910390fd5b600181600001600085815260200190815260200160002060008473ffffffffffffffffffffffffffffffffffffffff1673ffffffffffffffffffffffffffffffffffffffff16815260200190815260200160002060006101000a81548160ff0219169083151502179055508060010160008373ffffffffffffffffffffffffffffffffffffffff1673ffffffffffffffffffffffffffffffffffffffff168152602001908152602001600020839080600181540180825580915050600190039060005260206000200160009091909190915055806002016000848152602001908152602001600020829080600181540180825580915050600190039060005260206000200160009091909190916101000a81548173ffffffffffffffffffffffffffffffffffffffff021916908373ffffffffffffffffffffffffffffffffffffffff160217905550505050565b610d678282611a8c565b610da6576040517f08c379a0000000000000000000000000000000000000000000000000000000008152600401610d9d906126aa565b60405180910390fd5b5050565b600073ffffffffffffffffffffffffffffffffffffffff168173ffffffffffffffffffffffffffffffffffffffff1603610e19576040517f08c379a0000000000000000000000000000000000000000000000000000000008152600401610e109061273c565b60405180910390fd5b610e437f524f4c455f45524332305f4255524e455200000000000000000000000000000082611b02565b8073ffffffffffffffffffffffffffffffffffffffff167f90eabbc0c667db2a5029ed6bc0f5fe9f356d11684a4ca9fcfaec0e53f12b9c8e60405160405180910390a250565b6000610e93610a2a565b9050600073ffffffffffffffffffffffffffffffffffffffff168473ffffffffffffffffffffffffffffffffffffffff1603610f04576040517f08c379a0000000000000000000000000000000000000000000000000000000008152600401610efb906127a8565b60405180910390fd5b600073ffffffffffffffffffffffffffffffffffffffff168373ffffffffffffffffffffffffffffffffffffffff1603610f73576040517f08c379a0000000000000000000000000000000000000000000000000000000008152600401610f6a90612814565b60405180910390fd5b818160030160008673ffffffffffffffffffffffffffffffffffffffff1673ffffffffffffffffffffffffffffffffffffffff16815260200190815260200160002060008573ffffffffffffffffffffffffffffffffffffffff1673ffffffffffffffffffffffffffffffffffffffff168152602001908152602001600020819055508273ffffffffffffffffffffffffffffffffffffffff168473ffffffffffffffffffffffffffffffffffffffff167f8c5be1e5ebec7d5bd14f71427d1e84f3dd0314c0f7b2291e5b200ac8c7c3b9258460405161105391906122da565b60405180910390a350505050565b60008061106c610a2a565b9050806001015491505090565b6000611083610a2a565b9050818160030160008673ffffffffffffffffffffffffffffffffffffffff1673ffffffffffffffffffffffffffffffffffffffff16815260200190815260200160002060006110d1610a57565b73ffffffffffffffffffffffffffffffffffffffff1673ffffffffffffffffffffffffffffffffffffffff16815260200190815260200160002054101561114d576040517f08c379a0000000000000000000000000000000000000000000000000000000008152600401611144906128a6565b60405180910390fd5b818160030160008673ffffffffffffffffffffffffffffffffffffffff1673ffffffffffffffffffffffffffffffffffffffff1681526020019081526020016000206000611199610a57565b73ffffffffffffffffffffffffffffffffffffffff1673ffffffffffffffffffffffffffffffffffffffff16815260200190815260200160002060008282546111e291906128f5565b925050819055506111f4848484611b10565b50505050565b600073ffffffffffffffffffffffffffffffffffffffff168173ffffffffffffffffffffffffffffffffffffffff1603611269576040517f08c379a00000000000000000000000000000000000000000000000000000000081526004016112609061299b565b60405180910390fd5b6112937f524f4c455f45524332305f4d494e54455200000000000000000000000000000082611b02565b8073ffffffffffffffffffffffffffffffffffffffff167fe94479a9f7e1952cc78f2d6baab678adc1b772d936c6583def489e524cb6669260405160405180910390a250565b6000806112e4610a2a565b9050806000015491505090565b6000806112fc610b34565b9050806000015491505090565b6000611313610a2a565b9050600073ffffffffffffffffffffffffffffffffffffffff168373ffffffffffffffffffffffffffffffffffffffff1603611384576040517f08c379a000000000000000000000000000000000000000000000000000000000815260040161137b90612a07565b60405180910390fd5b818160010160008282546113989190612a27565b92505081905550818160020160008573ffffffffffffffffffffffffffffffffffffffff1673ffffffffffffffffffffffffffffffffffffffff16815260200190815260200160002060008282546113f09190612a27565b92505081905550505050565b6000611406610a2a565b9050818160020160008573ffffffffffffffffffffffffffffffffffffffff1673ffffffffffffffffffffffffffffffffffffffff16815260200190815260200160002054101561148c576040517f08c379a000000000000000000000000000000000000000000000000000000000815260040161148390612aa7565b60405180910390fd5b818160020160008573ffffffffffffffffffffffffffffffffffffffff1673ffffffffffffffffffffffffffffffffffffffff16815260200190815260200160002060008282546114dd91906128f5565b92505081905550818160010160008282546114f891906128f5565b92505081905550505050565b60008061150f610a2a565b90508060020160008473ffffffffffffffffffffffffffffffffffffffff1673ffffffffffffffffffffffffffffffffffffffff16815260200190815260200160002054915050919050565b600073ffffffffffffffffffffffffffffffffffffffff168173ffffffffffffffffffffffffffffffffffffffff16036115ca576040517f08c379a00000000000000000000000000000000000000000000000000000000081526004016115c190612b39565b60405180910390fd5b6115f47f524f4c455f45524332305f4d494e545f4255524e5f41444d494e00000000000082611b02565b8073ffffffffffffffffffffffffffffffffffffffff167f2009b929e915aa469d182a2b948c5ff129aed40ec867f0e261558ca92320e5d460405160405180910390a250565b600073ffffffffffffffffffffffffffffffffffffffff168173ffffffffffffffffffffffffffffffffffffffff16036116a9576040517f08c379a00000000000000000000000000000000000000000000000000000000081526004016116a090612bcb565b60405180910390fd5b6116d37f524f4c455f45524332305f4d494e54455200000000000000000000000000000082611ddc565b8073ffffffffffffffffffffffffffffffffffffffff167f6ae172837ea30b801fbfcdd4108aa1d5bf8ff775444fd70256b44e6bf3dfc3f660405160405180910390a250565b6000611723610b34565b90508181600001819055505050565b60008061173d610a2a565b90508060030160008573ffffffffffffffffffffffffffffffffffffffff1673ffffffffffffffffffffffffffffffffffffffff16815260200190815260200160002060008473ffffffffffffffffffffffffffffffffffffffff1673ffffffffffffffffffffffffffffffffffffffff1681526020019081526020016000205491505092915050565b600073ffffffffffffffffffffffffffffffffffffffff168173ffffffffffffffffffffffffffffffffffffffff1603611836576040517f08c379a000000000000000000000000000000000000000000000000000000000815260040161182d90612c5d565b60405180910390fd5b6118607f524f4c455f45524332305f4d494e545f4255524e5f41444d494e00000000000082611ddc565b8073ffffffffffffffffffffffffffffffffffffffff167f196d0b3801089b70ac1efa1ddbf2e14afc59474f1dc07d3b2f4da379d22d0db260405160405180910390a250565b60006118b06109fd565b905060006118bc610a2a565b9050838160010181905550828160000181905550838160020160006118df610a57565b73ffffffffffffffffffffffffffffffffffffffff1673ffffffffffffffffffffffffffffffffffffffff16815260200190815260200160002081905550611925610a57565b73ffffffffffffffffffffffffffffffffffffffff16600073ffffffffffffffffffffffffffffffffffffffff167fddf252ad1be2c89b69c2b068fc378daa952ba7f163c4a11628f55a4df523b3ef8660405161198291906122da565b60405180910390a360018160060160006101000a81548160ff02191690831515021790555050505050565b600073ffffffffffffffffffffffffffffffffffffffff168173ffffffffffffffffffffffffffffffffffffffff1603611a1c576040517f08c379a0000000000000000000000000000000000000000000000000000000008152600401611a1390612cef565b60405180910390fd5b611a467f524f4c455f45524332305f4255524e455200000000000000000000000000000082611ddc565b8073ffffffffffffffffffffffffffffffffffffffff167f86e57fd2b90329052917118de7c3f521f400d439b9650deaa906a25b08b9456060405160405180910390a250565b600080611a976109fd565b905080600001600085815260200190815260200160002060008473ffffffffffffffffffffffffffffffffffffffff1673ffffffffffffffffffffffffffffffffffffffff16815260200190815260200160002060009054906101000a900460ff1691505092915050565b611b0c8282611dea565b5050565b6000611b1a610a2a565b9050600073ffffffffffffffffffffffffffffffffffffffff168473ffffffffffffffffffffffffffffffffffffffff1603611b8b576040517f08c379a0000000000000000000000000000000000000000000000000000000008152600401611b8290612d5b565b60405180910390fd5b600073ffffffffffffffffffffffffffffffffffffffff168373ffffffffffffffffffffffffffffffffffffffff1603611bfa576040517f08c379a0000000000000000000000000000000000000000000000000000000008152600401611bf190612dc7565b60405180910390fd5b60008211611c3d576040517f08c379a0000000000000000000000000000000000000000000000000000000008152600401611c3490612e59565b60405180910390fd5b818160020160008673ffffffffffffffffffffffffffffffffffffffff1673ffffffffffffffffffffffffffffffffffffffff168152602001908152602001600020541015611cc1576040517f08c379a0000000000000000000000000000000000000000000000000000000008152600401611cb890612ec5565b60405180910390fd5b818160020160008673ffffffffffffffffffffffffffffffffffffffff1673ffffffffffffffffffffffffffffffffffffffff1681526020019081526020016000206000828254611d1291906128f5565b92505081905550818160020160008573ffffffffffffffffffffffffffffffffffffffff1673ffffffffffffffffffffffffffffffffffffffff1681526020019081526020016000206000828254611d6a9190612a27565b925050819055508273ffffffffffffffffffffffffffffffffffffffff168473ffffffffffffffffffffffffffffffffffffffff167fddf252ad1be2c89b69c2b068fc378daa952ba7f163c4a11628f55a4df523b3ef84604051611dce91906122da565b60405180910390a350505050565b611de68282610bb9565b5050565b6000611df46109fd565b9050611e008383611a8c565b611e3f576040517f08c379a0000000000000000000000000000000000000000000000000000000008152600401611e36906126aa565b60405180910390fd5b80600001600084815260200190815260200160002060008373ffffffffffffffffffffffffffffffffffffffff1673ffffffffffffffffffffffffffffffffffffffff16815260200190815260200160002060006101000a81549060ff0219169055611eeb8160010160008473ffffffffffffffffffffffffffffffffffffffff1673ffffffffffffffffffffffffffffffffffffffff16815260200190815260200160002084611f0e565b611f0981600201600085815260200190815260200160002083611fec565b505050565b60005b8280549050811015611fe75781838281548110611f3157611f30612ee5565b5b906000526020600020015403611fd45760018380549050611f5291906128f5565b8114611fa8578260018480549050611f6a91906128f5565b81548110611f7b57611f7a612ee5565b5b9060005260206000200154838281548110611f9957611f98612ee5565b5b90600052602060002001819055505b82805480611fb957611fb8612f14565b5b60019003818190600052602060002001600090559055611fe7565b8080611fdf90612f43565b915050611f11565b505050565b60005b828054905081101561218a578173ffffffffffffffffffffffffffffffffffffffff1683828154811061202557612024612ee5565b5b9060005260206000200160009054906101000a900473ffffffffffffffffffffffffffffffffffffffff1673ffffffffffffffffffffffffffffffffffffffff1603612177576001838054905061207c91906128f5565b811461212c57826001848054905061209491906128f5565b815481106120a5576120a4612ee5565b5b9060005260206000200160009054906101000a900473ffffffffffffffffffffffffffffffffffffffff168382815481106120e3576120e2612ee5565b5b9060005260206000200160006101000a81548173ffffffffffffffffffffffffffffffffffffffff021916908373ffffffffffffffffffffffffffffffffffffffff1602179055505b8280548061213d5761213c612f14565b5b6001900381819060005260206000200160006101000a81549073ffffffffffffffffffffffffffffffffffffffff0219169055905561218a565b808061218290612f43565b915050611fef565b505050565b600080fd5b600073ffffffffffffffffffffffffffffffffffffffff82169050919050565b60006121bf82612194565b9050919050565b6121cf816121b4565b81146121da57600080fd5b50565b6000813590506121ec816121c6565b92915050565b6000602082840312156122085761220761218f565b5b6000612216848285016121dd565b91505092915050565b6000819050919050565b6122328161221f565b811461223d57600080fd5b50565b60008135905061224f81612229565b92915050565b6000806040838503121561226c5761226b61218f565b5b600061227a858286016121dd565b925050602061228b85828601612240565b9150509250929050565b60008115159050919050565b6122aa81612295565b82525050565b60006020820190506122c560008301846122a1565b92915050565b6122d48161221f565b82525050565b60006020820190506122ef60008301846122cb565b92915050565b60008060006060848603121561230e5761230d61218f565b5b600061231c868287016121dd565b935050602061232d868287016121dd565b925050604061233e86828701612240565b9150509250925092565b600060ff82169050919050565b61235e81612348565b82525050565b60006020820190506123796000830184612355565b92915050565b6000602082840312156123955761239461218f565b5b60006123a384828501612240565b91505092915050565b600080604083850312156123c3576123c261218f565b5b60006123d1858286016121dd565b92505060206123e2858286016121dd565b9150509250929050565b600080604083850312156124035761240261218f565b5b600061241185828601612240565b925050602061242285828601612240565b9150509250929050565b600082825260208201905092915050565b7f4e4f5420494e495449414c495a45440000000000000000000000000000000000600082015250565b6000612473600f8361242c565b915061247e8261243d565b602082019050919050565b600060208201905081810360008301526124a281612466565b9050919050565b6124b2816121b4565b82525050565b60006040820190506124cd60008301856124a9565b6124da60208301846122cb565b9392505050565b6124ea81612295565b81146124f557600080fd5b50565b600081519050612507816124e1565b92915050565b6000602082840312156125235761252261218f565b5b6000612531848285016124f8565b91505092915050565b7f414c524541445920494e495449414c495a454400000000000000000000000000600082015250565b600061257060138361242c565b915061257b8261253a565b602082019050919050565b6000602082019050818103600083015261259f81612563565b9050919050565b7f416363657373436f6e74726f6c3a206163636f756e7420616c7265616479206860008201527f617320726f6c6500000000000000000000000000000000000000000000000000602082015250565b600061260260278361242c565b915061260d826125a6565b604082019050919050565b60006020820190508181036000830152612631816125f5565b9050919050565b7f416363657373436f6e74726f6c3a206163636f756e7420646f6573206e6f742060008201527f6861766520726f6c650000000000000000000000000000000000000000000000602082015250565b600061269460298361242c565b915061269f82612638565b604082019050919050565b600060208201905081810360008301526126c381612687565b9050919050565b7f43616e6e6f742072656d6f7665206275726e65722066726f6d20746865207a6560008201527f726f206164647265737300000000000000000000000000000000000000000000602082015250565b6000612726602a8361242c565b9150612731826126ca565b604082019050919050565b6000602082019050818103600083015261275581612719565b9050919050565b7f617070726f76652066726f6d20746865207a65726f2061646472657373000000600082015250565b6000612792601d8361242c565b915061279d8261275c565b602082019050919050565b600060208201905081810360008301526127c181612785565b9050919050565b7f617070726f766520746f20746865207a65726f20616464726573730000000000600082015250565b60006127fe601b8361242c565b9150612809826127c8565b602082019050919050565b6000602082019050818103600083015261282d816127f1565b9050919050565b7f7472616e7366657220616d6f756e74206578636565647320616c6c6f77616e6360008201527f6500000000000000000000000000000000000000000000000000000000000000602082015250565b600061289060218361242c565b915061289b82612834565b604082019050919050565b600060208201905081810360008301526128bf81612883565b9050919050565b7f4e487b7100000000000000000000000000000000000000000000000000000000600052601160045260246000fd5b60006129008261221f565b915061290b8361221f565b9250828203905081811115612923576129226128c6565b5b92915050565b7f43616e6e6f742072656d6f7665206d696e7465722066726f6d20746865207a6560008201527f726f206164647265737300000000000000000000000000000000000000000000602082015250565b6000612985602a8361242c565b915061299082612929565b604082019050919050565b600060208201905081810360008301526129b481612978565b9050919050565b7f6d696e7420746f20746865207a65726f20616464726573730000000000000000600082015250565b60006129f160188361242c565b91506129fc826129bb565b602082019050919050565b60006020820190508181036000830152612a20816129e4565b9050919050565b6000612a328261221f565b9150612a3d8361221f565b9250828201905080821115612a5557612a546128c6565b5b92915050565b7f6275726e20616d6f756e7420657863656564732062616c616e63650000000000600082015250565b6000612a91601b8361242c565b9150612a9c82612a5b565b602082019050919050565b60006020820190508181036000830152612ac081612a84565b9050919050565b7f43616e6e6f742072656d6f7665206d696e742d6275726e2061646d696e20667260008201527f6f6d20746865207a65726f206164647265737300000000000000000000000000602082015250565b6000612b2360338361242c565b9150612b2e82612ac7565b604082019050919050565b60006020820190508181036000830152612b5281612b16565b9050919050565b7f43616e6e6f7420616464206d696e74657220746f20746865207a65726f20616460008201527f6472657373000000000000000000000000000000000000000000000000000000602082015250565b6000612bb560258361242c565b9150612bc082612b59565b604082019050919050565b60006020820190508181036000830152612be481612ba8565b9050919050565b7f43616e6e6f7420616464206d696e742d6275726e2061646d696e20746f20746860008201527f65207a65726f2061646472657373000000000000000000000000000000000000602082015250565b6000612c47602e8361242c565b9150612c5282612beb565b604082019050919050565b60006020820190508181036000830152612c7681612c3a565b9050919050565b7f43616e6e6f7420616464206275726e657220746f20746865207a65726f20616460008201527f6472657373000000000000000000000000000000000000000000000000000000602082015250565b6000612cd960258361242c565b9150612ce482612c7d565b604082019050919050565b60006020820190508181036000830152612d0881612ccc565b9050919050565b7f7472616e736665722066726f6d20746865207a65726f20616464726573730000600082015250565b6000612d45601e8361242c565b9150612d5082612d0f565b602082019050919050565b60006020820190508181036000830152612d7481612d38565b9050919050565b7f7472616e7366657220746f20746865207a65726f206164647265737300000000600082015250565b6000612db1601c8361242c565b9150612dbc82612d7b565b602082019050919050565b60006020820190508181036000830152612de081612da4565b9050919050565b7f7472616e736665722076616c7565206d7573742062652067726561746572207460008201527f68616e207a65726f000000000000000000000000000000000000000000000000602082015250565b6000612e4360288361242c565b9150612e4e82612de7565b604082019050919050565b60006020820190508181036000830152612e7281612e36565b9050919050565b7f7472616e7366657220616d6f756e7420657863656564732062616c616e636500600082015250565b6000612eaf601f8361242c565b9150612eba82612e79565b602082019050919050565b60006020820190508181036000830152612ede81612ea2565b9050919050565b7f4e487b7100000000000000000000000000000000000000000000000000000000600052603260045260246000fd5b7f4e487b7100000000000000000000000000000000000000000000000000000000600052603160045260246000fd5b6000612f4e8261221f565b91507fffffffffffffffffffffffffffffffffffffffffffffffffffffffffffffffff8203612f8057612f7f6128c6565b5b60018201905091905056fea26469706673582212208ecbe580cd34629437ec3cbfb3d2706b1cf17f2a96c2f5b7426bbcf3d747d4ca64736f6c63430008120033",
  "linkReferences": {},
  "deployedLinkReferences": {}
}