{
  "_format": "hh-sol-artifact-1",
  "contractName": "ERC1155Base",
  "sourceName": "contracts/shared/facets/ERC1155/base/ERC1155Base.sol",
  "abi": [
    {
      "anonymous": false,
      "inputs": [
        {
          "indexed": true,
          "internalType": "address",
          "name": "owner",
          "type": "address"
        },
        {
          "indexed": true,
          "internalType": "address",
          "name": "operator",
          "type": "address"
        },
        {
          "indexed": false,
          "internalType": "bool",
          "name": "approved",
          "type": "bool"
        }
      ],
      "name": "ApprovalForAll",
      "type": "event"
    },
    {
      "anonymous": false,
      "inputs": [
        {
          "indexed": true,
          "internalType": "address",
          "name": "operator",
          "type": "address"
        },
        {
          "indexed": true,
          "internalType": "address",
          "name": "from",
          "type": "address"
        },
        {
          "indexed": true,
          "internalType": "address",
          "name": "to",
          "type": "address"
        },
        {
          "indexed": false,
          "internalType": "uint256[]",
          "name": "ids",
          "type": "uint256[]"
        },
        {
          "indexed": false,
          "internalType": "uint256[]",
          "name": "values",
          "type": "uint256[]"
        }
      ],
      "name": "TransferBatch",
      "type": "event"
    },
    {
      "anonymous": false,
      "inputs": [
        {
          "indexed": true,
          "internalType": "address",
          "name": "operator",
          "type": "address"
        },
        {
          "indexed": true,
          "internalType": "address",
          "name": "from",
          "type": "address"
        },
        {
          "indexed": true,
          "internalType": "address",
          "name": "to",
          "type": "address"
        },
        {
          "indexed": false,
          "internalType": "uint256",
          "name": "id",
          "type": "uint256"
        },
        {
          "indexed": false,
          "internalType": "uint256",
          "name": "value",
          "type": "uint256"
        }
      ],
      "name": "TransferSingle",
      "type": "event"
    },
    {
      "anonymous": false,
      "inputs": [
        {
          "indexed": false,
          "internalType": "string",
          "name": "value",
          "type": "string"
        },
        {
          "indexed": true,
          "internalType": "uint256",
          "name": "id",
          "type": "uint256"
        }
      ],
      "name": "URI",
      "type": "event"
    },
    {
      "inputs": [
        {
          "internalType": "address",
          "name": "_owner",
          "type": "address"
        },
        {
          "internalType": "uint256",
          "name": "_id",
          "type": "uint256"
        }
      ],
      "name": "balanceOf",
      "outputs": [
        {
          "internalType": "uint256",
          "name": "",
          "type": "uint256"
        }
      ],
      "stateMutability": "view",
      "type": "function"
    },
    {
      "inputs": [
        {
          "internalType": "address[]",
          "name": "_owners",
          "type": "address[]"
        },
        {
          "internalType": "uint256[]",
          "name": "_ids",
          "type": "uint256[]"
        }
      ],
      "name": "balanceOfBatch",
      "outputs": [
        {
          "internalType": "uint256[]",
          "name": "",
          "type": "uint256[]"
        }
      ],
      "stateMutability": "view",
      "type": "function"
    },
    {
      "inputs": [
        {
          "internalType": "address",
          "name": "_owner",
          "type": "address"
        },
        {
          "internalType": "address",
          "name": "_operator",
          "type": "address"
        }
      ],
      "name": "isApprovedForAll",
      "outputs": [
        {
          "internalType": "bool",
          "name": "",
          "type": "bool"
        }
      ],
      "stateMutability": "view",
      "type": "function"
    },
    {
      "inputs": [
        {
          "internalType": "address",
          "name": "_from",
          "type": "address"
        },
        {
          "internalType": "address",
          "name": "_to",
          "type": "address"
        },
        {
          "internalType": "uint256[]",
          "name": "_ids",
          "type": "uint256[]"
        },
        {
          "internalType": "uint256[]",
          "name": "_values",
          "type": "uint256[]"
        }
      ],
      "name": "safeBatchTransferFrom",
      "outputs": [],
      "stateMutability": "nonpayable",
      "type": "function"
    },
    {
      "inputs": [
        {
          "internalType": "address",
          "name": "_from",
          "type": "address"
        },
        {
          "internalType": "address",
          "name": "_to",
          "type": "address"
        },
        {
          "internalType": "uint256",
          "name": "_id",
          "type": "uint256"
        },
        {
          "internalType": "uint256",
          "name": "_value",
          "type": "uint256"
        }
      ],
      "name": "safeTransferFrom",
      "outputs": [],
      "stateMutability": "nonpayable",
      "type": "function"
    },
    {
      "inputs": [
        {
          "internalType": "address",
          "name": "_operator",
          "type": "address"
        },
        {
          "internalType": "bool",
          "name": "_approved",
          "type": "bool"
        }
      ],
      "name": "setApprovalForAll",
      "outputs": [],
      "stateMutability": "nonpayable",
      "type": "function"
    },
    {
      "inputs": [
        {
          "internalType": "uint256",
          "name": "_id",
          "type": "uint256"
        }
      ],
      "name": "uri",
      "outputs": [
        {
          "internalType": "string",
          "name": "",
          "type": "string"
        }
      ],
      "stateMutability": "view",
      "type": "function"
    }
  ],
  "bytecode": "0x608060405234801561001057600080fd5b50611881806100206000396000f3fe608060405234801561001057600080fd5b506004361061007c5760003560e01c80634e1273f41161005b5780634e1273f4146100fd578063a22cb4651461012d578063e985e9c514610149578063fba0ee64146101795761007c565b8062fdd58e146100815780630e89341c146100b15780630febdd49146100e1575b600080fd5b61009b60048036038101906100969190610dc1565b610195565b6040516100a89190610e10565b60405180910390f35b6100cb60048036038101906100c69190610e2b565b6101a9565b6040516100d89190610ee8565b60405180910390f35b6100fb60048036038101906100f69190610f0a565b6101bb565b005b6101176004803603810190610112919061117c565b6101cd565b60405161012491906112b2565b60405180910390f35b6101476004803603810190610142919061130c565b6101e1565b005b610163600480360381019061015e919061134c565b6101ef565b604051610170919061139b565b60405180910390f35b610193600480360381019061018e91906113b6565b610203565b005b60006101a18383610215565b905092915050565b60606101b482610279565b9050919050565b6101c7848484846102d3565b50505050565b60606101d983836104a6565b905092915050565b6101eb8282610611565b5050565b60006101fb8383610717565b905092915050565b61020f848484846107b4565b50505050565b600061021f610a53565b60000160008473ffffffffffffffffffffffffffffffffffffffff1673ffffffffffffffffffffffffffffffffffffffff168152602001908152602001600020600083815260200190815260200160002054905092915050565b606061028482610a62565b6102c3576040517f08c379a00000000000000000000000000000000000000000000000000000000081526004016102ba906114a1565b60405180910390fd5b6102cc82610b33565b9050919050565b600073ffffffffffffffffffffffffffffffffffffffff168373ffffffffffffffffffffffffffffffffffffffff1603610342576040517f08c379a00000000000000000000000000000000000000000000000000000000081526004016103399061150d565b60405180910390fd5b8061034b610a53565b60000160008673ffffffffffffffffffffffffffffffffffffffff1673ffffffffffffffffffffffffffffffffffffffff168152602001908152602001600020600084815260200190815260200160002060008282546103ab919061155c565b92505081905550806103bb610a53565b60000160008573ffffffffffffffffffffffffffffffffffffffff1673ffffffffffffffffffffffffffffffffffffffff1681526020019081526020016000206000848152602001908152602001600020600082825461041b9190611590565b925050819055508273ffffffffffffffffffffffffffffffffffffffff168473ffffffffffffffffffffffffffffffffffffffff163373ffffffffffffffffffffffffffffffffffffffff167fc3d58168c5ae7397731d063d5bbf3d657854427343f4c083240f7aacaa2d0f6285856040516104989291906115c4565b60405180910390a450505050565b606081518351146104ec576040517f08c379a00000000000000000000000000000000000000000000000000000000081526004016104e390611639565b60405180910390fd5b6000835167ffffffffffffffff81111561050957610508610f76565b5b6040519080825280602002602001820160405280156105375781602001602082028036833780820191505090505b50905060005b84518110156106065761054e610a53565b600001600086838151811061056657610565611659565b5b602002602001015173ffffffffffffffffffffffffffffffffffffffff1673ffffffffffffffffffffffffffffffffffffffff16815260200190815260200160002060008583815181106105bd576105bc611659565b5b60200260200101518152602001908152602001600020548282815181106105e7576105e6611659565b5b60200260200101818152505080806105fe90611688565b91505061053d565b508091505092915050565b8061061a610a53565b60010160003373ffffffffffffffffffffffffffffffffffffffff1673ffffffffffffffffffffffffffffffffffffffff16815260200190815260200160002060008473ffffffffffffffffffffffffffffffffffffffff1673ffffffffffffffffffffffffffffffffffffffff16815260200190815260200160002060006101000a81548160ff0219169083151502179055508173ffffffffffffffffffffffffffffffffffffffff163373ffffffffffffffffffffffffffffffffffffffff167f17307eab39ab6107e8899845ad3d59bd9653f200f220920489ca2b5937696c318360405161070b919061139b565b60405180910390a35050565b6000610721610a53565b60010160008473ffffffffffffffffffffffffffffffffffffffff1673ffffffffffffffffffffffffffffffffffffffff16815260200190815260200160002060008373ffffffffffffffffffffffffffffffffffffffff1673ffffffffffffffffffffffffffffffffffffffff16815260200190815260200160002060009054906101000a900460ff16905092915050565b600073ffffffffffffffffffffffffffffffffffffffff168373ffffffffffffffffffffffffffffffffffffffff1603610823576040517f08c379a000000000000000000000000000000000000000000000000000000000815260040161081a9061150d565b60405180910390fd5b8051825114610867576040517f08c379a000000000000000000000000000000000000000000000000000000000815260040161085e90611639565b60405180910390fd5b60005b82518110156109ce5781818151811061088657610885611659565b5b6020026020010151610896610a53565b60000160008773ffffffffffffffffffffffffffffffffffffffff1673ffffffffffffffffffffffffffffffffffffffff16815260200190815260200160002060008584815181106108eb576108ea611659565b5b602002602001015181526020019081526020016000206000828254610910919061155c565b9250508190555081818151811061092a57610929611659565b5b602002602001015161093a610a53565b60000160008673ffffffffffffffffffffffffffffffffffffffff1673ffffffffffffffffffffffffffffffffffffffff168152602001908152602001600020600085848151811061098f5761098e611659565b5b6020026020010151815260200190815260200160002060008282546109b49190611590565b9250508190555080806109c690611688565b91505061086a565b508273ffffffffffffffffffffffffffffffffffffffff168473ffffffffffffffffffffffffffffffffffffffff163373ffffffffffffffffffffffffffffffffffffffff167f4a39dc06d4c0dbc64b70af90fd698a233a518aa5d07e595d983b8c0526c8f7fb8585604051610a459291906116d0565b60405180910390a450505050565b6000610a5d610c93565b905090565b60008082118015610b2c5750610b2b610a79610a53565b60020160008481526020019081526020016000208054610a9890611736565b80601f0160208091040260200160405190810160405280929190818152602001828054610ac490611736565b8015610b115780601f10610ae657610100808354040283529160200191610b11565b820191906000526020600020905b815481529060010190602001808311610af457829003601f168201915b505050505060405180602001604052806000815250610cc0565b5b9050919050565b606060008203610b7a576040518060400160405280600181526020017f30000000000000000000000000000000000000000000000000000000000000008152509050610c8e565b600082905060005b60008214610bac578080610b9590611688565b915050600a82610ba59190611796565b9150610b82565b60008167ffffffffffffffff811115610bc857610bc7610f76565b5b6040519080825280601f01601f191660200182016040528015610bfa5781602001600182028036833780820191505090505b5090505b60008514610c8757600182610c13919061155c565b9150600a85610c2291906117c7565b6030610c2e9190611590565b60f81b818381518110610c4457610c43611659565b5b60200101907effffffffffffffffffffffffffffffffffffffffffffffffffffffffffffff1916908160001a905350600a85610c809190611796565b9450610bfe565b8093505050505b919050565b6000807f0bb06319fe9f54e2607d55a14a4a9f601c7f9262ad0aba1b29fb8e9eebeeb16590508091505090565b600081604051602001610cd39190611834565b6040516020818303038152906040528051906020012083604051602001610cfa9190611834565b6040516020818303038152906040528051906020012014905092915050565b6000604051905090565b600080fd5b600080fd5b600073ffffffffffffffffffffffffffffffffffffffff82169050919050565b6000610d5882610d2d565b9050919050565b610d6881610d4d565b8114610d7357600080fd5b50565b600081359050610d8581610d5f565b92915050565b6000819050919050565b610d9e81610d8b565b8114610da957600080fd5b50565b600081359050610dbb81610d95565b92915050565b60008060408385031215610dd857610dd7610d23565b5b6000610de685828601610d76565b9250506020610df785828601610dac565b9150509250929050565b610e0a81610d8b565b82525050565b6000602082019050610e256000830184610e01565b92915050565b600060208284031215610e4157610e40610d23565b5b6000610e4f84828501610dac565b91505092915050565b600081519050919050565b600082825260208201905092915050565b60005b83811015610e92578082015181840152602081019050610e77565b60008484015250505050565b6000601f19601f8301169050919050565b6000610eba82610e58565b610ec48185610e63565b9350610ed4818560208601610e74565b610edd81610e9e565b840191505092915050565b60006020820190508181036000830152610f028184610eaf565b905092915050565b60008060008060808587031215610f2457610f23610d23565b5b6000610f3287828801610d76565b9450506020610f4387828801610d76565b9350506040610f5487828801610dac565b9250506060610f6587828801610dac565b91505092959194509250565b600080fd5b7f4e487b7100000000000000000000000000000000000000000000000000000000600052604160045260246000fd5b610fae82610e9e565b810181811067ffffffffffffffff82111715610fcd57610fcc610f76565b5b80604052505050565b6000610fe0610d19565b9050610fec8282610fa5565b919050565b600067ffffffffffffffff82111561100c5761100b610f76565b5b602082029050602081019050919050565b600080fd5b600061103561103084610ff1565b610fd6565b905080838252602082019050602084028301858111156110585761105761101d565b5b835b81811015611081578061106d8882610d76565b84526020840193505060208101905061105a565b5050509392505050565b600082601f8301126110a05761109f610f71565b5b81356110b0848260208601611022565b91505092915050565b600067ffffffffffffffff8211156110d4576110d3610f76565b5b602082029050602081019050919050565b60006110f86110f3846110b9565b610fd6565b9050808382526020820190506020840283018581111561111b5761111a61101d565b5b835b8181101561114457806111308882610dac565b84526020840193505060208101905061111d565b5050509392505050565b600082601f83011261116357611162610f71565b5b81356111738482602086016110e5565b91505092915050565b6000806040838503121561119357611192610d23565b5b600083013567ffffffffffffffff8111156111b1576111b0610d28565b5b6111bd8582860161108b565b925050602083013567ffffffffffffffff8111156111de576111dd610d28565b5b6111ea8582860161114e565b9150509250929050565b600081519050919050565b600082825260208201905092915050565b6000819050602082019050919050565b61122981610d8b565b82525050565b600061123b8383611220565b60208301905092915050565b6000602082019050919050565b600061125f826111f4565b61126981856111ff565b935061127483611210565b8060005b838110156112a557815161128c888261122f565b975061129783611247565b925050600181019050611278565b5085935050505092915050565b600060208201905081810360008301526112cc8184611254565b905092915050565b60008115159050919050565b6112e9816112d4565b81146112f457600080fd5b50565b600081359050611306816112e0565b92915050565b6000806040838503121561132357611322610d23565b5b600061133185828601610d76565b9250506020611342858286016112f7565b9150509250929050565b6000806040838503121561136357611362610d23565b5b600061137185828601610d76565b925050602061138285828601610d76565b9150509250929050565b611395816112d4565b82525050565b60006020820190506113b0600083018461138c565b92915050565b600080600080608085870312156113d0576113cf610d23565b5b60006113de87828801610d76565b94505060206113ef87828801610d76565b935050604085013567ffffffffffffffff8111156114105761140f610d28565b5b61141c8782880161114e565b925050606085013567ffffffffffffffff81111561143d5761143c610d28565b5b6114498782880161114e565b91505092959194509250565b7f546f6b656e20646f6573206e6f74206578697374000000000000000000000000600082015250565b600061148b601483610e63565b915061149682611455565b602082019050919050565b600060208201905081810360008301526114ba8161147e565b9050919050565b7f496e76616c696420726563697069656e74206164647265737300000000000000600082015250565b60006114f7601983610e63565b9150611502826114c1565b602082019050919050565b60006020820190508181036000830152611526816114ea565b9050919050565b7f4e487b7100000000000000000000000000000000000000000000000000000000600052601160045260246000fd5b600061156782610d8b565b915061157283610d8b565b925082820390508181111561158a5761158961152d565b5b92915050565b600061159b82610d8b565b91506115a683610d8b565b92508282019050808211156115be576115bd61152d565b5b92915050565b60006040820190506115d96000830185610e01565b6115e66020830184610e01565b9392505050565b7f4172726179206c656e67746873206d757374206d617463680000000000000000600082015250565b6000611623601883610e63565b915061162e826115ed565b602082019050919050565b6000602082019050818103600083015261165281611616565b9050919050565b7f4e487b7100000000000000000000000000000000000000000000000000000000600052603260045260246000fd5b600061169382610d8b565b91507fffffffffffffffffffffffffffffffffffffffffffffffffffffffffffffffff82036116c5576116c461152d565b5b600182019050919050565b600060408201905081810360008301526116ea8185611254565b905081810360208301526116fe8184611254565b90509392505050565b7f4e487b7100000000000000000000000000000000000000000000000000000000600052602260045260246000fd5b6000600282049050600182168061174e57607f821691505b60208210810361176157611760611707565b5b50919050565b7f4e487b7100000000000000000000000000000000000000000000000000000000600052601260045260246000fd5b60006117a182610d8b565b91506117ac83610d8b565b9250826117bc576117bb611767565b5b828204905092915050565b60006117d282610d8b565b91506117dd83610d8b565b9250826117ed576117ec611767565b5b828206905092915050565b600081905092915050565b600061180e82610e58565b61181881856117f8565b9350611828818560208601610e74565b80840191505092915050565b60006118408284611803565b91508190509291505056fea26469706673582212209c1f2e3c301709a683a2180e0cb1fcae44ccfffdea71c16fe5a0bf9e85f46abd64736f6c63430008120033",
  "linkReferences": {},
  "deployedLinkReferences": {}
}