{
  "_format": "hh-sol-artifact-1",
  "contractName": "DocumentRegistry",
  "sourceName": "contracts/shared/facets/DocumentRegistry/DocumentRegistry.sol",
  "abi": [
    {
      "anonymous": false,
      "inputs": [
        {
          "indexed": false,
          "internalType": "uint256",
          "name": "docId",
          "type": "uint256"
        },
        {
          "indexed": false,
          "internalType": "string",
          "name": "name",
          "type": "string"
        },
        {
          "indexed": false,
          "internalType": "uint256",
          "name": "docType",
          "type": "uint256"
        },
        {
          "indexed": false,
          "internalType": "uint256",
          "name": "datetimePublished",
          "type": "uint256"
        },
        {
          "indexed": false,
          "internalType": "bytes",
          "name": "contentHash",
          "type": "bytes"
        },
        {
          "indexed": false,
          "internalType": "string",
          "name": "url",
          "type": "string"
        }
      ],
      "name": "DocumentAdded",
      "type": "event"
    },
    {
      "anonymous": false,
      "inputs": [
        {
          "indexed": false,
          "internalType": "uint256",
          "name": "docId",
          "type": "uint256"
        }
      ],
      "name": "DocumentRemoved",
      "type": "event"
    },
    {
      "anonymous": false,
      "inputs": [
        {
          "indexed": true,
          "internalType": "uint256",
          "name": "totalDocTypes",
          "type": "uint256"
        },
        {
          "indexed": true,
          "internalType": "string",
          "name": "_type",
          "type": "string"
        }
      ],
      "name": "DocumentTypeAdded",
      "type": "event"
    },
    {
      "anonymous": false,
      "inputs": [
        {
          "indexed": false,
          "internalType": "uint256",
          "name": "docId",
          "type": "uint256"
        },
        {
          "indexed": false,
          "internalType": "string",
          "name": "name",
          "type": "string"
        },
        {
          "indexed": false,
          "internalType": "uint256",
          "name": "docType",
          "type": "uint256"
        },
        {
          "indexed": false,
          "internalType": "uint256",
          "name": "datetimePublished",
          "type": "uint256"
        },
        {
          "indexed": false,
          "internalType": "bytes",
          "name": "contentHash",
          "type": "bytes"
        },
        {
          "indexed": false,
          "internalType": "string",
          "name": "url",
          "type": "string"
        }
      ],
      "name": "DocumentUpdated",
      "type": "event"
    },
    {
      "inputs": [
        {
          "internalType": "string",
          "name": "_type",
          "type": "string"
        }
      ],
      "name": "addDocType",
      "outputs": [],
      "stateMutability": "nonpayable",
      "type": "function"
    },
    {
      "inputs": [
        {
          "internalType": "string",
          "name": "name",
          "type": "string"
        },
        {
          "internalType": "uint256",
          "name": "docType",
          "type": "uint256"
        },
        {
          "internalType": "uint256",
          "name": "datetimePublished",
          "type": "uint256"
        },
        {
          "internalType": "bytes",
          "name": "contentHash",
          "type": "bytes"
        },
        {
          "internalType": "string",
          "name": "url",
          "type": "string"
        }
      ],
      "name": "addDocument",
      "outputs": [
        {
          "internalType": "uint256",
          "name": "docId",
          "type": "uint256"
        }
      ],
      "stateMutability": "nonpayable",
      "type": "function"
    },
    {
      "inputs": [
        {
          "internalType": "uint256",
          "name": "docId",
          "type": "uint256"
        }
      ],
      "name": "documents",
      "outputs": [
        {
          "internalType": "string",
          "name": "name",
          "type": "string"
        },
        {
          "internalType": "uint256",
          "name": "docType",
          "type": "uint256"
        },
        {
          "internalType": "uint256",
          "name": "datetimePublished",
          "type": "uint256"
        },
        {
          "internalType": "bytes",
          "name": "contentHash",
          "type": "bytes"
        },
        {
          "internalType": "string",
          "name": "url",
          "type": "string"
        }
      ],
      "stateMutability": "view",
      "type": "function"
    },
    {
      "inputs": [
        {
          "internalType": "uint256",
          "name": "_id",
          "type": "uint256"
        }
      ],
      "name": "getDocTypeById",
      "outputs": [
        {
          "internalType": "string",
          "name": "name",
          "type": "string"
        }
      ],
      "stateMutability": "view",
      "type": "function"
    },
    {
      "inputs": [
        {
          "internalType": "string",
          "name": "_type",
          "type": "string"
        }
      ],
      "name": "getDocTypeByName",
      "outputs": [
        {
          "internalType": "uint256",
          "name": "docTypeId",
          "type": "uint256"
        }
      ],
      "stateMutability": "view",
      "type": "function"
    },
    {
      "inputs": [
        {
          "internalType": "string",
          "name": "_type",
          "type": "string"
        }
      ],
      "name": "hasDocType",
      "outputs": [
        {
          "internalType": "bool",
          "name": "hasType",
          "type": "bool"
        }
      ],
      "stateMutability": "view",
      "type": "function"
    },
    {
      "inputs": [],
      "name": "totalDocuments",
      "outputs": [
        {
          "internalType": "uint256",
          "name": "totalDocs",
          "type": "uint256"
        }
      ],
      "stateMutability": "view",
      "type": "function"
    },
    {
      "inputs": [
        {
          "internalType": "uint256",
          "name": "docId",
          "type": "uint256"
        },
        {
          "internalType": "string",
          "name": "name",
          "type": "string"
        },
        {
          "internalType": "uint256",
          "name": "docType",
          "type": "uint256"
        },
        {
          "internalType": "uint256",
          "name": "datetimePublished",
          "type": "uint256"
        },
        {
          "internalType": "bytes",
          "name": "contentHash",
          "type": "bytes"
        },
        {
          "internalType": "string",
          "name": "url",
          "type": "string"
        }
      ],
      "name": "updateDocument",
      "outputs": [],
      "stateMutability": "nonpayable",
      "type": "function"
    }
  ],
  "bytecode": "0x608060405234801561001057600080fd5b50611689806100206000396000f3fe608060405234801561001057600080fd5b50600436106100885760003560e01c8063553181ec1161005b578063553181ec14610125578063c2ed2b0514610143578063df2fa4d514610177578063fa21238f146101a757610088565b8063013e53b21461008d57806308bb4d93146100bd57806346362c90146100ed578063482763aa14610109575b600080fd5b6100a760048036038101906100a29190610b75565b6101d7565b6040516100b49190610bd9565b60405180910390f35b6100d760048036038101906100d29190610c2a565b6101e9565b6040516100e49190610cd6565b60405180910390f35b61010760048036038101906101029190610d99565b6101fb565b005b610123600480360381019061011e9190610b75565b610211565b005b61012d61021e565b60405161013a9190610e89565b60405180910390f35b61015d60048036038101906101589190610c2a565b61022d565b60405161016e959493929190610ef9565b60405180910390f35b610191600480360381019061018c9190610b75565b610251565b60405161019e9190610e89565b60405180910390f35b6101c160048036038101906101bc9190610f61565b610263565b6040516101ce9190610e89565b60405180910390f35b60006101e28261027d565b9050919050565b60606101f4826102a5565b9050919050565b610209868686868686610359565b505050505050565b61021a81610457565b5050565b6000610228610543565b905090565b606060008060608061023e8661055b565b9450945094509450945091939590929450565b600061025c82610794565b9050919050565b60006102728686868686610887565b905095945050505050565b60008061028983610794565b905061029d83610298836102a5565b610995565b915050919050565b606060006102b16109ee565b905080600201600084815260200190815260200160002080546102d39061105f565b80601f01602080910402602001604051908101604052809291908181526020018280546102ff9061105f565b801561034c5780601f106103215761010080835404028352916020019161034c565b820191906000526020600020905b81548152906001019060200180831161032f57829003601f168201915b5050505050915050919050565b60006103636109ee565b9050806001015487106103ab576040517f08c379a00000000000000000000000000000000000000000000000000000000081526004016103a2906110dc565b60405180910390fd5b60008160000160008981526020019081526020016000209050868160000190816103d591906112a8565b50858160010181905550848160020181905550838160030190816103f991906113d5565b508281600401908161040b91906112a8565b507f1b51e5bc33df2ef57511bda1b77ecc484c8b421f3c792971e1ca31f39325fa0f888888888888604051610445969594939291906114a7565b60405180910390a15050505050505050565b60006104628261027d565b156104a2576040517f08c379a000000000000000000000000000000000000000000000000000000000815260040161049990611569565b60405180910390fd5b60006104ac6109ee565b90508060030160008154809291906104c3906115b8565b9190505550828160020160008360030154815260200190815260200160002090816104ee91906112a8565b508060030154915082604051610504919061163c565b604051809103902081600301547f5dde20650994f4f4254a8c3c18354fee65ba84f3c66f59b64a8f68b5dca5c0df60405160405180910390a350919050565b60008061054e6109ee565b9050806001015491505090565b6060600080606080600061056d6109ee565b9050806001015487106105b5576040517f08c379a00000000000000000000000000000000000000000000000000000000081526004016105ac906110dc565b60405180910390fd5b600081600001600089815260200190815260200160002090508060000180546105dd9061105f565b80601f01602080910402602001604051908101604052809291908181526020018280546106099061105f565b80156106565780601f1061062b57610100808354040283529160200191610656565b820191906000526020600020905b81548152906001019060200180831161063957829003601f168201915b50505050509650806001015495508060020154945080600301805461067a9061105f565b80601f01602080910402602001604051908101604052809291908181526020018280546106a69061105f565b80156106f35780601f106106c8576101008083540402835291602001916106f3565b820191906000526020600020905b8154815290600101906020018083116106d657829003601f168201915b505050505093508060040180546107099061105f565b80601f01602080910402602001604051908101604052809291908181526020018280546107359061105f565b80156107825780601f1061075757610100808354040283529160200191610782565b820191906000526020600020905b81548152906001019060200180831161076557829003601f168201915b50505050509250505091939590929450565b60008061079f6109ee565b90506000816003015490506000600190505b81811161087f5761085f83600201600083815260200190815260200160002080546107db9061105f565b80601f01602080910402602001604051908101604052809291908181526020018280546108079061105f565b80156108545780601f1061082957610100808354040283529160200191610854565b820191906000526020600020905b81548152906001019060200180831161083757829003601f168201915b505050505086610995565b1561086c5780935061087f565b8080610877906115b8565b9150506107b1565b505050919050565b6000806108926109ee565b9050806001015491506040518060a001604052808881526020018781526020018681526020018581526020018481525081600001600084815260200190815260200160002060008201518160000190816108ec91906112a8565b506020820151816001015560408201518160020155606082015181600301908161091691906113d5565b50608082015181600401908161092c91906112a8565b50905050806001016000815480929190610945906115b8565b91905055507f0c6e905c6f9793ffea4851db2ad7598f29c16dc43f81160bebfd7326868e5750828888888888604051610983969594939291906114a7565b60405180910390a15095945050505050565b6000816040516020016109a8919061163c565b60405160208183030381529060405280519060200120836040516020016109cf919061163c565b6040516020818303038152906040528051906020012014905092915050565b6000807f3b452b27a9e21ad973b8759f10ec38c922373ce3ed129aaec844ae25ef3568e090508091505090565b6000604051905090565b600080fd5b600080fd5b600080fd5b600080fd5b6000601f19601f8301169050919050565b7f4e487b7100000000000000000000000000000000000000000000000000000000600052604160045260246000fd5b610a8282610a39565b810181811067ffffffffffffffff82111715610aa157610aa0610a4a565b5b80604052505050565b6000610ab4610a1b565b9050610ac08282610a79565b919050565b600067ffffffffffffffff821115610ae057610adf610a4a565b5b610ae982610a39565b9050602081019050919050565b82818337600083830152505050565b6000610b18610b1384610ac5565b610aaa565b905082815260208101848484011115610b3457610b33610a34565b5b610b3f848285610af6565b509392505050565b600082601f830112610b5c57610b5b610a2f565b5b8135610b6c848260208601610b05565b91505092915050565b600060208284031215610b8b57610b8a610a25565b5b600082013567ffffffffffffffff811115610ba957610ba8610a2a565b5b610bb584828501610b47565b91505092915050565b60008115159050919050565b610bd381610bbe565b82525050565b6000602082019050610bee6000830184610bca565b92915050565b6000819050919050565b610c0781610bf4565b8114610c1257600080fd5b50565b600081359050610c2481610bfe565b92915050565b600060208284031215610c4057610c3f610a25565b5b6000610c4e84828501610c15565b91505092915050565b600081519050919050565b600082825260208201905092915050565b60005b83811015610c91578082015181840152602081019050610c76565b60008484015250505050565b6000610ca882610c57565b610cb28185610c62565b9350610cc2818560208601610c73565b610ccb81610a39565b840191505092915050565b60006020820190508181036000830152610cf08184610c9d565b905092915050565b600067ffffffffffffffff821115610d1357610d12610a4a565b5b610d1c82610a39565b9050602081019050919050565b6000610d3c610d3784610cf8565b610aaa565b905082815260208101848484011115610d5857610d57610a34565b5b610d63848285610af6565b509392505050565b600082601f830112610d8057610d7f610a2f565b5b8135610d90848260208601610d29565b91505092915050565b60008060008060008060c08789031215610db657610db5610a25565b5b6000610dc489828a01610c15565b965050602087013567ffffffffffffffff811115610de557610de4610a2a565b5b610df189828a01610b47565b9550506040610e0289828a01610c15565b9450506060610e1389828a01610c15565b935050608087013567ffffffffffffffff811115610e3457610e33610a2a565b5b610e4089828a01610d6b565b92505060a087013567ffffffffffffffff811115610e6157610e60610a2a565b5b610e6d89828a01610b47565b9150509295509295509295565b610e8381610bf4565b82525050565b6000602082019050610e9e6000830184610e7a565b92915050565b600081519050919050565b600082825260208201905092915050565b6000610ecb82610ea4565b610ed58185610eaf565b9350610ee5818560208601610c73565b610eee81610a39565b840191505092915050565b600060a0820190508181036000830152610f138188610c9d565b9050610f226020830187610e7a565b610f2f6040830186610e7a565b8181036060830152610f418185610ec0565b90508181036080830152610f558184610c9d565b90509695505050505050565b600080600080600060a08688031215610f7d57610f7c610a25565b5b600086013567ffffffffffffffff811115610f9b57610f9a610a2a565b5b610fa788828901610b47565b9550506020610fb888828901610c15565b9450506040610fc988828901610c15565b935050606086013567ffffffffffffffff811115610fea57610fe9610a2a565b5b610ff688828901610d6b565b925050608086013567ffffffffffffffff81111561101757611016610a2a565b5b61102388828901610b47565b9150509295509295909350565b7f4e487b7100000000000000000000000000000000000000000000000000000000600052602260045260246000fd5b6000600282049050600182168061107757607f821691505b60208210810361108a57611089611030565b5b50919050565b7f496e76616c696420646f63756d656e7420494400000000000000000000000000600082015250565b60006110c6601383610c62565b91506110d182611090565b602082019050919050565b600060208201905081810360008301526110f5816110b9565b9050919050565b60008190508160005260206000209050919050565b60006020601f8301049050919050565b600082821b905092915050565b60006008830261115e7fffffffffffffffffffffffffffffffffffffffffffffffffffffffffffffffff82611121565b6111688683611121565b95508019841693508086168417925050509392505050565b6000819050919050565b60006111a56111a061119b84610bf4565b611180565b610bf4565b9050919050565b6000819050919050565b6111bf8361118a565b6111d36111cb826111ac565b84845461112e565b825550505050565b600090565b6111e86111db565b6111f38184846111b6565b505050565b5b818110156112175761120c6000826111e0565b6001810190506111f9565b5050565b601f82111561125c5761122d816110fc565b61123684611111565b81016020851015611245578190505b61125961125185611111565b8301826111f8565b50505b505050565b600082821c905092915050565b600061127f60001984600802611261565b1980831691505092915050565b6000611298838361126e565b9150826002028217905092915050565b6112b182610c57565b67ffffffffffffffff8111156112ca576112c9610a4a565b5b6112d4825461105f565b6112df82828561121b565b600060209050601f8311600181146113125760008415611300578287015190505b61130a858261128c565b865550611372565b601f198416611320866110fc565b60005b8281101561134857848901518255600182019150602085019450602081019050611323565b868310156113655784890151611361601f89168261126e565b8355505b6001600288020188555050505b505050505050565b60008190508160005260206000209050919050565b601f8211156113d0576113a18161137a565b6113aa84611111565b810160208510156113b9578190505b6113cd6113c585611111565b8301826111f8565b50505b505050565b6113de82610ea4565b67ffffffffffffffff8111156113f7576113f6610a4a565b5b611401825461105f565b61140c82828561138f565b600060209050601f83116001811461143f576000841561142d578287015190505b611437858261128c565b86555061149f565b601f19841661144d8661137a565b60005b8281101561147557848901518255600182019150602085019450602081019050611450565b86831015611492578489015161148e601f89168261126e565b8355505b6001600288020188555050505b505050505050565b600060c0820190506114bc6000830189610e7a565b81810360208301526114ce8188610c9d565b90506114dd6040830187610e7a565b6114ea6060830186610e7a565b81810360808301526114fc8185610ec0565b905081810360a08301526115108184610c9d565b9050979650505050505050565b7f444f432054595045204558495354530000000000000000000000000000000000600082015250565b6000611553600f83610c62565b915061155e8261151d565b602082019050919050565b6000602082019050818103600083015261158281611546565b9050919050565b7f4e487b7100000000000000000000000000000000000000000000000000000000600052601160045260246000fd5b60006115c382610bf4565b91507fffffffffffffffffffffffffffffffffffffffffffffffffffffffffffffffff82036115f5576115f4611589565b5b600182019050919050565b600081905092915050565b600061161682610c57565b6116208185611600565b9350611630818560208601610c73565b80840191505092915050565b6000611648828461160b565b91508190509291505056fea2646970667358221220db6a901e18107c90604355622fe138552d14b012be9a91afa8db534514b4ca5864736f6c63430008120033",
  "linkReferences": {},
  "deployedLinkReferences": {}
}