{
  "_format": "hh-sol-artifact-1",
  "contractName": "TimeLock",
  "sourceName": "contracts/CopperGov/TimeLock.sol",
  "abi": [
    {
      "inputs": [
        {
          "internalType": "uint256",
          "name": "_delay",
          "type": "uint256"
        }
      ],
      "stateMutability": "nonpayable",
      "type": "constructor"
    },
    {
      "anonymous": false,
      "inputs": [
        {
          "indexed": false,
          "internalType": "bytes32",
          "name": "txHash",
          "type": "bytes32"
        },
        {
          "indexed": false,
          "internalType": "address",
          "name": "target",
          "type": "address"
        },
        {
          "indexed": false,
          "internalType": "uint256",
          "name": "value",
          "type": "uint256"
        },
        {
          "indexed": false,
          "internalType": "string",
          "name": "signature",
          "type": "string"
        },
        {
          "indexed": false,
          "internalType": "bytes",
          "name": "data",
          "type": "bytes"
        },
        {
          "indexed": false,
          "internalType": "uint256",
          "name": "eta",
          "type": "uint256"
        }
      ],
      "name": "ExecuteTransaction",
      "type": "event"
    },
    {
      "anonymous": false,
      "inputs": [
        {
          "indexed": false,
          "internalType": "uint256",
          "name": "delay",
          "type": "uint256"
        }
      ],
      "name": "NewDelay",
      "type": "event"
    },
    {
      "anonymous": false,
      "inputs": [
        {
          "indexed": false,
          "internalType": "bytes32",
          "name": "txHash",
          "type": "bytes32"
        },
        {
          "indexed": false,
          "internalType": "address",
          "name": "target",
          "type": "address"
        },
        {
          "indexed": false,
          "internalType": "uint256",
          "name": "value",
          "type": "uint256"
        },
        {
          "indexed": false,
          "internalType": "string",
          "name": "signature",
          "type": "string"
        },
        {
          "indexed": false,
          "internalType": "bytes",
          "name": "data",
          "type": "bytes"
        },
        {
          "indexed": false,
          "internalType": "uint256",
          "name": "eta",
          "type": "uint256"
        }
      ],
      "name": "QueuedTransaction",
      "type": "event"
    },
    {
      "inputs": [],
      "name": "MIN_DELAY",
      "outputs": [
        {
          "internalType": "uint256",
          "name": "",
          "type": "uint256"
        }
      ],
      "stateMutability": "view",
      "type": "function"
    },
    {
      "inputs": [],
      "name": "admin",
      "outputs": [
        {
          "internalType": "address",
          "name": "",
          "type": "address"
        }
      ],
      "stateMutability": "view",
      "type": "function"
    },
    {
      "inputs": [],
      "name": "delay",
      "outputs": [
        {
          "internalType": "uint256",
          "name": "",
          "type": "uint256"
        }
      ],
      "stateMutability": "view",
      "type": "function"
    },
    {
      "inputs": [
        {
          "internalType": "address",
          "name": "target",
          "type": "address"
        },
        {
          "internalType": "uint256",
          "name": "value",
          "type": "uint256"
        },
        {
          "internalType": "string",
          "name": "signature",
          "type": "string"
        },
        {
          "internalType": "bytes",
          "name": "data",
          "type": "bytes"
        },
        {
          "internalType": "uint256",
          "name": "eta",
          "type": "uint256"
        }
      ],
      "name": "executeTransaction",
      "outputs": [],
      "stateMutability": "nonpayable",
      "type": "function"
    },
    {
      "inputs": [
        {
          "internalType": "bytes32",
          "name": "",
          "type": "bytes32"
        }
      ],
      "name": "executionTime",
      "outputs": [
        {
          "internalType": "uint256",
          "name": "",
          "type": "uint256"
        }
      ],
      "stateMutability": "view",
      "type": "function"
    },
    {
      "inputs": [
        {
          "internalType": "address",
          "name": "target",
          "type": "address"
        },
        {
          "internalType": "uint256",
          "name": "value",
          "type": "uint256"
        },
        {
          "internalType": "string",
          "name": "signature",
          "type": "string"
        },
        {
          "internalType": "bytes",
          "name": "data",
          "type": "bytes"
        }
      ],
      "name": "queueTransaction",
      "outputs": [
        {
          "internalType": "bytes32",
          "name": "",
          "type": "bytes32"
        }
      ],
      "stateMutability": "nonpayable",
      "type": "function"
    },
    {
      "inputs": [
        {
          "internalType": "bytes32",
          "name": "",
          "type": "bytes32"
        }
      ],
      "name": "queuedTransactions",
      "outputs": [
        {
          "internalType": "bool",
          "name": "",
          "type": "bool"
        }
      ],
      "stateMutability": "view",
      "type": "function"
    },
    {
      "inputs": [
        {
          "internalType": "uint256",
          "name": "_delay",
          "type": "uint256"
        }
      ],
      "name": "setDelay",
      "outputs": [],
      "stateMutability": "nonpayable",
      "type": "function"
    }
  ],
  "bytecode": "0x60806040523480156200001157600080fd5b506040516200142b3803806200142b83398181016040528101906200003791906200010f565b6201518081101562000080576040517f08c379a00000000000000000000000000000000000000000000000000000000081526004016200007790620001c8565b60405180910390fd5b33600360006101000a81548173ffffffffffffffffffffffffffffffffffffffff021916908373ffffffffffffffffffffffffffffffffffffffff1602179055508060028190555050620001ea565b600080fd5b6000819050919050565b620000e981620000d4565b8114620000f557600080fd5b50565b6000815190506200010981620000de565b92915050565b600060208284031215620001285762000127620000cf565b5b60006200013884828501620000f8565b91505092915050565b600082825260208201905092915050565b7f54696d656c6f636b2064656c6179206d757374206265206174206c656173742060008201527f3120646179000000000000000000000000000000000000000000000000000000602082015250565b6000620001b060258362000141565b9150620001bd8262000152565b604082019050919050565b60006020820190508181036000830152620001e381620001a1565b9050919050565b61123180620001fa6000396000f3fe608060405234801561001057600080fd5b50600436106100885760003560e01c8063a430b6511161005b578063a430b65114610115578063e177246e14610145578063f2b0653714610161578063f851a4401461019157610088565b80630825f38f1461008d5780633275cf4d146100a95780636a42b8f8146100d95780639f81aed7146100f7575b600080fd5b6100a760048036038101906100a29190610946565b6101af565b005b6100c360048036038101906100be9190610a02565b6104e5565b6040516100d09190610ac2565b60405180910390f35b6100e161066b565b6040516100ee9190610aec565b60405180910390f35b6100ff610671565b60405161010c9190610aec565b60405180910390f35b61012f600480360381019061012a9190610b33565b610678565b60405161013c9190610aec565b60405180910390f35b61015f600480360381019061015a9190610b60565b610690565b005b61017b60048036038101906101769190610b33565b6107a7565b6040516101889190610ba8565b60405180910390f35b6101996107c7565b6040516101a69190610bd2565b60405180910390f35b600360009054906101000a900473ffffffffffffffffffffffffffffffffffffffff1673ffffffffffffffffffffffffffffffffffffffff163373ffffffffffffffffffffffffffffffffffffffff161461023f576040517f08c379a000000000000000000000000000000000000000000000000000000000815260040161023690610c70565b60405180910390fd5b60008787878787878760405160200161025e9796959493929190610d1b565b60405160208183030381529060405280519060200120905060008082815260200190815260200160002060009054906101000a900460ff166102d5576040517f08c379a00000000000000000000000000000000000000000000000000000000081526004016102cc90610dcc565b60405180910390fd5b81421015610318576040517f08c379a000000000000000000000000000000000000000000000000000000000815260040161030f90610e5e565b60405180910390fd5b6202a300826103279190610ead565b421115610369576040517f08c379a000000000000000000000000000000000000000000000000000000000815260040161036090610f2d565b60405180910390fd5b600080600083815260200190815260200160002060006101000a81548160ff0219169083151502179055506000600160008381526020019081526020016000208190555060008873ffffffffffffffffffffffffffffffffffffffff168888886040516103d7929190610f7d565b604051809103902087876040516020016103f393929190610fe3565b60405160208183030381529060405260405161040f9190611073565b60006040518083038185875af1925050503d806000811461044c576040519150601f19603f3d011682016040523d82523d6000602084013e610451565b606091505b5050905080610495576040517f08c379a000000000000000000000000000000000000000000000000000000000815260040161048c906110d6565b60405180910390fd5b7fa560e3198060a2f10670c1ec5b403077ea6ae93ca8de1c32b451dc1a943cd6e7828a8a8a8a8a8a8a6040516104d29897969594939291906110f6565b60405180910390a1505050505050505050565b6000600360009054906101000a900473ffffffffffffffffffffffffffffffffffffffff1673ffffffffffffffffffffffffffffffffffffffff163373ffffffffffffffffffffffffffffffffffffffff1614610577576040517f08c379a000000000000000000000000000000000000000000000000000000000815260040161056e90610c70565b60405180910390fd5b60008787878787876002544261058d9190610ead565b6040516020016105a39796959493929190610d1b565b604051602081830303815290604052805190602001209050600160008083815260200190815260200160002060006101000a81548160ff021916908315150217905550600254426105f49190610ead565b60016000838152602001908152602001600020819055507fc91d82514b5af1b7f210f0c8ed6d0a832e34eefd3ca60d3d909a4cff1d248f6581898989898989600254426106419190610ead565b6040516106559897969594939291906110f6565b60405180910390a1809150509695505050505050565b60025481565b6201518081565b60016020528060005260406000206000915090505481565b600360009054906101000a900473ffffffffffffffffffffffffffffffffffffffff1673ffffffffffffffffffffffffffffffffffffffff163373ffffffffffffffffffffffffffffffffffffffff1614610720576040517f08c379a000000000000000000000000000000000000000000000000000000000815260040161071790610c70565b60405180910390fd5b62015180811015610766576040517f08c379a000000000000000000000000000000000000000000000000000000000815260040161075d906111db565b60405180910390fd5b806002819055507f948b1f6a42ee138b7e34058ba85a37f716d55ff25ff05a763f15bed6a04c8d2c8160405161079c9190610aec565b60405180910390a150565b60006020528060005260406000206000915054906101000a900460ff1681565b600360009054906101000a900473ffffffffffffffffffffffffffffffffffffffff1681565b600080fd5b600080fd5b600073ffffffffffffffffffffffffffffffffffffffff82169050919050565b6000610822826107f7565b9050919050565b61083281610817565b811461083d57600080fd5b50565b60008135905061084f81610829565b92915050565b6000819050919050565b61086881610855565b811461087357600080fd5b50565b6000813590506108858161085f565b92915050565b600080fd5b600080fd5b600080fd5b60008083601f8401126108b0576108af61088b565b5b8235905067ffffffffffffffff8111156108cd576108cc610890565b5b6020830191508360018202830111156108e9576108e8610895565b5b9250929050565b60008083601f8401126109065761090561088b565b5b8235905067ffffffffffffffff81111561092357610922610890565b5b60208301915083600182028301111561093f5761093e610895565b5b9250929050565b600080600080600080600060a0888a031215610965576109646107ed565b5b60006109738a828b01610840565b97505060206109848a828b01610876565b965050604088013567ffffffffffffffff8111156109a5576109a46107f2565b5b6109b18a828b0161089a565b9550955050606088013567ffffffffffffffff8111156109d4576109d36107f2565b5b6109e08a828b016108f0565b935093505060806109f38a828b01610876565b91505092959891949750929550565b60008060008060008060808789031215610a1f57610a1e6107ed565b5b6000610a2d89828a01610840565b9650506020610a3e89828a01610876565b955050604087013567ffffffffffffffff811115610a5f57610a5e6107f2565b5b610a6b89828a0161089a565b9450945050606087013567ffffffffffffffff811115610a8e57610a8d6107f2565b5b610a9a89828a016108f0565b92509250509295509295509295565b6000819050919050565b610abc81610aa9565b82525050565b6000602082019050610ad76000830184610ab3565b92915050565b610ae681610855565b82525050565b6000602082019050610b016000830184610add565b92915050565b610b1081610aa9565b8114610b1b57600080fd5b50565b600081359050610b2d81610b07565b92915050565b600060208284031215610b4957610b486107ed565b5b6000610b5784828501610b1e565b91505092915050565b600060208284031215610b7657610b756107ed565b5b6000610b8484828501610876565b91505092915050565b60008115159050919050565b610ba281610b8d565b82525050565b6000602082019050610bbd6000830184610b99565b92915050565b610bcc81610817565b82525050565b6000602082019050610be76000830184610bc3565b92915050565b600082825260208201905092915050565b7f4f6e6c792061646d696e2063616e2063616c6c20746869732066756e6374696f60008201527f6e00000000000000000000000000000000000000000000000000000000000000602082015250565b6000610c5a602183610bed565b9150610c6582610bfe565b604082019050919050565b60006020820190508181036000830152610c8981610c4d565b9050919050565b82818337600083830152505050565b6000601f19601f8301169050919050565b6000610cbc8385610bed565b9350610cc9838584610c90565b610cd283610c9f565b840190509392505050565b600082825260208201905092915050565b6000610cfa8385610cdd565b9350610d07838584610c90565b610d1083610c9f565b840190509392505050565b600060a082019050610d30600083018a610bc3565b610d3d6020830189610add565b8181036040830152610d50818789610cb0565b90508181036060830152610d65818587610cee565b9050610d746080830184610add565b98975050505050505050565b7f5472616e73616374696f6e206973206e6f742071756575656400000000000000600082015250565b6000610db6601983610bed565b9150610dc182610d80565b602082019050919050565b60006020820190508181036000830152610de581610da9565b9050919050565b7f5472616e73616374696f6e20686173206e6f742073757270617373656420746960008201527f6d65206c6f636b00000000000000000000000000000000000000000000000000602082015250565b6000610e48602783610bed565b9150610e5382610dec565b604082019050919050565b60006020820190508181036000830152610e7781610e3b565b9050919050565b7f4e487b7100000000000000000000000000000000000000000000000000000000600052601160045260246000fd5b6000610eb882610855565b9150610ec383610855565b9250828201905080821115610edb57610eda610e7e565b5b92915050565b7f5472616e73616374696f6e206973207374616c65000000000000000000000000600082015250565b6000610f17601483610bed565b9150610f2282610ee1565b602082019050919050565b60006020820190508181036000830152610f4681610f0a565b9050919050565b600081905092915050565b6000610f648385610f4d565b9350610f71838584610c90565b82840190509392505050565b6000610f8a828486610f58565b91508190509392505050565b60007fffffffff0000000000000000000000000000000000000000000000000000000082169050919050565b6000819050919050565b610fdd610fd882610f96565b610fc2565b82525050565b6000610fef8286610fcc565b600482019150611000828486610f58565b9150819050949350505050565b600081519050919050565b60005b8381101561103657808201518184015260208101905061101b565b60008484015250505050565b600061104d8261100d565b6110578185610f4d565b9350611067818560208601611018565b80840191505092915050565b600061107f8284611042565b915081905092915050565b7f5472616e73616374696f6e20657865637574696f6e206661696c656400000000600082015250565b60006110c0601c83610bed565b91506110cb8261108a565b602082019050919050565b600060208201905081810360008301526110ef816110b3565b9050919050565b600060c08201905061110b600083018b610ab3565b611118602083018a610bc3565b6111256040830189610add565b8181036060830152611138818789610cb0565b9050818103608083015261114d818587610cee565b905061115c60a0830184610add565b9998505050505050505050565b7f54696d656c6f636b2064656c6179206d757374206265206174206c656173742060008201527f3120646179000000000000000000000000000000000000000000000000000000602082015250565b60006111c5602583610bed565b91506111d082611169565b604082019050919050565b600060208201905081810360008301526111f4816111b8565b905091905056fea2646970667358221220cd3d860036c604e9515b43cebb20b3da71041dd61d4683deba6a60c2b444847b64736f6c63430008120033",
  "linkReferences": {},
  "deployedLinkReferences": {}
}