{
  "_format": "hh-sol-artifact-1",
  "contractName": "CopperVaultInternal",
  "sourceName": "contracts/CopperVault/CopperVaultInternal.sol",
  "abi": [
    {
      "anonymous": false,
      "inputs": [
        {
          "indexed": true,
          "internalType": "address",
          "name": "owner",
          "type": "address"
        },
        {
          "indexed": true,
          "internalType": "address",
          "name": "operator",
          "type": "address"
        },
        {
          "indexed": false,
          "internalType": "bool",
          "name": "approved",
          "type": "bool"
        }
      ],
      "name": "ApprovalForAll",
      "type": "event"
    },
    {
      "anonymous": false,
      "inputs": [
        {
          "indexed": true,
          "internalType": "address",
          "name": "operator",
          "type": "address"
        },
        {
          "indexed": true,
          "internalType": "address",
          "name": "from",
          "type": "address"
        },
        {
          "indexed": true,
          "internalType": "address",
          "name": "to",
          "type": "address"
        },
        {
          "indexed": false,
          "internalType": "uint256[]",
          "name": "ids",
          "type": "uint256[]"
        },
        {
          "indexed": false,
          "internalType": "uint256[]",
          "name": "values",
          "type": "uint256[]"
        }
      ],
      "name": "TransferBatch",
      "type": "event"
    },
    {
      "anonymous": false,
      "inputs": [
        {
          "indexed": true,
          "internalType": "address",
          "name": "operator",
          "type": "address"
        },
        {
          "indexed": true,
          "internalType": "address",
          "name": "from",
          "type": "address"
        },
        {
          "indexed": true,
          "internalType": "address",
          "name": "to",
          "type": "address"
        },
        {
          "indexed": false,
          "internalType": "uint256",
          "name": "id",
          "type": "uint256"
        },
        {
          "indexed": false,
          "internalType": "uint256",
          "name": "value",
          "type": "uint256"
        }
      ],
      "name": "TransferSingle",
      "type": "event"
    },
    {
      "anonymous": false,
      "inputs": [
        {
          "indexed": false,
          "internalType": "string",
          "name": "value",
          "type": "string"
        },
        {
          "indexed": true,
          "internalType": "uint256",
          "name": "id",
          "type": "uint256"
        }
      ],
      "name": "URI",
      "type": "event"
    },
    {
      "inputs": [
        {
          "internalType": "address",
          "name": "_owner",
          "type": "address"
        },
        {
          "internalType": "uint256",
          "name": "_id",
          "type": "uint256"
        }
      ],
      "name": "balanceOf",
      "outputs": [
        {
          "internalType": "uint256",
          "name": "",
          "type": "uint256"
        }
      ],
      "stateMutability": "view",
      "type": "function"
    },
    {
      "inputs": [
        {
          "internalType": "address[]",
          "name": "_owners",
          "type": "address[]"
        },
        {
          "internalType": "uint256[]",
          "name": "_ids",
          "type": "uint256[]"
        }
      ],
      "name": "balanceOfBatch",
      "outputs": [
        {
          "internalType": "uint256[]",
          "name": "",
          "type": "uint256[]"
        }
      ],
      "stateMutability": "view",
      "type": "function"
    },
    {
      "inputs": [
        {
          "internalType": "address",
          "name": "_owner",
          "type": "address"
        },
        {
          "internalType": "address",
          "name": "_operator",
          "type": "address"
        }
      ],
      "name": "isApprovedForAll",
      "outputs": [
        {
          "internalType": "bool",
          "name": "",
          "type": "bool"
        }
      ],
      "stateMutability": "view",
      "type": "function"
    },
    {
      "inputs": [],
      "name": "name",
      "outputs": [
        {
          "internalType": "string",
          "name": "",
          "type": "string"
        }
      ],
      "stateMutability": "view",
      "type": "function"
    },
    {
      "inputs": [
        {
          "internalType": "address",
          "name": "_from",
          "type": "address"
        },
        {
          "internalType": "address",
          "name": "_to",
          "type": "address"
        },
        {
          "internalType": "uint256[]",
          "name": "_ids",
          "type": "uint256[]"
        },
        {
          "internalType": "uint256[]",
          "name": "_values",
          "type": "uint256[]"
        }
      ],
      "name": "safeBatchTransferFrom",
      "outputs": [],
      "stateMutability": "nonpayable",
      "type": "function"
    },
    {
      "inputs": [
        {
          "internalType": "address",
          "name": "_from",
          "type": "address"
        },
        {
          "internalType": "address",
          "name": "_to",
          "type": "address"
        },
        {
          "internalType": "uint256",
          "name": "_id",
          "type": "uint256"
        },
        {
          "internalType": "uint256",
          "name": "_value",
          "type": "uint256"
        }
      ],
      "name": "safeTransferFrom",
      "outputs": [],
      "stateMutability": "nonpayable",
      "type": "function"
    },
    {
      "inputs": [
        {
          "internalType": "address",
          "name": "_operator",
          "type": "address"
        },
        {
          "internalType": "bool",
          "name": "_approved",
          "type": "bool"
        }
      ],
      "name": "setApprovalForAll",
      "outputs": [],
      "stateMutability": "nonpayable",
      "type": "function"
    },
    {
      "inputs": [],
      "name": "symbol",
      "outputs": [
        {
          "internalType": "string",
          "name": "",
          "type": "string"
        }
      ],
      "stateMutability": "view",
      "type": "function"
    },
    {
      "inputs": [
        {
          "internalType": "uint256",
          "name": "_id",
          "type": "uint256"
        }
      ],
      "name": "uri",
      "outputs": [
        {
          "internalType": "string",
          "name": "",
          "type": "string"
        }
      ],
      "stateMutability": "view",
      "type": "function"
    },
    {
      "inputs": [],
      "name": "uriPrefix",
      "outputs": [
        {
          "internalType": "string",
          "name": "uriPrefix_",
          "type": "string"
        }
      ],
      "stateMutability": "view",
      "type": "function"
    }
  ],
  "bytecode": "0x608060405234801561001057600080fd5b50611b36806100206000396000f3fe608060405234801561001057600080fd5b506004361061009d5760003560e01c806362b99ad41161006657806362b99ad41461016c57806395d89b411461018a578063a22cb465146101a8578063e985e9c5146101c4578063fba0ee64146101f45761009d565b8062fdd58e146100a257806306fdde03146100d25780630e89341c146100f05780630febdd49146101205780634e1273f41461013c575b600080fd5b6100bc60048036038101906100b79190611076565b610210565b6040516100c991906110c5565b60405180910390f35b6100da610224565b6040516100e79190611170565b60405180910390f35b61010a60048036038101906101059190611192565b610233565b6040516101179190611170565b60405180910390f35b61013a600480360381019061013591906111bf565b610245565b005b61015660048036038101906101519190611431565b610257565b6040516101639190611567565b60405180910390f35b61017461026b565b6040516101819190611170565b60405180910390f35b61019261027a565b60405161019f9190611170565b60405180910390f35b6101c260048036038101906101bd91906115c1565b610289565b005b6101de60048036038101906101d99190611601565b610297565b6040516101eb9190611650565b60405180910390f35b61020e6004803603810190610209919061166b565b6102ab565b005b600061021c83836102bd565b905092915050565b606061022e610321565b905090565b606061023e826103bc565b9050919050565b61025184848484610416565b50505050565b606061026383836105e9565b905092915050565b6060610275610754565b905090565b60606102846107ef565b905090565b610293828261088a565b5050565b60006102a38383610990565b905092915050565b6102b784848484610a2d565b50505050565b60006102c7610ccc565b60000160008473ffffffffffffffffffffffffffffffffffffffff1673ffffffffffffffffffffffffffffffffffffffff168152602001908152602001600020600083815260200190815260200160002054905092915050565b606061032b610cdb565b600001805461033990611739565b80601f016020809104026020016040519081016040528092919081815260200182805461036590611739565b80156103b25780601f10610387576101008083540402835291602001916103b2565b820191906000526020600020905b81548152906001019060200180831161039557829003601f168201915b5050505050905090565b60606103c782610cea565b610406576040517f08c379a00000000000000000000000000000000000000000000000000000000081526004016103fd906117b6565b60405180910390fd5b61040f82610dbb565b9050919050565b600073ffffffffffffffffffffffffffffffffffffffff168373ffffffffffffffffffffffffffffffffffffffff1603610485576040517f08c379a000000000000000000000000000000000000000000000000000000000815260040161047c90611822565b60405180910390fd5b8061048e610ccc565b60000160008673ffffffffffffffffffffffffffffffffffffffff1673ffffffffffffffffffffffffffffffffffffffff168152602001908152602001600020600084815260200190815260200160002060008282546104ee9190611871565b92505081905550806104fe610ccc565b60000160008573ffffffffffffffffffffffffffffffffffffffff1673ffffffffffffffffffffffffffffffffffffffff1681526020019081526020016000206000848152602001908152602001600020600082825461055e91906118a5565b925050819055508273ffffffffffffffffffffffffffffffffffffffff168473ffffffffffffffffffffffffffffffffffffffff163373ffffffffffffffffffffffffffffffffffffffff167fc3d58168c5ae7397731d063d5bbf3d657854427343f4c083240f7aacaa2d0f6285856040516105db9291906118d9565b60405180910390a450505050565b6060815183511461062f576040517f08c379a00000000000000000000000000000000000000000000000000000000081526004016106269061194e565b60405180910390fd5b6000835167ffffffffffffffff81111561064c5761064b61122b565b5b60405190808252806020026020018201604052801561067a5781602001602082028036833780820191505090505b50905060005b845181101561074957610691610ccc565b60000160008683815181106106a9576106a861196e565b5b602002602001015173ffffffffffffffffffffffffffffffffffffffff1673ffffffffffffffffffffffffffffffffffffffff1681526020019081526020016000206000858381518110610700576106ff61196e565b5b602002602001015181526020019081526020016000205482828151811061072a5761072961196e565b5b60200260200101818152505080806107419061199d565b915050610680565b508091505092915050565b606061075e610cdb565b600201805461076c90611739565b80601f016020809104026020016040519081016040528092919081815260200182805461079890611739565b80156107e55780601f106107ba576101008083540402835291602001916107e5565b820191906000526020600020905b8154815290600101906020018083116107c857829003601f168201915b5050505050905090565b60606107f9610cdb565b600101805461080790611739565b80601f016020809104026020016040519081016040528092919081815260200182805461083390611739565b80156108805780601f1061085557610100808354040283529160200191610880565b820191906000526020600020905b81548152906001019060200180831161086357829003601f168201915b5050505050905090565b80610893610ccc565b60010160003373ffffffffffffffffffffffffffffffffffffffff1673ffffffffffffffffffffffffffffffffffffffff16815260200190815260200160002060008473ffffffffffffffffffffffffffffffffffffffff1673ffffffffffffffffffffffffffffffffffffffff16815260200190815260200160002060006101000a81548160ff0219169083151502179055508173ffffffffffffffffffffffffffffffffffffffff163373ffffffffffffffffffffffffffffffffffffffff167f17307eab39ab6107e8899845ad3d59bd9653f200f220920489ca2b5937696c31836040516109849190611650565b60405180910390a35050565b600061099a610ccc565b60010160008473ffffffffffffffffffffffffffffffffffffffff1673ffffffffffffffffffffffffffffffffffffffff16815260200190815260200160002060008373ffffffffffffffffffffffffffffffffffffffff1673ffffffffffffffffffffffffffffffffffffffff16815260200190815260200160002060009054906101000a900460ff16905092915050565b600073ffffffffffffffffffffffffffffffffffffffff168373ffffffffffffffffffffffffffffffffffffffff1603610a9c576040517f08c379a0000000000000000000000000000000000000000000000000000000008152600401610a9390611822565b60405180910390fd5b8051825114610ae0576040517f08c379a0000000000000000000000000000000000000000000000000000000008152600401610ad79061194e565b60405180910390fd5b60005b8251811015610c4757818181518110610aff57610afe61196e565b5b6020026020010151610b0f610ccc565b60000160008773ffffffffffffffffffffffffffffffffffffffff1673ffffffffffffffffffffffffffffffffffffffff1681526020019081526020016000206000858481518110610b6457610b6361196e565b5b602002602001015181526020019081526020016000206000828254610b899190611871565b92505081905550818181518110610ba357610ba261196e565b5b6020026020010151610bb3610ccc565b60000160008673ffffffffffffffffffffffffffffffffffffffff1673ffffffffffffffffffffffffffffffffffffffff1681526020019081526020016000206000858481518110610c0857610c0761196e565b5b602002602001015181526020019081526020016000206000828254610c2d91906118a5565b925050819055508080610c3f9061199d565b915050610ae3565b508273ffffffffffffffffffffffffffffffffffffffff168473ffffffffffffffffffffffffffffffffffffffff163373ffffffffffffffffffffffffffffffffffffffff167f4a39dc06d4c0dbc64b70af90fd698a233a518aa5d07e595d983b8c0526c8f7fb8585604051610cbe9291906119e5565b60405180910390a450505050565b6000610cd6610f1b565b905090565b6000610ce5610f48565b905090565b60008082118015610db45750610db3610d01610ccc565b60020160008481526020019081526020016000208054610d2090611739565b80601f0160208091040260200160405190810160405280929190818152602001828054610d4c90611739565b8015610d995780601f10610d6e57610100808354040283529160200191610d99565b820191906000526020600020905b815481529060010190602001808311610d7c57829003601f168201915b505050505060405180602001604052806000815250610f75565b5b9050919050565b606060008203610e02576040518060400160405280600181526020017f30000000000000000000000000000000000000000000000000000000000000008152509050610f16565b600082905060005b60008214610e34578080610e1d9061199d565b915050600a82610e2d9190611a4b565b9150610e0a565b60008167ffffffffffffffff811115610e5057610e4f61122b565b5b6040519080825280601f01601f191660200182016040528015610e825781602001600182028036833780820191505090505b5090505b60008514610f0f57600182610e9b9190611871565b9150600a85610eaa9190611a7c565b6030610eb691906118a5565b60f81b818381518110610ecc57610ecb61196e565b5b60200101907effffffffffffffffffffffffffffffffffffffffffffffffffffffffffffff1916908160001a905350600a85610f089190611a4b565b9450610e86565b8093505050505b919050565b6000807f0bb06319fe9f54e2607d55a14a4a9f601c7f9262ad0aba1b29fb8e9eebeeb16590508091505090565b6000807fd0663838b68b01f53e08cceabfcf6be04c591567ba78dedfc4928e98500bd9eb90508091505090565b600081604051602001610f889190611ae9565b6040516020818303038152906040528051906020012083604051602001610faf9190611ae9565b6040516020818303038152906040528051906020012014905092915050565b6000604051905090565b600080fd5b600080fd5b600073ffffffffffffffffffffffffffffffffffffffff82169050919050565b600061100d82610fe2565b9050919050565b61101d81611002565b811461102857600080fd5b50565b60008135905061103a81611014565b92915050565b6000819050919050565b61105381611040565b811461105e57600080fd5b50565b6000813590506110708161104a565b92915050565b6000806040838503121561108d5761108c610fd8565b5b600061109b8582860161102b565b92505060206110ac85828601611061565b9150509250929050565b6110bf81611040565b82525050565b60006020820190506110da60008301846110b6565b92915050565b600081519050919050565b600082825260208201905092915050565b60005b8381101561111a5780820151818401526020810190506110ff565b60008484015250505050565b6000601f19601f8301169050919050565b6000611142826110e0565b61114c81856110eb565b935061115c8185602086016110fc565b61116581611126565b840191505092915050565b6000602082019050818103600083015261118a8184611137565b905092915050565b6000602082840312156111a8576111a7610fd8565b5b60006111b684828501611061565b91505092915050565b600080600080608085870312156111d9576111d8610fd8565b5b60006111e78782880161102b565b94505060206111f88782880161102b565b935050604061120987828801611061565b925050606061121a87828801611061565b91505092959194509250565b600080fd5b7f4e487b7100000000000000000000000000000000000000000000000000000000600052604160045260246000fd5b61126382611126565b810181811067ffffffffffffffff821117156112825761128161122b565b5b80604052505050565b6000611295610fce565b90506112a1828261125a565b919050565b600067ffffffffffffffff8211156112c1576112c061122b565b5b602082029050602081019050919050565b600080fd5b60006112ea6112e5846112a6565b61128b565b9050808382526020820190506020840283018581111561130d5761130c6112d2565b5b835b818110156113365780611322888261102b565b84526020840193505060208101905061130f565b5050509392505050565b600082601f83011261135557611354611226565b5b81356113658482602086016112d7565b91505092915050565b600067ffffffffffffffff8211156113895761138861122b565b5b602082029050602081019050919050565b60006113ad6113a88461136e565b61128b565b905080838252602082019050602084028301858111156113d0576113cf6112d2565b5b835b818110156113f957806113e58882611061565b8452602084019350506020810190506113d2565b5050509392505050565b600082601f83011261141857611417611226565b5b813561142884826020860161139a565b91505092915050565b6000806040838503121561144857611447610fd8565b5b600083013567ffffffffffffffff81111561146657611465610fdd565b5b61147285828601611340565b925050602083013567ffffffffffffffff81111561149357611492610fdd565b5b61149f85828601611403565b9150509250929050565b600081519050919050565b600082825260208201905092915050565b6000819050602082019050919050565b6114de81611040565b82525050565b60006114f083836114d5565b60208301905092915050565b6000602082019050919050565b6000611514826114a9565b61151e81856114b4565b9350611529836114c5565b8060005b8381101561155a57815161154188826114e4565b975061154c836114fc565b92505060018101905061152d565b5085935050505092915050565b600060208201905081810360008301526115818184611509565b905092915050565b60008115159050919050565b61159e81611589565b81146115a957600080fd5b50565b6000813590506115bb81611595565b92915050565b600080604083850312156115d8576115d7610fd8565b5b60006115e68582860161102b565b92505060206115f7858286016115ac565b9150509250929050565b6000806040838503121561161857611617610fd8565b5b60006116268582860161102b565b92505060206116378582860161102b565b9150509250929050565b61164a81611589565b82525050565b60006020820190506116656000830184611641565b92915050565b6000806000806080858703121561168557611684610fd8565b5b60006116938782880161102b565b94505060206116a48782880161102b565b935050604085013567ffffffffffffffff8111156116c5576116c4610fdd565b5b6116d187828801611403565b925050606085013567ffffffffffffffff8111156116f2576116f1610fdd565b5b6116fe87828801611403565b91505092959194509250565b7f4e487b7100000000000000000000000000000000000000000000000000000000600052602260045260246000fd5b6000600282049050600182168061175157607f821691505b6020821081036117645761176361170a565b5b50919050565b7f546f6b656e20646f6573206e6f74206578697374000000000000000000000000600082015250565b60006117a06014836110eb565b91506117ab8261176a565b602082019050919050565b600060208201905081810360008301526117cf81611793565b9050919050565b7f496e76616c696420726563697069656e74206164647265737300000000000000600082015250565b600061180c6019836110eb565b9150611817826117d6565b602082019050919050565b6000602082019050818103600083015261183b816117ff565b9050919050565b7f4e487b7100000000000000000000000000000000000000000000000000000000600052601160045260246000fd5b600061187c82611040565b915061188783611040565b925082820390508181111561189f5761189e611842565b5b92915050565b60006118b082611040565b91506118bb83611040565b92508282019050808211156118d3576118d2611842565b5b92915050565b60006040820190506118ee60008301856110b6565b6118fb60208301846110b6565b9392505050565b7f4172726179206c656e67746873206d757374206d617463680000000000000000600082015250565b60006119386018836110eb565b915061194382611902565b602082019050919050565b600060208201905081810360008301526119678161192b565b9050919050565b7f4e487b7100000000000000000000000000000000000000000000000000000000600052603260045260246000fd5b60006119a882611040565b91507fffffffffffffffffffffffffffffffffffffffffffffffffffffffffffffffff82036119da576119d9611842565b5b600182019050919050565b600060408201905081810360008301526119ff8185611509565b90508181036020830152611a138184611509565b90509392505050565b7f4e487b7100000000000000000000000000000000000000000000000000000000600052601260045260246000fd5b6000611a5682611040565b9150611a6183611040565b925082611a7157611a70611a1c565b5b828204905092915050565b6000611a8782611040565b9150611a9283611040565b925082611aa257611aa1611a1c565b5b828206905092915050565b600081905092915050565b6000611ac3826110e0565b611acd8185611aad565b9350611add8185602086016110fc565b80840191505092915050565b6000611af58284611ab8565b91508190509291505056fea26469706673582212203cbecb41bd44d84f3e1c499dbb299be53c7de9e7fff8de8546e1d42d3065efd164736f6c63430008120033",
  "linkReferences": {},
  "deployedLinkReferences": {}
}