{
  "_format": "hh-sol-artifact-1",
  "contractName": "ERC20Base",
  "sourceName": "contracts/shared/facets/ERC20/ERC20Base.sol",
  "abi": [
    {
      "anonymous": false,
      "inputs": [
        {
          "indexed": true,
          "internalType": "address",
          "name": "owner",
          "type": "address"
        },
        {
          "indexed": true,
          "internalType": "address",
          "name": "spender",
          "type": "address"
        },
        {
          "indexed": false,
          "internalType": "uint256",
          "name": "value",
          "type": "uint256"
        }
      ],
      "name": "Approval",
      "type": "event"
    },
    {
      "anonymous": false,
      "inputs": [
        {
          "indexed": true,
          "internalType": "address",
          "name": "from",
          "type": "address"
        },
        {
          "indexed": true,
          "internalType": "address",
          "name": "to",
          "type": "address"
        },
        {
          "indexed": false,
          "internalType": "uint256",
          "name": "value",
          "type": "uint256"
        }
      ],
      "name": "Transfer",
      "type": "event"
    },
    {
      "inputs": [
        {
          "internalType": "address",
          "name": "owner",
          "type": "address"
        },
        {
          "internalType": "address",
          "name": "spender",
          "type": "address"
        }
      ],
      "name": "allowance",
      "outputs": [
        {
          "internalType": "uint256",
          "name": "",
          "type": "uint256"
        }
      ],
      "stateMutability": "view",
      "type": "function"
    },
    {
      "inputs": [
        {
          "internalType": "address",
          "name": "spender",
          "type": "address"
        },
        {
          "internalType": "uint256",
          "name": "value",
          "type": "uint256"
        }
      ],
      "name": "approve",
      "outputs": [
        {
          "internalType": "bool",
          "name": "",
          "type": "bool"
        }
      ],
      "stateMutability": "nonpayable",
      "type": "function"
    },
    {
      "inputs": [
        {
          "internalType": "address",
          "name": "account",
          "type": "address"
        }
      ],
      "name": "balanceOf",
      "outputs": [
        {
          "internalType": "uint256",
          "name": "",
          "type": "uint256"
        }
      ],
      "stateMutability": "view",
      "type": "function"
    },
    {
      "inputs": [],
      "name": "decimals",
      "outputs": [
        {
          "internalType": "uint8",
          "name": "",
          "type": "uint8"
        }
      ],
      "stateMutability": "view",
      "type": "function"
    },
    {
      "inputs": [
        {
          "internalType": "uint256",
          "name": "totalSupply_",
          "type": "uint256"
        },
        {
          "internalType": "uint256",
          "name": "decimals_",
          "type": "uint256"
        }
      ],
      "name": "initialize",
      "outputs": [],
      "stateMutability": "nonpayable",
      "type": "function"
    },
    {
      "inputs": [],
      "name": "totalSupply",
      "outputs": [
        {
          "internalType": "uint256",
          "name": "",
          "type": "uint256"
        }
      ],
      "stateMutability": "view",
      "type": "function"
    },
    {
      "inputs": [
        {
          "internalType": "address",
          "name": "to",
          "type": "address"
        },
        {
          "internalType": "uint256",
          "name": "value",
          "type": "uint256"
        }
      ],
      "name": "transfer",
      "outputs": [
        {
          "internalType": "bool",
          "name": "",
          "type": "bool"
        }
      ],
      "stateMutability": "nonpayable",
      "type": "function"
    },
    {
      "inputs": [
        {
          "internalType": "address",
          "name": "from",
          "type": "address"
        },
        {
          "internalType": "address",
          "name": "to",
          "type": "address"
        },
        {
          "internalType": "uint256",
          "name": "value",
          "type": "uint256"
        }
      ],
      "name": "transferFrom",
      "outputs": [
        {
          "internalType": "bool",
          "name": "",
          "type": "bool"
        }
      ],
      "stateMutability": "nonpayable",
      "type": "function"
    }
  ],
  "bytecode": "0x608060405234801561001057600080fd5b50611627806100206000396000f3fe608060405234801561001057600080fd5b50600436106100885760003560e01c806370a082311161005b57806370a0823114610129578063a9059cbb14610159578063dd62ed3e14610189578063e4a30116146101b957610088565b8063095ea7b31461008d57806318160ddd146100bd57806323b872dd146100db578063313ce5671461010b575b600080fd5b6100a760048036038101906100a29190610f5a565b6101d5565b6040516100b49190610fb5565b60405180910390f35b6100c5610250565b6040516100d29190610fdf565b60405180910390f35b6100f560048036038101906100f09190610ffa565b6102bc565b6040516101029190610fb5565b60405180910390f35b610113610331565b6040516101209190611069565b60405180910390f35b610143600480360381019061013e9190611084565b61039d565b6040516101509190610fdf565b60405180910390f35b610173600480360381019061016e9190610f5a565b61040c565b6040516101809190610fb5565b60405180910390f35b6101a3600480360381019061019e91906110b1565b61048f565b6040516101b09190610fdf565b60405180910390f35b6101d360048036038101906101ce91906110f1565b610500565b005b6000806101e061056d565b90508060060160009054906101000a900460ff16610233576040517f08c379a000000000000000000000000000000000000000000000000000000000815260040161022a9061118e565b60405180910390fd5b61024561023e61059a565b858561064a565b600191505092915050565b60008061025b61056d565b90508060060160009054906101000a900460ff166102ae576040517f08c379a00000000000000000000000000000000000000000000000000000000081526004016102a59061118e565b60405180910390fd5b6102b6610822565b91505090565b6000806102c761056d565b90508060060160009054906101000a900460ff1661031a576040517f08c379a00000000000000000000000000000000000000000000000000000000081526004016103119061118e565b60405180910390fd5b61032585858561083a565b60019150509392505050565b60008061033c61056d565b90508060060160009054906101000a900460ff1661038f576040517f08c379a00000000000000000000000000000000000000000000000000000000081526004016103869061118e565b60405180910390fd5b6103976109bb565b91505090565b6000806103a861056d565b90508060060160009054906101000a900460ff166103fb576040517f08c379a00000000000000000000000000000000000000000000000000000000081526004016103f29061118e565b60405180910390fd5b610404836109d3565b915050919050565b60008061041761056d565b90508060060160009054906101000a900460ff1661046a576040517f08c379a00000000000000000000000000000000000000000000000000000000081526004016104619061118e565b60405180910390fd5b610472610a2a565b61048461047d61059a565b8585610a2c565b600191505092915050565b60008061049a61056d565b90508060060160009054906101000a900460ff166104ed576040517f08c379a00000000000000000000000000000000000000000000000000000000081526004016104e49061118e565b60405180910390fd5b6104f78484610cf8565b91505092915050565b600061050a61056d565b90508060060160009054906101000a900460ff161561055e576040517f08c379a0000000000000000000000000000000000000000000000000000000008152600401610555906111fa565b60405180910390fd5b6105688383610d8d565b505050565b6000807f7c93868e1bfb5ff7f7930e0ba0154b0d59fc7f9fd1852f9ca4873d7bcbe740d090508091505090565b60003073ffffffffffffffffffffffffffffffffffffffff163373ffffffffffffffffffffffffffffffffffffffff160361064357600080368080601f016020809104026020016040519081016040528093929190818152602001838380828437600081840152601f19601f820116905080830192505050505050509050600080369050905073ffffffffffffffffffffffffffffffffffffffff818301511692505050610647565b3390505b90565b600061065461056d565b9050600073ffffffffffffffffffffffffffffffffffffffff168473ffffffffffffffffffffffffffffffffffffffff16036106c5576040517f08c379a00000000000000000000000000000000000000000000000000000000081526004016106bc90611266565b60405180910390fd5b600073ffffffffffffffffffffffffffffffffffffffff168373ffffffffffffffffffffffffffffffffffffffff1603610734576040517f08c379a000000000000000000000000000000000000000000000000000000000815260040161072b906112d2565b60405180910390fd5b818160030160008673ffffffffffffffffffffffffffffffffffffffff1673ffffffffffffffffffffffffffffffffffffffff16815260200190815260200160002060008573ffffffffffffffffffffffffffffffffffffffff1673ffffffffffffffffffffffffffffffffffffffff168152602001908152602001600020819055508273ffffffffffffffffffffffffffffffffffffffff168473ffffffffffffffffffffffffffffffffffffffff167f8c5be1e5ebec7d5bd14f71427d1e84f3dd0314c0f7b2291e5b200ac8c7c3b925846040516108149190610fdf565b60405180910390a350505050565b60008061082d61056d565b9050806001015491505090565b600061084461056d565b9050818160030160008673ffffffffffffffffffffffffffffffffffffffff1673ffffffffffffffffffffffffffffffffffffffff168152602001908152602001600020600061089261059a565b73ffffffffffffffffffffffffffffffffffffffff1673ffffffffffffffffffffffffffffffffffffffff16815260200190815260200160002054101561090e576040517f08c379a000000000000000000000000000000000000000000000000000000000815260040161090590611364565b60405180910390fd5b818160030160008673ffffffffffffffffffffffffffffffffffffffff1673ffffffffffffffffffffffffffffffffffffffff168152602001908152602001600020600061095a61059a565b73ffffffffffffffffffffffffffffffffffffffff1673ffffffffffffffffffffffffffffffffffffffff16815260200190815260200160002060008282546109a391906113b3565b925050819055506109b5848484610a2c565b50505050565b6000806109c661056d565b9050806000015491505090565b6000806109de61056d565b90508060020160008473ffffffffffffffffffffffffffffffffffffffff1673ffffffffffffffffffffffffffffffffffffffff16815260200190815260200160002054915050919050565b565b6000610a3661056d565b9050600073ffffffffffffffffffffffffffffffffffffffff168473ffffffffffffffffffffffffffffffffffffffff1603610aa7576040517f08c379a0000000000000000000000000000000000000000000000000000000008152600401610a9e90611433565b60405180910390fd5b600073ffffffffffffffffffffffffffffffffffffffff168373ffffffffffffffffffffffffffffffffffffffff1603610b16576040517f08c379a0000000000000000000000000000000000000000000000000000000008152600401610b0d9061149f565b60405180910390fd5b60008211610b59576040517f08c379a0000000000000000000000000000000000000000000000000000000008152600401610b5090611531565b60405180910390fd5b818160020160008673ffffffffffffffffffffffffffffffffffffffff1673ffffffffffffffffffffffffffffffffffffffff168152602001908152602001600020541015610bdd576040517f08c379a0000000000000000000000000000000000000000000000000000000008152600401610bd49061159d565b60405180910390fd5b818160020160008673ffffffffffffffffffffffffffffffffffffffff1673ffffffffffffffffffffffffffffffffffffffff1681526020019081526020016000206000828254610c2e91906113b3565b92505081905550818160020160008573ffffffffffffffffffffffffffffffffffffffff1673ffffffffffffffffffffffffffffffffffffffff1681526020019081526020016000206000828254610c8691906115bd565b925050819055508273ffffffffffffffffffffffffffffffffffffffff168473ffffffffffffffffffffffffffffffffffffffff167fddf252ad1be2c89b69c2b068fc378daa952ba7f163c4a11628f55a4df523b3ef84604051610cea9190610fdf565b60405180910390a350505050565b600080610d0361056d565b90508060030160008573ffffffffffffffffffffffffffffffffffffffff1673ffffffffffffffffffffffffffffffffffffffff16815260200190815260200160002060008473ffffffffffffffffffffffffffffffffffffffff1673ffffffffffffffffffffffffffffffffffffffff1681526020019081526020016000205491505092915050565b6000610d97610e94565b90506000610da361056d565b905083816001018190555082816000018190555083816002016000610dc661059a565b73ffffffffffffffffffffffffffffffffffffffff1673ffffffffffffffffffffffffffffffffffffffff16815260200190815260200160002081905550610e0c61059a565b73ffffffffffffffffffffffffffffffffffffffff16600073ffffffffffffffffffffffffffffffffffffffff167fddf252ad1be2c89b69c2b068fc378daa952ba7f163c4a11628f55a4df523b3ef86604051610e699190610fdf565b60405180910390a360018160060160006101000a81548160ff02191690831515021790555050505050565b6000807ffb5f9bce5f7fbdcd10da4fc50325b76117b61254b1eb429f0cacf74a65cc34ad90508091505090565b600080fd5b600073ffffffffffffffffffffffffffffffffffffffff82169050919050565b6000610ef182610ec6565b9050919050565b610f0181610ee6565b8114610f0c57600080fd5b50565b600081359050610f1e81610ef8565b92915050565b6000819050919050565b610f3781610f24565b8114610f4257600080fd5b50565b600081359050610f5481610f2e565b92915050565b60008060408385031215610f7157610f70610ec1565b5b6000610f7f85828601610f0f565b9250506020610f9085828601610f45565b9150509250929050565b60008115159050919050565b610faf81610f9a565b82525050565b6000602082019050610fca6000830184610fa6565b92915050565b610fd981610f24565b82525050565b6000602082019050610ff46000830184610fd0565b92915050565b60008060006060848603121561101357611012610ec1565b5b600061102186828701610f0f565b935050602061103286828701610f0f565b925050604061104386828701610f45565b9150509250925092565b600060ff82169050919050565b6110638161104d565b82525050565b600060208201905061107e600083018461105a565b92915050565b60006020828403121561109a57611099610ec1565b5b60006110a884828501610f0f565b91505092915050565b600080604083850312156110c8576110c7610ec1565b5b60006110d685828601610f0f565b92505060206110e785828601610f0f565b9150509250929050565b6000806040838503121561110857611107610ec1565b5b600061111685828601610f45565b925050602061112785828601610f45565b9150509250929050565b600082825260208201905092915050565b7f4e4f5420494e495449414c495a45440000000000000000000000000000000000600082015250565b6000611178600f83611131565b915061118382611142565b602082019050919050565b600060208201905081810360008301526111a78161116b565b9050919050565b7f414c524541445920494e495449414c495a454400000000000000000000000000600082015250565b60006111e4601383611131565b91506111ef826111ae565b602082019050919050565b60006020820190508181036000830152611213816111d7565b9050919050565b7f617070726f76652066726f6d20746865207a65726f2061646472657373000000600082015250565b6000611250601d83611131565b915061125b8261121a565b602082019050919050565b6000602082019050818103600083015261127f81611243565b9050919050565b7f617070726f766520746f20746865207a65726f20616464726573730000000000600082015250565b60006112bc601b83611131565b91506112c782611286565b602082019050919050565b600060208201905081810360008301526112eb816112af565b9050919050565b7f7472616e7366657220616d6f756e74206578636565647320616c6c6f77616e6360008201527f6500000000000000000000000000000000000000000000000000000000000000602082015250565b600061134e602183611131565b9150611359826112f2565b604082019050919050565b6000602082019050818103600083015261137d81611341565b9050919050565b7f4e487b7100000000000000000000000000000000000000000000000000000000600052601160045260246000fd5b60006113be82610f24565b91506113c983610f24565b92508282039050818111156113e1576113e0611384565b5b92915050565b7f7472616e736665722066726f6d20746865207a65726f20616464726573730000600082015250565b600061141d601e83611131565b9150611428826113e7565b602082019050919050565b6000602082019050818103600083015261144c81611410565b9050919050565b7f7472616e7366657220746f20746865207a65726f206164647265737300000000600082015250565b6000611489601c83611131565b915061149482611453565b602082019050919050565b600060208201905081810360008301526114b88161147c565b9050919050565b7f7472616e736665722076616c7565206d7573742062652067726561746572207460008201527f68616e207a65726f000000000000000000000000000000000000000000000000602082015250565b600061151b602883611131565b9150611526826114bf565b604082019050919050565b6000602082019050818103600083015261154a8161150e565b9050919050565b7f7472616e7366657220616d6f756e7420657863656564732062616c616e636500600082015250565b6000611587601f83611131565b915061159282611551565b602082019050919050565b600060208201905081810360008301526115b68161157a565b9050919050565b60006115c882610f24565b91506115d383610f24565b92508282019050808211156115eb576115ea611384565b5b9291505056fea26469706673582212202d872a5efc3c06b5437424f5efa6bc5f7f3fcac40b0087e1630021ef4ef2323e64736f6c63430008120033",
  "linkReferences": {},
  "deployedLinkReferences": {}
}