{
  "_format": "hh-sol-artifact-1",
  "contractName": "AccessControl",
  "sourceName": "contracts/shared/facets/AccessControl/AccessControl/AccessControl.sol",
  "abi": [
    {
      "inputs": [
        {
          "internalType": "address",
          "name": "account",
          "type": "address"
        }
      ],
      "name": "getMemberRoles",
      "outputs": [
        {
          "internalType": "bytes32[]",
          "name": "members",
          "type": "bytes32[]"
        }
      ],
      "stateMutability": "view",
      "type": "function"
    },
    {
      "inputs": [
        {
          "internalType": "bytes32",
          "name": "roleId",
          "type": "bytes32"
        }
      ],
      "name": "getRoleAdmin",
      "outputs": [
        {
          "internalType": "bytes32",
          "name": "",
          "type": "bytes32"
        }
      ],
      "stateMutability": "view",
      "type": "function"
    },
    {
      "inputs": [
        {
          "internalType": "bytes32",
          "name": "roleId",
          "type": "bytes32"
        }
      ],
      "name": "getRoleMembers",
      "outputs": [
        {
          "internalType": "address[]",
          "name": "members",
          "type": "address[]"
        }
      ],
      "stateMutability": "view",
      "type": "function"
    },
    {
      "inputs": [
        {
          "internalType": "bytes32",
          "name": "roleId",
          "type": "bytes32"
        },
        {
          "internalType": "address",
          "name": "account",
          "type": "address"
        }
      ],
      "name": "grantRole",
      "outputs": [],
      "stateMutability": "nonpayable",
      "type": "function"
    },
    {
      "inputs": [
        {
          "internalType": "bytes32",
          "name": "roleId",
          "type": "bytes32"
        },
        {
          "internalType": "address",
          "name": "account",
          "type": "address"
        }
      ],
      "name": "hasRole",
      "outputs": [
        {
          "internalType": "bool",
          "name": "",
          "type": "bool"
        }
      ],
      "stateMutability": "view",
      "type": "function"
    },
    {
      "inputs": [
        {
          "internalType": "bytes32",
          "name": "roleId",
          "type": "bytes32"
        },
        {
          "internalType": "address",
          "name": "account",
          "type": "address"
        }
      ],
      "name": "revokeRole",
      "outputs": [],
      "stateMutability": "nonpayable",
      "type": "function"
    },
    {
      "inputs": [
        {
          "internalType": "bytes32",
          "name": "roleId",
          "type": "bytes32"
        },
        {
          "internalType": "bytes32",
          "name": "adminRoleId",
          "type": "bytes32"
        }
      ],
      "name": "setRoleAdmin",
      "outputs": [],
      "stateMutability": "nonpayable",
      "type": "function"
    }
  ],
  "bytecode": "0x608060405234801561001057600080fd5b5061122b806100206000396000f3fe608060405234801561001057600080fd5b506004361061007d5760003560e01c80638cccf8091161005b5780638cccf809146100ea57806391d148541461011a578063a3246ad31461014a578063d547741f1461017a5761007d565b80631e4e009114610082578063248a9ca31461009e5780632f2ff15d146100ce575b600080fd5b61009c60048036038101906100979190610bc3565b610196565b005b6100b860048036038101906100b39190610c03565b6101fe565b6040516100c59190610c3f565b60405180910390f35b6100e860048036038101906100e39190610cb8565b610210565b005b61010460048036038101906100ff9190610cf8565b610278565b6040516101119190610de3565b60405180910390f35b610134600480360381019061012f9190610cb8565b6102d9565b6040516101419190610e20565b60405180910390f35b610164600480360381019061015f9190610c03565b6102ed565b6040516101719190610ef9565b60405180910390f35b610194600480360381019061018f9190610cb8565b610384565b005b61019f826103ec565b6101b0816101ab610417565b6104c7565b6101ef576040517f08c379a00000000000000000000000000000000000000000000000000000000081526004016101e690610f9e565b60405180910390fd5b6101f9838361053d565b505050565b6000610209826103ec565b9050919050565b610219826103ec565b61022a81610225610417565b6104c7565b610269576040517f08c379a000000000000000000000000000000000000000000000000000000000815260040161026090610f9e565b60405180910390fd5b610273838361054b565b505050565b606061028382610559565b8054806020026020016040519081016040528092919081815260200182805480156102cd57602002820191906000526020600020905b8154815260200190600101908083116102b9575b50505050509050919050565b60006102e583836104c7565b905092915050565b60606102f8826105af565b80548060200260200160405190810160405280929190818152602001828054801561037857602002820191906000526020600020905b8160009054906101000a900473ffffffffffffffffffffffffffffffffffffffff1673ffffffffffffffffffffffffffffffffffffffff168152602001906001019080831161032e575b50505050509050919050565b61038d826103ec565b61039e81610399610417565b6104c7565b6103dd576040517f08c379a00000000000000000000000000000000000000000000000000000000081526004016103d490610f9e565b60405180910390fd5b6103e783836105d9565b505050565b6000806103f76105e7565b905080600301600084815260200190815260200160002054915050919050565b60003073ffffffffffffffffffffffffffffffffffffffff163373ffffffffffffffffffffffffffffffffffffffff16036104c057600080368080601f016020809104026020016040519081016040528093929190818152602001838380828437600081840152601f19601f820116905080830192505050505050509050600080369050905073ffffffffffffffffffffffffffffffffffffffff8183015116925050506104c4565b3390505b90565b6000806104d26105e7565b905080600001600085815260200190815260200160002060008473ffffffffffffffffffffffffffffffffffffffff1673ffffffffffffffffffffffffffffffffffffffff16815260200190815260200160002060009054906101000a900460ff1691505092915050565b6105478282610614565b5050565b610555828261063f565b5050565b6000806105646105e7565b90508060010160008473ffffffffffffffffffffffffffffffffffffffff1673ffffffffffffffffffffffffffffffffffffffff168152602001908152602001600020915050919050565b6000806105ba6105e7565b9050806002016000848152602001908152602001600020915050919050565b6105e382826107e3565b5050565b6000807ffb5f9bce5f7fbdcd10da4fc50325b76117b61254b1eb429f0cacf74a65cc34ad90508091505090565b600061061e6105e7565b90508181600301600085815260200190815260200160002081905550505050565b60006106496105e7565b905061065583836104c7565b15610695576040517f08c379a000000000000000000000000000000000000000000000000000000000815260040161068c90611030565b60405180910390fd5b600181600001600085815260200190815260200160002060008473ffffffffffffffffffffffffffffffffffffffff1673ffffffffffffffffffffffffffffffffffffffff16815260200190815260200160002060006101000a81548160ff0219169083151502179055508060010160008373ffffffffffffffffffffffffffffffffffffffff1673ffffffffffffffffffffffffffffffffffffffff168152602001908152602001600020839080600181540180825580915050600190039060005260206000200160009091909190915055806002016000848152602001908152602001600020829080600181540180825580915050600190039060005260206000200160009091909190916101000a81548173ffffffffffffffffffffffffffffffffffffffff021916908373ffffffffffffffffffffffffffffffffffffffff160217905550505050565b60006107ed6105e7565b90506107f983836104c7565b610838576040517f08c379a000000000000000000000000000000000000000000000000000000000815260040161082f906110c2565b60405180910390fd5b80600001600084815260200190815260200160002060008373ffffffffffffffffffffffffffffffffffffffff1673ffffffffffffffffffffffffffffffffffffffff16815260200190815260200160002060006101000a81549060ff02191690556108e48160010160008473ffffffffffffffffffffffffffffffffffffffff1673ffffffffffffffffffffffffffffffffffffffff16815260200190815260200160002084610907565b610902816002016000858152602001908152602001600020836109e5565b505050565b60005b82805490508110156109e0578183828154811061092a576109296110e2565b5b9060005260206000200154036109cd576001838054905061094b919061114a565b81146109a1578260018480549050610963919061114a565b81548110610974576109736110e2565b5b9060005260206000200154838281548110610992576109916110e2565b5b90600052602060002001819055505b828054806109b2576109b161117e565b5b600190038181906000526020600020016000905590556109e0565b80806109d8906111ad565b91505061090a565b505050565b60005b8280549050811015610b83578173ffffffffffffffffffffffffffffffffffffffff16838281548110610a1e57610a1d6110e2565b5b9060005260206000200160009054906101000a900473ffffffffffffffffffffffffffffffffffffffff1673ffffffffffffffffffffffffffffffffffffffff1603610b705760018380549050610a75919061114a565b8114610b25578260018480549050610a8d919061114a565b81548110610a9e57610a9d6110e2565b5b9060005260206000200160009054906101000a900473ffffffffffffffffffffffffffffffffffffffff16838281548110610adc57610adb6110e2565b5b9060005260206000200160006101000a81548173ffffffffffffffffffffffffffffffffffffffff021916908373ffffffffffffffffffffffffffffffffffffffff1602179055505b82805480610b3657610b3561117e565b5b6001900381819060005260206000200160006101000a81549073ffffffffffffffffffffffffffffffffffffffff02191690559055610b83565b8080610b7b906111ad565b9150506109e8565b505050565b600080fd5b6000819050919050565b610ba081610b8d565b8114610bab57600080fd5b50565b600081359050610bbd81610b97565b92915050565b60008060408385031215610bda57610bd9610b88565b5b6000610be885828601610bae565b9250506020610bf985828601610bae565b9150509250929050565b600060208284031215610c1957610c18610b88565b5b6000610c2784828501610bae565b91505092915050565b610c3981610b8d565b82525050565b6000602082019050610c546000830184610c30565b92915050565b600073ffffffffffffffffffffffffffffffffffffffff82169050919050565b6000610c8582610c5a565b9050919050565b610c9581610c7a565b8114610ca057600080fd5b50565b600081359050610cb281610c8c565b92915050565b60008060408385031215610ccf57610cce610b88565b5b6000610cdd85828601610bae565b9250506020610cee85828601610ca3565b9150509250929050565b600060208284031215610d0e57610d0d610b88565b5b6000610d1c84828501610ca3565b91505092915050565b600081519050919050565b600082825260208201905092915050565b6000819050602082019050919050565b610d5a81610b8d565b82525050565b6000610d6c8383610d51565b60208301905092915050565b6000602082019050919050565b6000610d9082610d25565b610d9a8185610d30565b9350610da583610d41565b8060005b83811015610dd6578151610dbd8882610d60565b9750610dc883610d78565b925050600181019050610da9565b5085935050505092915050565b60006020820190508181036000830152610dfd8184610d85565b905092915050565b60008115159050919050565b610e1a81610e05565b82525050565b6000602082019050610e356000830184610e11565b92915050565b600081519050919050565b600082825260208201905092915050565b6000819050602082019050919050565b610e7081610c7a565b82525050565b6000610e828383610e67565b60208301905092915050565b6000602082019050919050565b6000610ea682610e3b565b610eb08185610e46565b9350610ebb83610e57565b8060005b83811015610eec578151610ed38882610e76565b9750610ede83610e8e565b925050600181019050610ebf565b5085935050505092915050565b60006020820190508181036000830152610f138184610e9b565b905092915050565b600082825260208201905092915050565b7f416363657373436f6e74726f6c3a2073656e64657220646f6573206e6f74206860008201527f61766520726f6c65000000000000000000000000000000000000000000000000602082015250565b6000610f88602883610f1b565b9150610f9382610f2c565b604082019050919050565b60006020820190508181036000830152610fb781610f7b565b9050919050565b7f416363657373436f6e74726f6c3a206163636f756e7420616c7265616479206860008201527f617320726f6c6500000000000000000000000000000000000000000000000000602082015250565b600061101a602783610f1b565b915061102582610fbe565b604082019050919050565b600060208201905081810360008301526110498161100d565b9050919050565b7f416363657373436f6e74726f6c3a206163636f756e7420646f6573206e6f742060008201527f6861766520726f6c650000000000000000000000000000000000000000000000602082015250565b60006110ac602983610f1b565b91506110b782611050565b604082019050919050565b600060208201905081810360008301526110db8161109f565b9050919050565b7f4e487b7100000000000000000000000000000000000000000000000000000000600052603260045260246000fd5b6000819050919050565b7f4e487b7100000000000000000000000000000000000000000000000000000000600052601160045260246000fd5b600061115582611111565b915061116083611111565b92508282039050818111156111785761117761111b565b5b92915050565b7f4e487b7100000000000000000000000000000000000000000000000000000000600052603160045260246000fd5b60006111b882611111565b91507fffffffffffffffffffffffffffffffffffffffffffffffffffffffffffffffff82036111ea576111e961111b565b5b60018201905091905056fea2646970667358221220b8b45c8db9162ba562f3aa318499fb7189df8d0d20ab64f55df4d6b1fb6a200e64736f6c63430008120033",
  "linkReferences": {},
  "deployedLinkReferences": {}
}