{
  "_format": "hh-sol-artifact-1",
  "contractName": "IPFS",
  "sourceName": "contracts/shared/facets/IPFS/IPFSInternal.sol",
  "abi": [
    {
      "inputs": [
        {
          "internalType": "string",
          "name": "_hash",
          "type": "string"
        }
      ],
      "name": "IPFSCIDExists",
      "type": "error"
    },
    {
      "inputs": [
        {
          "internalType": "string",
          "name": "_cid",
          "type": "string"
        },
        {
          "internalType": "string",
          "name": "_fileName",
          "type": "string"
        },
        {
          "internalType": "bytes",
          "name": "_hash",
          "type": "bytes"
        }
      ],
      "name": "addHash",
      "outputs": [],
      "stateMutability": "nonpayable",
      "type": "function"
    },
    {
      "inputs": [
        {
          "internalType": "uint256",
          "name": "_id",
          "type": "uint256"
        }
      ],
      "name": "getHash",
      "outputs": [
        {
          "internalType": "string",
          "name": "cid_",
          "type": "string"
        }
      ],
      "stateMutability": "view",
      "type": "function"
    }
  ],
  "bytecode": "0x608060405234801561001057600080fd5b50610d41806100206000396000f3fe608060405234801561001057600080fd5b50600436106100365760003560e01c80631da1dd3d1461003b5780636b2fafa914610057575b600080fd5b61005560048036038101906100509190610614565b610087565b005b610071600480360381019061006c91906106f1565b610098565b60405161007e919061079d565b60405180910390f35b6100928383836100aa565b50505050565b60606100a38261018a565b9050919050565b60006100b584610288565b156100f757836040517f111ec7ed0000000000000000000000000000000000000000000000000000000081526004016100ee919061079d565b60405180910390fd5b6000610101610384565b6001015490506000610111610384565b600001600083815260200190815260200160002090508581600001908161013891906109cb565b508481600101908161014a91906109cb565b508381600201908161015c9190610b03565b50610165610384565b600101600081548092919061017990610c04565b919050555081925050509392505050565b6060610194610384565b6001015482106101d9576040517f08c379a00000000000000000000000000000000000000000000000000000000081526004016101d090610c98565b60405180910390fd5b6101e1610384565b60000160008381526020019081526020016000206000018054610203906107ee565b80601f016020809104026020016040519081016040528092919081815260200182805461022f906107ee565b801561027c5780601f106102515761010080835404028352916020019161027c565b820191906000526020600020905b81548152906001019060200180831161025f57829003601f168201915b50505050509050919050565b600080610293610384565b60010154905060005b8181101561037d5760006102ae610384565b600001600083815260200190815260200160002060000180546102d0906107ee565b80601f01602080910402602001604051908101604052809291908181526020018280546102fc906107ee565b80156103495780601f1061031e57610100808354040283529160200191610349565b820191906000526020600020905b81548152906001019060200180831161032c57829003601f168201915b5050505050905061035a8582610393565b1561036957600193505061037d565b50808061037590610c04565b91505061029c565b5050919050565b600061038e6103ec565b905090565b6000816040516020016103a69190610cf4565b60405160208183030381529060405280519060200120836040516020016103cd9190610cf4565b6040516020818303038152906040528051906020012014905092915050565b6000807f069f7dcb526aea615718c40a65928dbbd1cc8280c447d867f37ec52c0b84025f90508091505090565b6000604051905090565b600080fd5b600080fd5b600080fd5b600080fd5b6000601f19601f8301169050919050565b7f4e487b7100000000000000000000000000000000000000000000000000000000600052604160045260246000fd5b61048082610437565b810181811067ffffffffffffffff8211171561049f5761049e610448565b5b80604052505050565b60006104b2610419565b90506104be8282610477565b919050565b600067ffffffffffffffff8211156104de576104dd610448565b5b6104e782610437565b9050602081019050919050565b82818337600083830152505050565b6000610516610511846104c3565b6104a8565b90508281526020810184848401111561053257610531610432565b5b61053d8482856104f4565b509392505050565b600082601f83011261055a5761055961042d565b5b813561056a848260208601610503565b91505092915050565b600067ffffffffffffffff82111561058e5761058d610448565b5b61059782610437565b9050602081019050919050565b60006105b76105b284610573565b6104a8565b9050828152602081018484840111156105d3576105d2610432565b5b6105de8482856104f4565b509392505050565b600082601f8301126105fb576105fa61042d565b5b813561060b8482602086016105a4565b91505092915050565b60008060006060848603121561062d5761062c610423565b5b600084013567ffffffffffffffff81111561064b5761064a610428565b5b61065786828701610545565b935050602084013567ffffffffffffffff81111561067857610677610428565b5b61068486828701610545565b925050604084013567ffffffffffffffff8111156106a5576106a4610428565b5b6106b1868287016105e6565b9150509250925092565b6000819050919050565b6106ce816106bb565b81146106d957600080fd5b50565b6000813590506106eb816106c5565b92915050565b60006020828403121561070757610706610423565b5b6000610715848285016106dc565b91505092915050565b600081519050919050565b600082825260208201905092915050565b60005b8381101561075857808201518184015260208101905061073d565b60008484015250505050565b600061076f8261071e565b6107798185610729565b935061078981856020860161073a565b61079281610437565b840191505092915050565b600060208201905081810360008301526107b78184610764565b905092915050565b7f4e487b7100000000000000000000000000000000000000000000000000000000600052602260045260246000fd5b6000600282049050600182168061080657607f821691505b602082108103610819576108186107bf565b5b50919050565b60008190508160005260206000209050919050565b60006020601f8301049050919050565b600082821b905092915050565b6000600883026108817fffffffffffffffffffffffffffffffffffffffffffffffffffffffffffffffff82610844565b61088b8683610844565b95508019841693508086168417925050509392505050565b6000819050919050565b60006108c86108c36108be846106bb565b6108a3565b6106bb565b9050919050565b6000819050919050565b6108e2836108ad565b6108f66108ee826108cf565b848454610851565b825550505050565b600090565b61090b6108fe565b6109168184846108d9565b505050565b5b8181101561093a5761092f600082610903565b60018101905061091c565b5050565b601f82111561097f576109508161081f565b61095984610834565b81016020851015610968578190505b61097c61097485610834565b83018261091b565b50505b505050565b600082821c905092915050565b60006109a260001984600802610984565b1980831691505092915050565b60006109bb8383610991565b9150826002028217905092915050565b6109d48261071e565b67ffffffffffffffff8111156109ed576109ec610448565b5b6109f782546107ee565b610a0282828561093e565b600060209050601f831160018114610a355760008415610a23578287015190505b610a2d85826109af565b865550610a95565b601f198416610a438661081f565b60005b82811015610a6b57848901518255600182019150602085019450602081019050610a46565b86831015610a885784890151610a84601f891682610991565b8355505b6001600288020188555050505b505050505050565b600081519050919050565b60008190508160005260206000209050919050565b601f821115610afe57610acf81610aa8565b610ad884610834565b81016020851015610ae7578190505b610afb610af385610834565b83018261091b565b50505b505050565b610b0c82610a9d565b67ffffffffffffffff811115610b2557610b24610448565b5b610b2f82546107ee565b610b3a828285610abd565b600060209050601f831160018114610b6d5760008415610b5b578287015190505b610b6585826109af565b865550610bcd565b601f198416610b7b86610aa8565b60005b82811015610ba357848901518255600182019150602085019450602081019050610b7e565b86831015610bc05784890151610bbc601f891682610991565b8355505b6001600288020188555050505b505050505050565b7f4e487b7100000000000000000000000000000000000000000000000000000000600052601160045260246000fd5b6000610c0f826106bb565b91507fffffffffffffffffffffffffffffffffffffffffffffffffffffffffffffffff8203610c4157610c40610bd5565b5b600182019050919050565b7f496e76616c696420494400000000000000000000000000000000000000000000600082015250565b6000610c82600a83610729565b9150610c8d82610c4c565b602082019050919050565b60006020820190508181036000830152610cb181610c75565b9050919050565b600081905092915050565b6000610cce8261071e565b610cd88185610cb8565b9350610ce881856020860161073a565b80840191505092915050565b6000610d008284610cc3565b91508190509291505056fea2646970667358221220777ee485125f5293faf09173933c4984b398c4082215140e46e10a16a9514ceb64736f6c63430008120033",
  "linkReferences": {},
  "deployedLinkReferences": {}
}