{
  "_format": "hh-sol-artifact-1",
  "contractName": "CopperAirdrop",
  "sourceName": "contracts/CopperAirdrop/CopperAirdrop.sol",
  "abi": [
    {
      "inputs": [
        {
          "internalType": "address",
          "name": "_copperTokenAddress",
          "type": "address"
        }
      ],
      "stateMutability": "nonpayable",
      "type": "constructor"
    },
    {
      "inputs": [],
      "name": "airdropAmount",
      "outputs": [
        {
          "internalType": "uint256",
          "name": "",
          "type": "uint256"
        }
      ],
      "stateMutability": "view",
      "type": "function"
    },
    {
      "inputs": [
        {
          "internalType": "address[]",
          "name": "recipients",
          "type": "address[]"
        }
      ],
      "name": "airdropTokens",
      "outputs": [],
      "stateMutability": "nonpayable",
      "type": "function"
    },
    {
      "inputs": [],
      "name": "claimAirdrop",
      "outputs": [],
      "stateMutability": "nonpayable",
      "type": "function"
    },
    {
      "inputs": [],
      "name": "copperToken",
      "outputs": [
        {
          "internalType": "contract CopperToken",
          "name": "",
          "type": "address"
        }
      ],
      "stateMutability": "view",
      "type": "function"
    },
    {
      "inputs": [
        {
          "internalType": "address",
          "name": "",
          "type": "address"
        }
      ],
      "name": "hasClaimed",
      "outputs": [
        {
          "internalType": "bool",
          "name": "",
          "type": "bool"
        }
      ],
      "stateMutability": "view",
      "type": "function"
    },
    {
      "inputs": [],
      "name": "owner",
      "outputs": [
        {
          "internalType": "address",
          "name": "",
          "type": "address"
        }
      ],
      "stateMutability": "view",
      "type": "function"
    }
  ],
  "bytecode": "0x60806040526101f460025534801561001657600080fd5b50604051610bd5380380610bd583398181016040528101906100389190610122565b336000806101000a81548173ffffffffffffffffffffffffffffffffffffffff021916908373ffffffffffffffffffffffffffffffffffffffff16021790555080600160006101000a81548173ffffffffffffffffffffffffffffffffffffffff021916908373ffffffffffffffffffffffffffffffffffffffff1602179055505061014f565b600080fd5b600073ffffffffffffffffffffffffffffffffffffffff82169050919050565b60006100ef826100c4565b9050919050565b6100ff816100e4565b811461010a57600080fd5b50565b60008151905061011c816100f6565b92915050565b600060208284031215610138576101376100bf565b5b60006101468482850161010d565b91505092915050565b610a778061015e6000396000f3fe608060405234801561001057600080fd5b50600436106100625760003560e01c80634ee51a27146100675780635b88349d1461008357806373b2e80e1461008d5780638da5cb5b146100bd57806398e35515146100db578063fc2ea8a5146100f9575b600080fd5b610081600480360381019061007c91906105c5565b610117565b005b61008b61036e565b005b6100a760048036038101906100a29190610670565b6104e6565b6040516100b491906106b8565b60405180910390f35b6100c5610506565b6040516100d291906106e2565b60405180910390f35b6100e361052a565b6040516100f0919061075c565b60405180910390f35b610101610550565b60405161010e9190610790565b60405180910390f35b60008054906101000a900473ffffffffffffffffffffffffffffffffffffffff1673ffffffffffffffffffffffffffffffffffffffff163373ffffffffffffffffffffffffffffffffffffffff16146101a5576040517f08c379a000000000000000000000000000000000000000000000000000000000815260040161019c9061082e565b60405180910390fd5b60005b828290508110156103695760008383838181106101c8576101c761084e565b5b90506020020160208101906101dd9190610670565b9050600360008273ffffffffffffffffffffffffffffffffffffffff1673ffffffffffffffffffffffffffffffffffffffff16815260200190815260200160002060009054906101000a900460ff161561026c576040517f08c379a0000000000000000000000000000000000000000000000000000000008152600401610263906108ef565b60405180910390fd5b6001600360008373ffffffffffffffffffffffffffffffffffffffff1673ffffffffffffffffffffffffffffffffffffffff16815260200190815260200160002060006101000a81548160ff021916908315150217905550600160009054906101000a900473ffffffffffffffffffffffffffffffffffffffff1673ffffffffffffffffffffffffffffffffffffffff166340c10f19826002546040518363ffffffff1660e01b815260040161032392919061090f565b600060405180830381600087803b15801561033d57600080fd5b505af1158015610351573d6000803e3d6000fd5b5050505050808061036190610967565b9150506101a8565b505050565b600360003373ffffffffffffffffffffffffffffffffffffffff1673ffffffffffffffffffffffffffffffffffffffff16815260200190815260200160002060009054906101000a900460ff16156103fb576040517f08c379a00000000000000000000000000000000000000000000000000000000081526004016103f290610a21565b60405180910390fd5b6001600360003373ffffffffffffffffffffffffffffffffffffffff1673ffffffffffffffffffffffffffffffffffffffff16815260200190815260200160002060006101000a81548160ff021916908315150217905550600160009054906101000a900473ffffffffffffffffffffffffffffffffffffffff1673ffffffffffffffffffffffffffffffffffffffff166340c10f19336002546040518363ffffffff1660e01b81526004016104b292919061090f565b600060405180830381600087803b1580156104cc57600080fd5b505af11580156104e0573d6000803e3d6000fd5b50505050565b60036020528060005260406000206000915054906101000a900460ff1681565b60008054906101000a900473ffffffffffffffffffffffffffffffffffffffff1681565b600160009054906101000a900473ffffffffffffffffffffffffffffffffffffffff1681565b60025481565b600080fd5b600080fd5b600080fd5b600080fd5b600080fd5b60008083601f84011261058557610584610560565b5b8235905067ffffffffffffffff8111156105a2576105a1610565565b5b6020830191508360208202830111156105be576105bd61056a565b5b9250929050565b600080602083850312156105dc576105db610556565b5b600083013567ffffffffffffffff8111156105fa576105f961055b565b5b6106068582860161056f565b92509250509250929050565b600073ffffffffffffffffffffffffffffffffffffffff82169050919050565b600061063d82610612565b9050919050565b61064d81610632565b811461065857600080fd5b50565b60008135905061066a81610644565b92915050565b60006020828403121561068657610685610556565b5b60006106948482850161065b565b91505092915050565b60008115159050919050565b6106b28161069d565b82525050565b60006020820190506106cd60008301846106a9565b92915050565b6106dc81610632565b82525050565b60006020820190506106f760008301846106d3565b92915050565b6000819050919050565b600061072261071d61071884610612565b6106fd565b610612565b9050919050565b600061073482610707565b9050919050565b600061074682610729565b9050919050565b6107568161073b565b82525050565b6000602082019050610771600083018461074d565b92915050565b6000819050919050565b61078a81610777565b82525050565b60006020820190506107a56000830184610781565b92915050565b600082825260208201905092915050565b7f4f6e6c792074686520636f6e7472616374206f776e65722063616e207065726660008201527f6f726d207468697320616374696f6e0000000000000000000000000000000000602082015250565b6000610818602f836107ab565b9150610823826107bc565b604082019050919050565b600060208201905081810360008301526108478161080b565b9050919050565b7f4e487b7100000000000000000000000000000000000000000000000000000000600052603260045260246000fd5b7f416464726573732068617320616c726561647920636c61696d6564207468652060008201527f61697264726f7000000000000000000000000000000000000000000000000000602082015250565b60006108d96027836107ab565b91506108e48261087d565b604082019050919050565b60006020820190508181036000830152610908816108cc565b9050919050565b600060408201905061092460008301856106d3565b6109316020830184610781565b9392505050565b7f4e487b7100000000000000000000000000000000000000000000000000000000600052601160045260246000fd5b600061097282610777565b91507fffffffffffffffffffffffffffffffffffffffffffffffffffffffffffffffff82036109a4576109a3610938565b5b600182019050919050565b7f596f75206861766520616c726561647920636c61696d6564207468652061697260008201527f64726f7000000000000000000000000000000000000000000000000000000000602082015250565b6000610a0b6024836107ab565b9150610a16826109af565b604082019050919050565b60006020820190508181036000830152610a3a816109fe565b905091905056fea2646970667358221220ce9e72613acf7bc38507d160d723b088cf88da3e3cfb28f28bdaf79c4d85d68d64736f6c63430008120033",
  "linkReferences": {},
  "deployedLinkReferences": {}
}