{
  "_format": "hh-sol-artifact-1",
  "contractName": "ERC20MintBurn",
  "sourceName": "contracts/shared/facets/ERC20/extension/ERC20MintBurn.sol",
  "abi": [
    {
      "anonymous": false,
      "inputs": [
        {
          "indexed": true,
          "internalType": "address",
          "name": "account",
          "type": "address"
        }
      ],
      "name": "BurnerAdded",
      "type": "event"
    },
    {
      "anonymous": false,
      "inputs": [
        {
          "indexed": true,
          "internalType": "address",
          "name": "account",
          "type": "address"
        }
      ],
      "name": "BurnerRemoved",
      "type": "event"
    },
    {
      "anonymous": false,
      "inputs": [
        {
          "indexed": true,
          "internalType": "address",
          "name": "account",
          "type": "address"
        }
      ],
      "name": "MintBurnAdminAdded",
      "type": "event"
    },
    {
      "anonymous": false,
      "inputs": [
        {
          "indexed": true,
          "internalType": "address",
          "name": "account",
          "type": "address"
        }
      ],
      "name": "MintBurnAdminRemoved",
      "type": "event"
    },
    {
      "anonymous": false,
      "inputs": [
        {
          "indexed": true,
          "internalType": "address",
          "name": "account",
          "type": "address"
        }
      ],
      "name": "MinterAdded",
      "type": "event"
    },
    {
      "anonymous": false,
      "inputs": [
        {
          "indexed": true,
          "internalType": "address",
          "name": "account",
          "type": "address"
        }
      ],
      "name": "MinterRemoved",
      "type": "event"
    },
    {
      "inputs": [
        {
          "internalType": "address",
          "name": "account",
          "type": "address"
        }
      ],
      "name": "addBurner",
      "outputs": [],
      "stateMutability": "nonpayable",
      "type": "function"
    },
    {
      "inputs": [
        {
          "internalType": "address",
          "name": "account",
          "type": "address"
        }
      ],
      "name": "addMintBurnAdmin",
      "outputs": [],
      "stateMutability": "nonpayable",
      "type": "function"
    },
    {
      "inputs": [
        {
          "internalType": "address",
          "name": "account",
          "type": "address"
        }
      ],
      "name": "addMinter",
      "outputs": [],
      "stateMutability": "nonpayable",
      "type": "function"
    },
    {
      "inputs": [
        {
          "internalType": "uint256",
          "name": "value",
          "type": "uint256"
        }
      ],
      "name": "burn",
      "outputs": [],
      "stateMutability": "nonpayable",
      "type": "function"
    },
    {
      "inputs": [
        {
          "internalType": "address",
          "name": "account",
          "type": "address"
        },
        {
          "internalType": "uint256",
          "name": "value",
          "type": "uint256"
        }
      ],
      "name": "mint",
      "outputs": [],
      "stateMutability": "nonpayable",
      "type": "function"
    },
    {
      "inputs": [
        {
          "internalType": "address",
          "name": "account",
          "type": "address"
        }
      ],
      "name": "removeBurner",
      "outputs": [],
      "stateMutability": "nonpayable",
      "type": "function"
    },
    {
      "inputs": [
        {
          "internalType": "address",
          "name": "account",
          "type": "address"
        }
      ],
      "name": "removeMintBurnAdmin",
      "outputs": [],
      "stateMutability": "nonpayable",
      "type": "function"
    },
    {
      "inputs": [
        {
          "internalType": "address",
          "name": "account",
          "type": "address"
        }
      ],
      "name": "removeMinter",
      "outputs": [],
      "stateMutability": "nonpayable",
      "type": "function"
    }
  ],
  "bytecode": "0x608060405234801561001057600080fd5b50611b54806100206000396000f3fe608060405234801561001057600080fd5b50600436106100885760003560e01c80638dbff5cc1161005b5780638dbff5cc146100fd578063983b2d5614610119578063e45b973b14610135578063f44637ba1461015157610088565b8063028468581461008d5780633092afd5146100a957806340c10f19146100c557806342966c68146100e1575b600080fd5b6100a760048036038101906100a2919061132c565b61016d565b005b6100c360048036038101906100be919061132c565b6101aa565b005b6100df60048036038101906100da919061138f565b6101e7565b005b6100fb60048036038101906100f691906113cf565b610291565b005b6101176004803603810190610112919061132c565b610341565b005b610133600480360381019061012e919061132c565b61037e565b005b61014f600480360381019061014a919061132c565b6103bb565b005b61016b6004803603810190610166919061132c565b6103f8565b005b61019e7f524f4c455f45524332305f4d494e545f4255524e5f41444d494e000000000000610199610435565b6104e5565b6101a781610532565b50565b6101db7f524f4c455f45524332305f4d494e545f4255524e5f41444d494e0000000000006101d6610435565b6104e5565b6101e481610611565b50565b60006101f16106f0565b90508060000160009054906101000a900460ff16610244576040517f08c379a000000000000000000000000000000000000000000000000000000000815260040161023b90611459565b60405180910390fd5b600061024e61071d565b90506102817f524f4c455f45524332305f4d494e54455200000000000000000000000000000061027c610435565b6104e5565b61028b848461074a565b50505050565b600061029b6106f0565b90508060000160009054906101000a900460ff166102ee576040517f08c379a00000000000000000000000000000000000000000000000000000000081526004016102e590611459565b60405180910390fd5b60006102f861071d565b905061032b7f524f4c455f45524332305f4255524e4552000000000000000000000000000000610326610435565b6104e5565b61033c610336610435565b8461083d565b505050565b6103727f524f4c455f45524332305f4d494e545f4255524e5f41444d494e00000000000061036d610435565b6104e5565b61037b81610945565b50565b6103af7f524f4c455f45524332305f4d494e545f4255524e5f41444d494e0000000000006103aa610435565b6104e5565b6103b881610a24565b50565b6103ec7f524f4c455f45524332305f4d494e545f4255524e5f41444d494e0000000000006103e7610435565b6104e5565b6103f581610b03565b50565b6104297f524f4c455f45524332305f4d494e545f4255524e5f41444d494e000000000000610424610435565b6104e5565b61043281610be2565b50565b60003073ffffffffffffffffffffffffffffffffffffffff163373ffffffffffffffffffffffffffffffffffffffff16036104de57600080368080601f016020809104026020016040519081016040528093929190818152602001838380828437600081840152601f19601f820116905080830192505050505050509050600080369050905073ffffffffffffffffffffffffffffffffffffffff8183015116925050506104e2565b3390505b90565b6104ef8282610cc1565b61052e576040517f08c379a0000000000000000000000000000000000000000000000000000000008152600401610525906114eb565b60405180910390fd5b5050565b600073ffffffffffffffffffffffffffffffffffffffff168173ffffffffffffffffffffffffffffffffffffffff16036105a1576040517f08c379a00000000000000000000000000000000000000000000000000000000081526004016105989061157d565b60405180910390fd5b6105cb7f524f4c455f45524332305f4255524e455200000000000000000000000000000082610d37565b8073ffffffffffffffffffffffffffffffffffffffff167f90eabbc0c667db2a5029ed6bc0f5fe9f356d11684a4ca9fcfaec0e53f12b9c8e60405160405180910390a250565b600073ffffffffffffffffffffffffffffffffffffffff168173ffffffffffffffffffffffffffffffffffffffff1603610680576040517f08c379a00000000000000000000000000000000000000000000000000000000081526004016106779061160f565b60405180910390fd5b6106aa7f524f4c455f45524332305f4d494e54455200000000000000000000000000000082610d37565b8073ffffffffffffffffffffffffffffffffffffffff167fe94479a9f7e1952cc78f2d6baab678adc1b772d936c6583def489e524cb6669260405160405180910390a250565b6000807f76d69fecfc8e52f94fec6a5768aaea5d46d249c645e44f1d8446c60d2c0762ed90508091505090565b6000807ffb5f9bce5f7fbdcd10da4fc50325b76117b61254b1eb429f0cacf74a65cc34ad90508091505090565b6000610754610d45565b9050600073ffffffffffffffffffffffffffffffffffffffff168373ffffffffffffffffffffffffffffffffffffffff16036107c5576040517f08c379a00000000000000000000000000000000000000000000000000000000081526004016107bc9061167b565b60405180910390fd5b818160010160008282546107d991906116ca565b92505081905550818160020160008573ffffffffffffffffffffffffffffffffffffffff1673ffffffffffffffffffffffffffffffffffffffff168152602001908152602001600020600082825461083191906116ca565b92505081905550505050565b6000610847610d45565b9050818160020160008573ffffffffffffffffffffffffffffffffffffffff1673ffffffffffffffffffffffffffffffffffffffff1681526020019081526020016000205410156108cd576040517f08c379a00000000000000000000000000000000000000000000000000000000081526004016108c49061174a565b60405180910390fd5b818160020160008573ffffffffffffffffffffffffffffffffffffffff1673ffffffffffffffffffffffffffffffffffffffff168152602001908152602001600020600082825461091e919061176a565b9250508190555081816001016000828254610939919061176a565b92505081905550505050565b600073ffffffffffffffffffffffffffffffffffffffff168173ffffffffffffffffffffffffffffffffffffffff16036109b4576040517f08c379a00000000000000000000000000000000000000000000000000000000081526004016109ab90611810565b60405180910390fd5b6109de7f524f4c455f45524332305f4d494e545f4255524e5f41444d494e00000000000082610d37565b8073ffffffffffffffffffffffffffffffffffffffff167f2009b929e915aa469d182a2b948c5ff129aed40ec867f0e261558ca92320e5d460405160405180910390a250565b600073ffffffffffffffffffffffffffffffffffffffff168173ffffffffffffffffffffffffffffffffffffffff1603610a93576040517f08c379a0000000000000000000000000000000000000000000000000000000008152600401610a8a906118a2565b60405180910390fd5b610abd7f524f4c455f45524332305f4d494e54455200000000000000000000000000000082610d72565b8073ffffffffffffffffffffffffffffffffffffffff167f6ae172837ea30b801fbfcdd4108aa1d5bf8ff775444fd70256b44e6bf3dfc3f660405160405180910390a250565b600073ffffffffffffffffffffffffffffffffffffffff168173ffffffffffffffffffffffffffffffffffffffff1603610b72576040517f08c379a0000000000000000000000000000000000000000000000000000000008152600401610b6990611934565b60405180910390fd5b610b9c7f524f4c455f45524332305f4d494e545f4255524e5f41444d494e00000000000082610d72565b8073ffffffffffffffffffffffffffffffffffffffff167f196d0b3801089b70ac1efa1ddbf2e14afc59474f1dc07d3b2f4da379d22d0db260405160405180910390a250565b600073ffffffffffffffffffffffffffffffffffffffff168173ffffffffffffffffffffffffffffffffffffffff1603610c51576040517f08c379a0000000000000000000000000000000000000000000000000000000008152600401610c48906119c6565b60405180910390fd5b610c7b7f524f4c455f45524332305f4255524e455200000000000000000000000000000082610d72565b8073ffffffffffffffffffffffffffffffffffffffff167f86e57fd2b90329052917118de7c3f521f400d439b9650deaa906a25b08b9456060405160405180910390a250565b600080610ccc61071d565b905080600001600085815260200190815260200160002060008473ffffffffffffffffffffffffffffffffffffffff1673ffffffffffffffffffffffffffffffffffffffff16815260200190815260200160002060009054906101000a900460ff1691505092915050565b610d418282610d80565b5050565b6000807f7c93868e1bfb5ff7f7930e0ba0154b0d59fc7f9fd1852f9ca4873d7bcbe740d090508091505090565b610d7c8282610ea4565b5050565b6000610d8a61071d565b9050610d968383610cc1565b610dd5576040517f08c379a0000000000000000000000000000000000000000000000000000000008152600401610dcc906114eb565b60405180910390fd5b80600001600084815260200190815260200160002060008373ffffffffffffffffffffffffffffffffffffffff1673ffffffffffffffffffffffffffffffffffffffff16815260200190815260200160002060006101000a81549060ff0219169055610e818160010160008473ffffffffffffffffffffffffffffffffffffffff1673ffffffffffffffffffffffffffffffffffffffff16815260200190815260200160002084611048565b610e9f81600201600085815260200190815260200160002083611126565b505050565b6000610eae61071d565b9050610eba8383610cc1565b15610efa576040517f08c379a0000000000000000000000000000000000000000000000000000000008152600401610ef190611a58565b60405180910390fd5b600181600001600085815260200190815260200160002060008473ffffffffffffffffffffffffffffffffffffffff1673ffffffffffffffffffffffffffffffffffffffff16815260200190815260200160002060006101000a81548160ff0219169083151502179055508060010160008373ffffffffffffffffffffffffffffffffffffffff1673ffffffffffffffffffffffffffffffffffffffff168152602001908152602001600020839080600181540180825580915050600190039060005260206000200160009091909190915055806002016000848152602001908152602001600020829080600181540180825580915050600190039060005260206000200160009091909190916101000a81548173ffffffffffffffffffffffffffffffffffffffff021916908373ffffffffffffffffffffffffffffffffffffffff160217905550505050565b60005b8280549050811015611121578183828154811061106b5761106a611a78565b5b90600052602060002001540361110e576001838054905061108c919061176a565b81146110e25782600184805490506110a4919061176a565b815481106110b5576110b4611a78565b5b90600052602060002001548382815481106110d3576110d2611a78565b5b90600052602060002001819055505b828054806110f3576110f2611aa7565b5b60019003818190600052602060002001600090559055611121565b808061111990611ad6565b91505061104b565b505050565b60005b82805490508110156112c4578173ffffffffffffffffffffffffffffffffffffffff1683828154811061115f5761115e611a78565b5b9060005260206000200160009054906101000a900473ffffffffffffffffffffffffffffffffffffffff1673ffffffffffffffffffffffffffffffffffffffff16036112b157600183805490506111b6919061176a565b81146112665782600184805490506111ce919061176a565b815481106111df576111de611a78565b5b9060005260206000200160009054906101000a900473ffffffffffffffffffffffffffffffffffffffff1683828154811061121d5761121c611a78565b5b9060005260206000200160006101000a81548173ffffffffffffffffffffffffffffffffffffffff021916908373ffffffffffffffffffffffffffffffffffffffff1602179055505b8280548061127757611276611aa7565b5b6001900381819060005260206000200160006101000a81549073ffffffffffffffffffffffffffffffffffffffff021916905590556112c4565b80806112bc90611ad6565b915050611129565b505050565b600080fd5b600073ffffffffffffffffffffffffffffffffffffffff82169050919050565b60006112f9826112ce565b9050919050565b611309816112ee565b811461131457600080fd5b50565b60008135905061132681611300565b92915050565b600060208284031215611342576113416112c9565b5b600061135084828501611317565b91505092915050565b6000819050919050565b61136c81611359565b811461137757600080fd5b50565b60008135905061138981611363565b92915050565b600080604083850312156113a6576113a56112c9565b5b60006113b485828601611317565b92505060206113c58582860161137a565b9150509250929050565b6000602082840312156113e5576113e46112c9565b5b60006113f38482850161137a565b91505092915050565b600082825260208201905092915050565b7f4e4f5420494e495449414c495a45440000000000000000000000000000000000600082015250565b6000611443600f836113fc565b915061144e8261140d565b602082019050919050565b6000602082019050818103600083015261147281611436565b9050919050565b7f416363657373436f6e74726f6c3a206163636f756e7420646f6573206e6f742060008201527f6861766520726f6c650000000000000000000000000000000000000000000000602082015250565b60006114d56029836113fc565b91506114e082611479565b604082019050919050565b60006020820190508181036000830152611504816114c8565b9050919050565b7f43616e6e6f742072656d6f7665206275726e65722066726f6d20746865207a6560008201527f726f206164647265737300000000000000000000000000000000000000000000602082015250565b6000611567602a836113fc565b91506115728261150b565b604082019050919050565b600060208201905081810360008301526115968161155a565b9050919050565b7f43616e6e6f742072656d6f7665206d696e7465722066726f6d20746865207a6560008201527f726f206164647265737300000000000000000000000000000000000000000000602082015250565b60006115f9602a836113fc565b91506116048261159d565b604082019050919050565b60006020820190508181036000830152611628816115ec565b9050919050565b7f6d696e7420746f20746865207a65726f20616464726573730000000000000000600082015250565b60006116656018836113fc565b91506116708261162f565b602082019050919050565b6000602082019050818103600083015261169481611658565b9050919050565b7f4e487b7100000000000000000000000000000000000000000000000000000000600052601160045260246000fd5b60006116d582611359565b91506116e083611359565b92508282019050808211156116f8576116f761169b565b5b92915050565b7f6275726e20616d6f756e7420657863656564732062616c616e63650000000000600082015250565b6000611734601b836113fc565b915061173f826116fe565b602082019050919050565b6000602082019050818103600083015261176381611727565b9050919050565b600061177582611359565b915061178083611359565b92508282039050818111156117985761179761169b565b5b92915050565b7f43616e6e6f742072656d6f7665206d696e742d6275726e2061646d696e20667260008201527f6f6d20746865207a65726f206164647265737300000000000000000000000000602082015250565b60006117fa6033836113fc565b91506118058261179e565b604082019050919050565b60006020820190508181036000830152611829816117ed565b9050919050565b7f43616e6e6f7420616464206d696e74657220746f20746865207a65726f20616460008201527f6472657373000000000000000000000000000000000000000000000000000000602082015250565b600061188c6025836113fc565b915061189782611830565b604082019050919050565b600060208201905081810360008301526118bb8161187f565b9050919050565b7f43616e6e6f7420616464206d696e742d6275726e2061646d696e20746f20746860008201527f65207a65726f2061646472657373000000000000000000000000000000000000602082015250565b600061191e602e836113fc565b9150611929826118c2565b604082019050919050565b6000602082019050818103600083015261194d81611911565b9050919050565b7f43616e6e6f7420616464206275726e657220746f20746865207a65726f20616460008201527f6472657373000000000000000000000000000000000000000000000000000000602082015250565b60006119b06025836113fc565b91506119bb82611954565b604082019050919050565b600060208201905081810360008301526119df816119a3565b9050919050565b7f416363657373436f6e74726f6c3a206163636f756e7420616c7265616479206860008201527f617320726f6c6500000000000000000000000000000000000000000000000000602082015250565b6000611a426027836113fc565b9150611a4d826119e6565b604082019050919050565b60006020820190508181036000830152611a7181611a35565b9050919050565b7f4e487b7100000000000000000000000000000000000000000000000000000000600052603260045260246000fd5b7f4e487b7100000000000000000000000000000000000000000000000000000000600052603160045260246000fd5b6000611ae182611359565b91507fffffffffffffffffffffffffffffffffffffffffffffffffffffffffffffffff8203611b1357611b1261169b565b5b60018201905091905056fea26469706673582212204bfe03802169939b78902cbc61757d5df7464304bc5e3fa38107680996d946b464736f6c63430008120033",
  "linkReferences": {},
  "deployedLinkReferences": {}
}